{
	"verifier/src/BabyItsMe.sol": {
		"BabyItsMe": {
			"abi": [
				{
					"inputs": [
						{
							"internalType": "address",
							"name": "_who",
							"type": "address"
						}
					],
					"name": "generate",
					"outputs": [
						{
							"internalType": "uint256",
							"name": "",
							"type": "uint256"
						}
					],
					"stateMutability": "pure",
					"type": "function"
				},
				{
					"inputs": [
						{
							"internalType": "address",
							"name": "",
							"type": "address"
						}
					],
					"name": "solved",
					"outputs": [
						{
							"internalType": "uint256",
							"name": "",
							"type": "uint256"
						}
					],
					"stateMutability": "view",
					"type": "function"
				},
				{
					"inputs": [
						{
							"internalType": "uint256",
							"name": "_start",
							"type": "uint256"
						},
						{
							"internalType": "uint256",
							"name": "_solution",
							"type": "uint256"
						}
					],
					"name": "verify",
					"outputs": [
						{
							"internalType": "bool",
							"name": "",
							"type": "bool"
						}
					],
					"stateMutability": "view",
					"type": "function"
				},
				{
					"inputs": [
						{
							"components": [
								{
									"components": [
										{
											"internalType": "uint256",
											"name": "X",
											"type": "uint256"
										},
										{
											"internalType": "uint256",
											"name": "Y",
											"type": "uint256"
										}
									],
									"internalType": "struct Pairing.G1Point",
									"name": "a",
									"type": "tuple"
								},
								{
									"components": [
										{
											"internalType": "uint256[2]",
											"name": "X",
											"type": "uint256[2]"
										},
										{
											"internalType": "uint256[2]",
											"name": "Y",
											"type": "uint256[2]"
										}
									],
									"internalType": "struct Pairing.G2Point",
									"name": "b",
									"type": "tuple"
								},
								{
									"components": [
										{
											"internalType": "uint256",
											"name": "X",
											"type": "uint256"
										},
										{
											"internalType": "uint256",
											"name": "Y",
											"type": "uint256"
										}
									],
									"internalType": "struct Pairing.G1Point",
									"name": "c",
									"type": "tuple"
								}
							],
							"internalType": "struct Verifier.Proof",
							"name": "_proof",
							"type": "tuple"
						}
					],
					"name": "verifyProof",
					"outputs": [
						{
							"internalType": "bool",
							"name": "",
							"type": "bool"
						}
					],
					"stateMutability": "nonpayable",
					"type": "function"
				}
			],
			"devdoc": {
				"kind": "dev",
				"methods": {},
				"version": 1
			},
			"evm": {
				"assembly": "    /* \"verifier/src/BabyItsMe.sol\":86:1680  contract BabyItsMe is Verifier {... */\n  mstore(0x40, 0x80)\n  callvalue\n  dup1\n  iszero\n  tag_1\n  jumpi\n  0x00\n  dup1\n  revert\ntag_1:\n  pop\n  dataSize(sub_0)\n  dup1\n  dataOffset(sub_0)\n  0x00\n  codecopy\n  0x00\n  return\nstop\n\nsub_0: assembly {\n        /* \"verifier/src/BabyItsMe.sol\":86:1680  contract BabyItsMe is Verifier {... */\n      mstore(0x40, 0x80)\n      callvalue\n      dup1\n      iszero\n      tag_1\n      jumpi\n      0x00\n      dup1\n      revert\n    tag_1:\n      pop\n      jumpi(tag_2, lt(calldatasize, 0x04))\n      shr(0xe0, calldataload(0x00))\n      dup1\n      0x2fa61cd8\n      eq\n      tag_3\n      jumpi\n      dup1\n      0x41161b10\n      eq\n      tag_4\n      jumpi\n      dup1\n      0x5e36bdc6\n      eq\n      tag_5\n      jumpi\n      dup1\n      0x9eefefef\n      eq\n      tag_6\n      jumpi\n    tag_2:\n      0x00\n      dup1\n      revert\n        /* \"verifier/src/BabyItsMe.sol\":1533:1678  function generate(address _who) public pure returns (uint256) {... */\n    tag_3:\n      tag_7\n      0x04\n      dup1\n      calldatasize\n      sub\n      dup2\n      add\n      swap1\n      tag_8\n      swap2\n      swap1\n      tag_9\n      jump\t// in\n    tag_8:\n      tag_10\n      jump\t// in\n    tag_7:\n      mload(0x40)\n      tag_11\n      swap2\n      swap1\n      tag_12\n      jump\t// in\n    tag_11:\n      mload(0x40)\n      dup1\n      swap2\n      sub\n      swap1\n      return\n        /* \"verifier/src/BabyItsMe.sol\":587:736  function verify(uint256 _start, uint256 _solution) external view returns (bool) {... */\n    tag_4:\n      tag_13\n      0x04\n      dup1\n      calldatasize\n      sub\n      dup2\n      add\n      swap1\n      tag_14\n      swap2\n      swap1\n      tag_15\n      jump\t// in\n    tag_14:\n      tag_16\n      jump\t// in\n    tag_13:\n      mload(0x40)\n      tag_17\n      swap2\n      swap1\n      tag_18\n      jump\t// in\n    tag_17:\n      mload(0x40)\n      dup1\n      swap2\n      sub\n      swap1\n      return\n        /* \"verifier/src/BabyItsMe.sol\":412:453  mapping(address => uint256) public solved */\n    tag_5:\n      tag_19\n      0x04\n      dup1\n      calldatasize\n      sub\n      dup2\n      add\n      swap1\n      tag_20\n      swap2\n      swap1\n      tag_9\n      jump\t// in\n    tag_20:\n      tag_21\n      jump\t// in\n    tag_19:\n      mload(0x40)\n      tag_22\n      swap2\n      swap1\n      tag_12\n      jump\t// in\n    tag_22:\n      mload(0x40)\n      dup1\n      swap2\n      sub\n      swap1\n      return\n        /* \"verifier/src/BabyItsMe.sol\":1052:1395  function verifyProof(Proof memory _proof) external returns (bool) {... */\n    tag_6:\n      tag_23\n      0x04\n      dup1\n      calldatasize\n      sub\n      dup2\n      add\n      swap1\n      tag_24\n      swap2\n      swap1\n      tag_25\n      jump\t// in\n    tag_24:\n      tag_26\n      jump\t// in\n    tag_23:\n      mload(0x40)\n      tag_27\n      swap2\n      swap1\n      tag_18\n      jump\t// in\n    tag_27:\n      mload(0x40)\n      dup1\n      swap2\n      sub\n      swap1\n      return\n        /* \"verifier/src/BabyItsMe.sol\":1533:1678  function generate(address _who) public pure returns (uint256) {... */\n    tag_10:\n        /* \"verifier/src/BabyItsMe.sol\":1586:1593  uint256 */\n      0x00\n        /* \"verifier/src/BabyItsMe.sol\":1670:1671  3 */\n      0x03\n        /* \"verifier/src/BabyItsMe.sol\":1659:1663  _who */\n      dup3\n        /* \"verifier/src/BabyItsMe.sol\":1630:1664  abi.encode(\"Baby it's me, \", _who) */\n      add(0x20, mload(0x40))\n      tag_29\n      swap2\n      swap1\n      tag_30\n      jump\t// in\n    tag_29:\n      mload(0x40)\n      0x20\n      dup2\n      dup4\n      sub\n      sub\n      dup2\n      mstore\n      swap1\n      0x40\n      mstore\n        /* \"verifier/src/BabyItsMe.sol\":1620:1665  keccak256(abi.encode(\"Baby it's me, \", _who)) */\n      dup1\n      mload\n      swap1\n      0x20\n      add\n      keccak256\n        /* \"verifier/src/BabyItsMe.sol\":1612:1666  uint256(keccak256(abi.encode(\"Baby it's me, \", _who))) */\n      0x00\n      shr\n        /* \"verifier/src/BabyItsMe.sol\":1612:1671  uint256(keccak256(abi.encode(\"Baby it's me, \", _who))) >> 3 */\n      swap1\n      shr\n        /* \"verifier/src/BabyItsMe.sol\":1605:1671  return uint256(keccak256(abi.encode(\"Baby it's me, \", _who))) >> 3 */\n      swap1\n      pop\n        /* \"verifier/src/BabyItsMe.sol\":1533:1678  function generate(address _who) public pure returns (uint256) {... */\n      swap2\n      swap1\n      pop\n      jump\t// out\n        /* \"verifier/src/BabyItsMe.sol\":587:736  function verify(uint256 _start, uint256 _solution) external view returns (bool) {... */\n    tag_16:\n        /* \"verifier/src/BabyItsMe.sol\":661:665  bool */\n      0x00\n        /* \"verifier/src/BabyItsMe.sol\":723:729  _start */\n      dup3\n        /* \"verifier/src/BabyItsMe.sol\":684:690  solved */\n      0x00\n        /* \"verifier/src/BabyItsMe.sol\":684:719  solved[address(uint160(_solution))] */\n      dup1\n        /* \"verifier/src/BabyItsMe.sol\":707:716  _solution */\n      dup5\n        /* \"verifier/src/BabyItsMe.sol\":684:719  solved[address(uint160(_solution))] */\n      0xffffffffffffffffffffffffffffffffffffffff\n      and\n      0xffffffffffffffffffffffffffffffffffffffff\n      and\n      dup2\n      mstore\n      0x20\n      add\n      swap1\n      dup2\n      mstore\n      0x20\n      add\n      0x00\n      keccak256\n      sload\n        /* \"verifier/src/BabyItsMe.sol\":684:729  solved[address(uint160(_solution))] == _start */\n      eq\n        /* \"verifier/src/BabyItsMe.sol\":677:729  return solved[address(uint160(_solution))] == _start */\n      swap1\n      pop\n        /* \"verifier/src/BabyItsMe.sol\":587:736  function verify(uint256 _start, uint256 _solution) external view returns (bool) {... */\n      swap3\n      swap2\n      pop\n      pop\n      jump\t// out\n        /* \"verifier/src/BabyItsMe.sol\":412:453  mapping(address => uint256) public solved */\n    tag_21:\n      mstore(0x20, 0x00)\n      dup1\n      0x00\n      mstore\n      keccak256(0x00, 0x40)\n      0x00\n      swap2\n      pop\n      swap1\n      pop\n      sload\n      dup2\n      jump\t// out\n        /* \"verifier/src/BabyItsMe.sol\":1052:1395  function verifyProof(Proof memory _proof) external returns (bool) {... */\n    tag_26:\n        /* \"verifier/src/BabyItsMe.sol\":1112:1116  bool */\n      0x00\n        /* \"verifier/src/BabyItsMe.sol\":1128:1141  uint256 start */\n      dup1\n        /* \"verifier/src/BabyItsMe.sol\":1144:1164  generate(msg.sender) */\n      tag_33\n        /* \"verifier/src/BabyItsMe.sol\":1153:1163  msg.sender */\n      caller\n        /* \"verifier/src/BabyItsMe.sol\":1144:1152  generate */\n      tag_10\n        /* \"verifier/src/BabyItsMe.sol\":1144:1164  generate(msg.sender) */\n      jump\t// in\n    tag_33:\n        /* \"verifier/src/BabyItsMe.sol\":1128:1164  uint256 start = generate(msg.sender) */\n      swap1\n      pop\n        /* \"verifier/src/BabyItsMe.sol\":1174:1190  bool user_solved */\n      0x00\n        /* \"verifier/src/BabyItsMe.sol\":1198:1263  verify([PK_X, PK_Y, start, uint256(uint160(msg.sender))], _proof) */\n      tag_34\n      mload(0x40)\n      dup1\n      0x80\n      add\n      0x40\n      mstore\n      dup1\n        /* \"verifier/src/BabyItsMe.sol\":223:299  4342719913949491028786768530115087822524712248835451589697801404893164183326 */\n      0x0999e47227c47e8829b0d14b251feed7582d0f5357b304b06d4014ae6ab39f1e\n        /* \"verifier/src/BabyItsMe.sol\":1198:1263  verify([PK_X, PK_Y, start, uint256(uint160(msg.sender))], _proof) */\n      dup2\n      mstore\n      0x20\n      add\n        /* \"verifier/src/BabyItsMe.sol\":329:405  4826523245007015323400664741523384119579596407052839571721035538011798951543 */\n      0x0aabb7211172d31463c1127d4ba6942cb791c56d8234b5a0abfd1e81afd0d677\n        /* \"verifier/src/BabyItsMe.sol\":1198:1263  verify([PK_X, PK_Y, start, uint256(uint160(msg.sender))], _proof) */\n      dup2\n      mstore\n      0x20\n      add\n        /* \"verifier/src/BabyItsMe.sol\":1218:1223  start */\n      dup5\n        /* \"verifier/src/BabyItsMe.sol\":1198:1263  verify([PK_X, PK_Y, start, uint256(uint160(msg.sender))], _proof) */\n      dup2\n      mstore\n      0x20\n      add\n        /* \"verifier/src/BabyItsMe.sol\":1241:1251  msg.sender */\n      caller\n        /* \"verifier/src/BabyItsMe.sol\":1225:1253  uint256(uint160(msg.sender)) */\n      0xffffffffffffffffffffffffffffffffffffffff\n      and\n        /* \"verifier/src/BabyItsMe.sol\":1198:1263  verify([PK_X, PK_Y, start, uint256(uint160(msg.sender))], _proof) */\n      dup2\n      mstore\n      pop\n        /* \"verifier/src/BabyItsMe.sol\":1256:1262  _proof */\n      dup6\n        /* \"verifier/src/BabyItsMe.sol\":1198:1204  verify */\n      tag_35\n        /* \"verifier/src/BabyItsMe.sol\":1198:1263  verify([PK_X, PK_Y, start, uint256(uint160(msg.sender))], _proof) */\n      jump\t// in\n    tag_34:\n        /* \"verifier/src/BabyItsMe.sol\":1193:1194  0 */\n      0x00\n        /* \"verifier/src/BabyItsMe.sol\":1193:1263  0 == verify([PK_X, PK_Y, start, uint256(uint160(msg.sender))], _proof) */\n      eq\n        /* \"verifier/src/BabyItsMe.sol\":1174:1263  bool user_solved = 0 == verify([PK_X, PK_Y, start, uint256(uint160(msg.sender))], _proof) */\n      swap1\n      pop\n        /* \"verifier/src/BabyItsMe.sol\":1277:1288  user_solved */\n      dup1\n        /* \"verifier/src/BabyItsMe.sol\":1273:1366  if (user_solved) {... */\n      iszero\n      tag_36\n      jumpi\n        /* \"verifier/src/BabyItsMe.sol\":1325:1330  start */\n      dup2\n        /* \"verifier/src/BabyItsMe.sol\":1304:1310  solved */\n      0x00\n        /* \"verifier/src/BabyItsMe.sol\":1304:1322  solved[msg.sender] */\n      dup1\n        /* \"verifier/src/BabyItsMe.sol\":1311:1321  msg.sender */\n      caller\n        /* \"verifier/src/BabyItsMe.sol\":1304:1322  solved[msg.sender] */\n      0xffffffffffffffffffffffffffffffffffffffff\n      and\n      0xffffffffffffffffffffffffffffffffffffffff\n      and\n      dup2\n      mstore\n      0x20\n      add\n      swap1\n      dup2\n      mstore\n      0x20\n      add\n      0x00\n      keccak256\n        /* \"verifier/src/BabyItsMe.sol\":1304:1330  solved[msg.sender] = start */\n      dup2\n      swap1\n      sstore\n      pop\n        /* \"verifier/src/BabyItsMe.sol\":1351:1355  true */\n      0x01\n        /* \"verifier/src/BabyItsMe.sol\":1344:1355  return true */\n      swap3\n      pop\n      pop\n      pop\n      jump(tag_32)\n        /* \"verifier/src/BabyItsMe.sol\":1273:1366  if (user_solved) {... */\n    tag_36:\n        /* \"verifier/src/BabyItsMe.sol\":1383:1388  false */\n      0x00\n        /* \"verifier/src/BabyItsMe.sol\":1376:1388  return false */\n      swap3\n      pop\n      pop\n      pop\n        /* \"verifier/src/BabyItsMe.sol\":1052:1395  function verifyProof(Proof memory _proof) external returns (bool) {... */\n    tag_32:\n      swap2\n      swap1\n      pop\n      jump\t// out\n        /* \"verifier/src/Verifier.sol\":9726:10769  function verify(uint256[4] memory input, Proof memory proof) internal view returns (uint256) {... */\n    tag_35:\n        /* \"verifier/src/Verifier.sol\":9810:9817  uint256 */\n      0x00\n        /* \"verifier/src/Verifier.sol\":9829:9855  uint256 snark_scalar_field */\n      dup1\n        /* \"verifier/src/Verifier.sol\":9858:9935  21888242871839275222246405745257275088548364400416034343698204186575808495617 */\n      0x30644e72e131a029b85045b68181585d2833e84879b9709143e1f593f0000001\n        /* \"verifier/src/Verifier.sol\":9829:9935  uint256 snark_scalar_field = 21888242871839275222246405745257275088548364400416034343698204186575808495617 */\n      swap1\n      pop\n        /* \"verifier/src/Verifier.sol\":9945:9967  VerifyingKey memory vk */\n      0x00\n        /* \"verifier/src/Verifier.sol\":9970:9984  verifyingKey() */\n      tag_38\n        /* \"verifier/src/Verifier.sol\":9970:9982  verifyingKey */\n      tag_39\n        /* \"verifier/src/Verifier.sol\":9970:9984  verifyingKey() */\n      jump\t// in\n    tag_38:\n        /* \"verifier/src/Verifier.sol\":9945:9984  VerifyingKey memory vk = verifyingKey() */\n      swap1\n      pop\n        /* \"verifier/src/Verifier.sol\":10022:10024  vk */\n      dup1\n        /* \"verifier/src/Verifier.sol\":10022:10034  vk.gamma_abc */\n      0x80\n      add\n      mload\n        /* \"verifier/src/Verifier.sol\":10022:10041  vk.gamma_abc.length */\n      mload\n        /* \"verifier/src/Verifier.sol\":10017:10018  1 */\n      0x01\n        /* \"verifier/src/Verifier.sol\":10002:10014  input.length */\n      0x04\n        /* \"verifier/src/Verifier.sol\":10002:10018  input.length + 1 */\n      tag_40\n      swap2\n      swap1\n      tag_41\n      jump\t// in\n    tag_40:\n        /* \"verifier/src/Verifier.sol\":10002:10041  input.length + 1 == vk.gamma_abc.length */\n      eq\n        /* \"verifier/src/Verifier.sol\":9994:10042  require(input.length + 1 == vk.gamma_abc.length) */\n      tag_42\n      jumpi\n      0x00\n      dup1\n      revert\n    tag_42:\n        /* \"verifier/src/Verifier.sol\":10099:10126  Pairing.G1Point memory vk_x */\n      0x00\n        /* \"verifier/src/Verifier.sol\":10129:10150  Pairing.G1Point(0, 0) */\n      mload(0x40)\n      dup1\n      0x40\n      add\n      0x40\n      mstore\n      dup1\n        /* \"verifier/src/Verifier.sol\":10145:10146  0 */\n      0x00\n        /* \"verifier/src/Verifier.sol\":10129:10150  Pairing.G1Point(0, 0) */\n      dup2\n      mstore\n      0x20\n      add\n        /* \"verifier/src/Verifier.sol\":10148:10149  0 */\n      0x00\n        /* \"verifier/src/Verifier.sol\":10129:10150  Pairing.G1Point(0, 0) */\n      dup2\n      mstore\n      pop\n        /* \"verifier/src/Verifier.sol\":10099:10150  Pairing.G1Point memory vk_x = Pairing.G1Point(0, 0) */\n      swap1\n      pop\n        /* \"verifier/src/Verifier.sol\":10165:10174  uint256 i */\n      0x00\n        /* \"verifier/src/Verifier.sol\":10160:10360  for (uint256 i = 0; i < input.length; i++) {... */\n    tag_43:\n        /* \"verifier/src/Verifier.sol\":10184:10196  input.length */\n      0x04\n        /* \"verifier/src/Verifier.sol\":10180:10181  i */\n      dup2\n        /* \"verifier/src/Verifier.sol\":10180:10196  i < input.length */\n      lt\n        /* \"verifier/src/Verifier.sol\":10160:10360  for (uint256 i = 0; i < input.length; i++) {... */\n      iszero\n      tag_44\n      jumpi\n        /* \"verifier/src/Verifier.sol\":10236:10254  snark_scalar_field */\n      dup4\n        /* \"verifier/src/Verifier.sol\":10225:10230  input */\n      dup8\n        /* \"verifier/src/Verifier.sol\":10231:10232  i */\n      dup3\n        /* \"verifier/src/Verifier.sol\":10225:10233  input[i] */\n      0x04\n      dup2\n      lt\n      tag_46\n      jumpi\n      tag_47\n      tag_48\n      jump\t// in\n    tag_47:\n    tag_46:\n      0x20\n      mul\n      add\n      mload\n        /* \"verifier/src/Verifier.sol\":10225:10254  input[i] < snark_scalar_field */\n      lt\n        /* \"verifier/src/Verifier.sol\":10217:10255  require(input[i] < snark_scalar_field) */\n      tag_49\n      jumpi\n      0x00\n      dup1\n      revert\n    tag_49:\n        /* \"verifier/src/Verifier.sol\":10276:10349  Pairing.addition(vk_x, Pairing.scalar_mul(vk.gamma_abc[i + 1], input[i])) */\n      tag_50\n        /* \"verifier/src/Verifier.sol\":10293:10297  vk_x */\n      dup3\n        /* \"verifier/src/Verifier.sol\":10299:10348  Pairing.scalar_mul(vk.gamma_abc[i + 1], input[i]) */\n      tag_51\n        /* \"verifier/src/Verifier.sol\":10318:10320  vk */\n      dup6\n        /* \"verifier/src/Verifier.sol\":10318:10330  vk.gamma_abc */\n      0x80\n      add\n      mload\n        /* \"verifier/src/Verifier.sol\":10335:10336  1 */\n      0x01\n        /* \"verifier/src/Verifier.sol\":10331:10332  i */\n      dup6\n        /* \"verifier/src/Verifier.sol\":10331:10336  i + 1 */\n      tag_52\n      swap2\n      swap1\n      tag_41\n      jump\t// in\n    tag_52:\n        /* \"verifier/src/Verifier.sol\":10318:10337  vk.gamma_abc[i + 1] */\n      dup2\n      mload\n      dup2\n      lt\n      tag_53\n      jumpi\n      tag_54\n      tag_48\n      jump\t// in\n    tag_54:\n    tag_53:\n      0x20\n      mul\n      0x20\n      add\n      add\n      mload\n        /* \"verifier/src/Verifier.sol\":10339:10344  input */\n      dup11\n        /* \"verifier/src/Verifier.sol\":10345:10346  i */\n      dup6\n        /* \"verifier/src/Verifier.sol\":10339:10347  input[i] */\n      0x04\n      dup2\n      lt\n      tag_55\n      jumpi\n      tag_56\n      tag_48\n      jump\t// in\n    tag_56:\n    tag_55:\n      0x20\n      mul\n      add\n      mload\n        /* \"verifier/src/Verifier.sol\":10299:10317  Pairing.scalar_mul */\n      tag_57\n        /* \"verifier/src/Verifier.sol\":10299:10348  Pairing.scalar_mul(vk.gamma_abc[i + 1], input[i]) */\n      jump\t// in\n    tag_51:\n        /* \"verifier/src/Verifier.sol\":10276:10292  Pairing.addition */\n      tag_58\n        /* \"verifier/src/Verifier.sol\":10276:10349  Pairing.addition(vk_x, Pairing.scalar_mul(vk.gamma_abc[i + 1], input[i])) */\n      jump\t// in\n    tag_50:\n        /* \"verifier/src/Verifier.sol\":10269:10349  vk_x = Pairing.addition(vk_x, Pairing.scalar_mul(vk.gamma_abc[i + 1], input[i])) */\n      swap2\n      pop\n        /* \"verifier/src/Verifier.sol\":10198:10201  i++ */\n      dup1\n      dup1\n      tag_59\n      swap1\n      tag_60\n      jump\t// in\n    tag_59:\n      swap2\n      pop\n      pop\n        /* \"verifier/src/Verifier.sol\":10160:10360  for (uint256 i = 0; i < input.length; i++) {... */\n      jump(tag_43)\n    tag_44:\n      pop\n        /* \"verifier/src/Verifier.sol\":10376:10415  Pairing.addition(vk_x, vk.gamma_abc[0]) */\n      tag_61\n        /* \"verifier/src/Verifier.sol\":10393:10397  vk_x */\n      dup2\n        /* \"verifier/src/Verifier.sol\":10399:10401  vk */\n      dup4\n        /* \"verifier/src/Verifier.sol\":10399:10411  vk.gamma_abc */\n      0x80\n      add\n      mload\n        /* \"verifier/src/Verifier.sol\":10412:10413  0 */\n      0x00\n        /* \"verifier/src/Verifier.sol\":10399:10414  vk.gamma_abc[0] */\n      dup2\n      mload\n      dup2\n      lt\n      tag_62\n      jumpi\n      tag_63\n      tag_48\n      jump\t// in\n    tag_63:\n    tag_62:\n      0x20\n      mul\n      0x20\n      add\n      add\n      mload\n        /* \"verifier/src/Verifier.sol\":10376:10392  Pairing.addition */\n      tag_58\n        /* \"verifier/src/Verifier.sol\":10376:10415  Pairing.addition(vk_x, vk.gamma_abc[0]) */\n      jump\t// in\n    tag_61:\n        /* \"verifier/src/Verifier.sol\":10369:10415  vk_x = Pairing.addition(vk_x, vk.gamma_abc[0]) */\n      swap1\n      pop\n        /* \"verifier/src/Verifier.sol\":10443:10725  Pairing.pairingProd4(... */\n      tag_64\n        /* \"verifier/src/Verifier.sol\":10481:10486  proof */\n      dup6\n        /* \"verifier/src/Verifier.sol\":10481:10488  proof.a */\n      0x00\n      add\n      mload\n        /* \"verifier/src/Verifier.sol\":10506:10511  proof */\n      dup7\n        /* \"verifier/src/Verifier.sol\":10506:10513  proof.b */\n      0x20\n      add\n      mload\n        /* \"verifier/src/Verifier.sol\":10531:10551  Pairing.negate(vk_x) */\n      tag_65\n        /* \"verifier/src/Verifier.sol\":10546:10550  vk_x */\n      dup5\n        /* \"verifier/src/Verifier.sol\":10531:10545  Pairing.negate */\n      tag_66\n        /* \"verifier/src/Verifier.sol\":10531:10551  Pairing.negate(vk_x) */\n      jump\t// in\n    tag_65:\n        /* \"verifier/src/Verifier.sol\":10569:10571  vk */\n      dup6\n        /* \"verifier/src/Verifier.sol\":10569:10577  vk.gamma */\n      0x40\n      add\n      mload\n        /* \"verifier/src/Verifier.sol\":10595:10618  Pairing.negate(proof.c) */\n      tag_67\n        /* \"verifier/src/Verifier.sol\":10610:10615  proof */\n      dup11\n        /* \"verifier/src/Verifier.sol\":10610:10617  proof.c */\n      0x40\n      add\n      mload\n        /* \"verifier/src/Verifier.sol\":10595:10609  Pairing.negate */\n      tag_66\n        /* \"verifier/src/Verifier.sol\":10595:10618  Pairing.negate(proof.c) */\n      jump\t// in\n    tag_67:\n        /* \"verifier/src/Verifier.sol\":10636:10638  vk */\n      dup8\n        /* \"verifier/src/Verifier.sol\":10636:10644  vk.delta */\n      0x60\n      add\n      mload\n        /* \"verifier/src/Verifier.sol\":10662:10686  Pairing.negate(vk.alpha) */\n      tag_68\n        /* \"verifier/src/Verifier.sol\":10677:10679  vk */\n      dup10\n        /* \"verifier/src/Verifier.sol\":10677:10685  vk.alpha */\n      0x00\n      add\n      mload\n        /* \"verifier/src/Verifier.sol\":10662:10676  Pairing.negate */\n      tag_66\n        /* \"verifier/src/Verifier.sol\":10662:10686  Pairing.negate(vk.alpha) */\n      jump\t// in\n    tag_68:\n        /* \"verifier/src/Verifier.sol\":10704:10706  vk */\n      dup10\n        /* \"verifier/src/Verifier.sol\":10704:10711  vk.beta */\n      0x20\n      add\n      mload\n        /* \"verifier/src/Verifier.sol\":10443:10463  Pairing.pairingProd4 */\n      tag_69\n        /* \"verifier/src/Verifier.sol\":10443:10725  Pairing.pairingProd4(... */\n      jump\t// in\n    tag_64:\n        /* \"verifier/src/Verifier.sol\":10425:10744  if (... */\n      tag_70\n      jumpi\n        /* \"verifier/src/Verifier.sol\":10743:10744  1 */\n      0x01\n        /* \"verifier/src/Verifier.sol\":10736:10744  return 1 */\n      swap4\n      pop\n      pop\n      pop\n      pop\n      jump(tag_37)\n        /* \"verifier/src/Verifier.sol\":10425:10744  if (... */\n    tag_70:\n        /* \"verifier/src/Verifier.sol\":10761:10762  0 */\n      0x00\n        /* \"verifier/src/Verifier.sol\":10754:10762  return 0 */\n      swap4\n      pop\n      pop\n      pop\n      pop\n        /* \"verifier/src/Verifier.sol\":9726:10769  function verify(uint256[4] memory input, Proof memory proof) internal view returns (uint256) {... */\n    tag_37:\n      swap3\n      swap2\n      pop\n      pop\n      jump\t// out\n        /* \"verifier/src/Verifier.sol\":6793:9720  function verifyingKey() internal pure returns (VerifyingKey memory vk) {... */\n    tag_39:\n        /* \"verifier/src/Verifier.sol\":6840:6862  VerifyingKey memory vk */\n      tag_71\n      tag_72\n      jump\t// in\n    tag_71:\n        /* \"verifier/src/Verifier.sol\":6885:7088  Pairing.G1Point(... */\n      mload(0x40)\n      dup1\n      0x40\n      add\n      0x40\n      mstore\n      dup1\n        /* \"verifier/src/Verifier.sol\":6922:6988  0x0284c469d8eaf677e29635e18886312bd0c6ba2a632674a2703a8d9a5d5a48db */\n      0x0284c469d8eaf677e29635e18886312bd0c6ba2a632674a2703a8d9a5d5a48db\n        /* \"verifier/src/Verifier.sol\":6885:7088  Pairing.G1Point(... */\n      dup2\n      mstore\n      0x20\n      add\n        /* \"verifier/src/Verifier.sol\":7011:7077  0x19b4d4d74797c3307e59c683ccad9119397c90f76ad28c043ec9671a95502e76 */\n      0x19b4d4d74797c3307e59c683ccad9119397c90f76ad28c043ec9671a95502e76\n        /* \"verifier/src/Verifier.sol\":6885:7088  Pairing.G1Point(... */\n      dup2\n      mstore\n      pop\n        /* \"verifier/src/Verifier.sol\":6874:6876  vk */\n      dup2\n        /* \"verifier/src/Verifier.sol\":6874:6882  vk.alpha */\n      0x00\n      add\n        /* \"verifier/src/Verifier.sol\":6874:7088  vk.alpha = Pairing.G1Point(... */\n      dup2\n      swap1\n      mstore\n      pop\n        /* \"verifier/src/Verifier.sol\":7108:7561  Pairing.G2Point(... */\n      mload(0x40)\n      dup1\n      0x40\n      add\n      0x40\n      mstore\n      dup1\n      mload(0x40)\n      dup1\n      0x40\n      add\n      0x40\n      mstore\n      dup1\n        /* \"verifier/src/Verifier.sol\":7163:7229  0x0319296206e25c6e7ea35492e825fcdbea39b0980b72f18b3f7385d6d46352b0 */\n      0x0319296206e25c6e7ea35492e825fcdbea39b0980b72f18b3f7385d6d46352b0\n        /* \"verifier/src/Verifier.sol\":7108:7561  Pairing.G2Point(... */\n      dup2\n      mstore\n      0x20\n      add\n        /* \"verifier/src/Verifier.sol\":7256:7322  0x10bc74487c379aad3a10da56c479ae5db4e4b3faeb354f4aa57ed4524a3e4527 */\n      0x10bc74487c379aad3a10da56c479ae5db4e4b3faeb354f4aa57ed4524a3e4527\n        /* \"verifier/src/Verifier.sol\":7108:7561  Pairing.G2Point(... */\n      dup2\n      mstore\n      pop\n      dup2\n      mstore\n      0x20\n      add\n      mload(0x40)\n      dup1\n      0x40\n      add\n      0x40\n      mstore\n      dup1\n        /* \"verifier/src/Verifier.sol\":7377:7443  0x2971943778693059384530140201f76e29adf7a4222921b744f09045f2011e1d */\n      0x2971943778693059384530140201f76e29adf7a4222921b744f09045f2011e1d\n        /* \"verifier/src/Verifier.sol\":7108:7561  Pairing.G2Point(... */\n      dup2\n      mstore\n      0x20\n      add\n        /* \"verifier/src/Verifier.sol\":7470:7536  0x21099f091b01503caab27b87ee9769840d27963846e35613d26190bc5c4d0cef */\n      0x21099f091b01503caab27b87ee9769840d27963846e35613d26190bc5c4d0cef\n        /* \"verifier/src/Verifier.sol\":7108:7561  Pairing.G2Point(... */\n      dup2\n      mstore\n      pop\n      dup2\n      mstore\n      pop\n        /* \"verifier/src/Verifier.sol\":7098:7100  vk */\n      dup2\n        /* \"verifier/src/Verifier.sol\":7098:7105  vk.beta */\n      0x20\n      add\n        /* \"verifier/src/Verifier.sol\":7098:7561  vk.beta = Pairing.G2Point(... */\n      dup2\n      swap1\n      mstore\n      pop\n        /* \"verifier/src/Verifier.sol\":7582:8035  Pairing.G2Point(... */\n      mload(0x40)\n      dup1\n      0x40\n      add\n      0x40\n      mstore\n      dup1\n      mload(0x40)\n      dup1\n      0x40\n      add\n      0x40\n      mstore\n      dup1\n        /* \"verifier/src/Verifier.sol\":7637:7703  0x2cd9c9e8f055f3663213f71c1c3f99c6b363b35f50e0fe2e8405d029deb1e295 */\n      0x2cd9c9e8f055f3663213f71c1c3f99c6b363b35f50e0fe2e8405d029deb1e295\n        /* \"verifier/src/Verifier.sol\":7582:8035  Pairing.G2Point(... */\n      dup2\n      mstore\n      0x20\n      add\n        /* \"verifier/src/Verifier.sol\":7730:7796  0x0fdcd887987c8e156d574ee4e97cf66bf36e7a8539b8c4bd578ff7bced1a601c */\n      0x0fdcd887987c8e156d574ee4e97cf66bf36e7a8539b8c4bd578ff7bced1a601c\n        /* \"verifier/src/Verifier.sol\":7582:8035  Pairing.G2Point(... */\n      dup2\n      mstore\n      pop\n      dup2\n      mstore\n      0x20\n      add\n      mload(0x40)\n      dup1\n      0x40\n      add\n      0x40\n      mstore\n      dup1\n        /* \"verifier/src/Verifier.sol\":7851:7917  0x2d96d4c9dcf6ff4da92c433beb2749c86fff05bfd2d83c3da9a7d531903ec942 */\n      0x2d96d4c9dcf6ff4da92c433beb2749c86fff05bfd2d83c3da9a7d531903ec942\n        /* \"verifier/src/Verifier.sol\":7582:8035  Pairing.G2Point(... */\n      dup2\n      mstore\n      0x20\n      add\n        /* \"verifier/src/Verifier.sol\":7944:8010  0x13fb1bdc1b558571d6ba4944428eeb52aa0d69378072aa64cf543d4189b8af78 */\n      0x13fb1bdc1b558571d6ba4944428eeb52aa0d69378072aa64cf543d4189b8af78\n        /* \"verifier/src/Verifier.sol\":7582:8035  Pairing.G2Point(... */\n      dup2\n      mstore\n      pop\n      dup2\n      mstore\n      pop\n        /* \"verifier/src/Verifier.sol\":7571:7573  vk */\n      dup2\n        /* \"verifier/src/Verifier.sol\":7571:7579  vk.gamma */\n      0x40\n      add\n        /* \"verifier/src/Verifier.sol\":7571:8035  vk.gamma = Pairing.G2Point(... */\n      dup2\n      swap1\n      mstore\n      pop\n        /* \"verifier/src/Verifier.sol\":8056:8509  Pairing.G2Point(... */\n      mload(0x40)\n      dup1\n      0x40\n      add\n      0x40\n      mstore\n      dup1\n      mload(0x40)\n      dup1\n      0x40\n      add\n      0x40\n      mstore\n      dup1\n        /* \"verifier/src/Verifier.sol\":8111:8177  0x122757890c3f43309334e26258842bb8e8ab0450d387ddf7bc20fc5e01619d92 */\n      0x122757890c3f43309334e26258842bb8e8ab0450d387ddf7bc20fc5e01619d92\n        /* \"verifier/src/Verifier.sol\":8056:8509  Pairing.G2Point(... */\n      dup2\n      mstore\n      0x20\n      add\n        /* \"verifier/src/Verifier.sol\":8204:8270  0x00593e12fef04367a7d771cc137c7a3f0f245584f4a40e44c6281ca51e610027 */\n      0x593e12fef04367a7d771cc137c7a3f0f245584f4a40e44c6281ca51e610027\n        /* \"verifier/src/Verifier.sol\":8056:8509  Pairing.G2Point(... */\n      dup2\n      mstore\n      pop\n      dup2\n      mstore\n      0x20\n      add\n      mload(0x40)\n      dup1\n      0x40\n      add\n      0x40\n      mstore\n      dup1\n        /* \"verifier/src/Verifier.sol\":8325:8391  0x11b21f2409f28092f35b9cd195ee93ee5d0e11aca3e1a432c007243e186dec7c */\n      0x11b21f2409f28092f35b9cd195ee93ee5d0e11aca3e1a432c007243e186dec7c\n        /* \"verifier/src/Verifier.sol\":8056:8509  Pairing.G2Point(... */\n      dup2\n      mstore\n      0x20\n      add\n        /* \"verifier/src/Verifier.sol\":8418:8484  0x1bcf98b5bbd114064cf46447c90092bbf9384056f13c9487d8021f73d92ac452 */\n      0x1bcf98b5bbd114064cf46447c90092bbf9384056f13c9487d8021f73d92ac452\n        /* \"verifier/src/Verifier.sol\":8056:8509  Pairing.G2Point(... */\n      dup2\n      mstore\n      pop\n      dup2\n      mstore\n      pop\n        /* \"verifier/src/Verifier.sol\":8045:8047  vk */\n      dup2\n        /* \"verifier/src/Verifier.sol\":8045:8053  vk.delta */\n      0x60\n      add\n        /* \"verifier/src/Verifier.sol\":8045:8509  vk.delta = Pairing.G2Point(... */\n      dup2\n      swap1\n      mstore\n      pop\n        /* \"verifier/src/Verifier.sol\":8556:8557  5 */\n      0x05\n        /* \"verifier/src/Verifier.sol\":8534:8558  new Pairing.G1Point[](5) */\n      0xffffffffffffffff\n      dup2\n      gt\n      iszero\n      tag_74\n      jumpi\n      tag_75\n      tag_76\n      jump\t// in\n    tag_75:\n    tag_74:\n      mload(0x40)\n      swap1\n      dup1\n      dup3\n      mstore\n      dup1\n      0x20\n      mul\n      0x20\n      add\n      dup3\n      add\n      0x40\n      mstore\n      dup1\n      iszero\n      tag_77\n      jumpi\n      dup2\n      0x20\n      add\n    tag_78:\n      tag_79\n      tag_80\n      jump\t// in\n    tag_79:\n      dup2\n      mstore\n      0x20\n      add\n      swap1\n      0x01\n      swap1\n      sub\n      swap1\n      dup2\n      tag_78\n      jumpi\n      swap1\n      pop\n    tag_77:\n      pop\n        /* \"verifier/src/Verifier.sol\":8519:8521  vk */\n      dup2\n        /* \"verifier/src/Verifier.sol\":8519:8531  vk.gamma_abc */\n      0x80\n      add\n        /* \"verifier/src/Verifier.sol\":8519:8558  vk.gamma_abc = new Pairing.G1Point[](5) */\n      dup2\n      swap1\n      mstore\n      pop\n        /* \"verifier/src/Verifier.sol\":8586:8789  Pairing.G1Point(... */\n      mload(0x40)\n      dup1\n      0x40\n      add\n      0x40\n      mstore\n      dup1\n        /* \"verifier/src/Verifier.sol\":8623:8689  0x2fc73b5bbb85acbd703828a3df8ee04ef648832b3bbf2c9fd5bb51d4ab0ef984 */\n      0x2fc73b5bbb85acbd703828a3df8ee04ef648832b3bbf2c9fd5bb51d4ab0ef984\n        /* \"verifier/src/Verifier.sol\":8586:8789  Pairing.G1Point(... */\n      dup2\n      mstore\n      0x20\n      add\n        /* \"verifier/src/Verifier.sol\":8712:8778  0x197f3e6cf0bde2d74a7c29bbabe7ea80928b45b23478309ea671a2b973a7edf2 */\n      0x197f3e6cf0bde2d74a7c29bbabe7ea80928b45b23478309ea671a2b973a7edf2\n        /* \"verifier/src/Verifier.sol\":8586:8789  Pairing.G1Point(... */\n      dup2\n      mstore\n      pop\n        /* \"verifier/src/Verifier.sol\":8568:8570  vk */\n      dup2\n        /* \"verifier/src/Verifier.sol\":8568:8580  vk.gamma_abc */\n      0x80\n      add\n      mload\n        /* \"verifier/src/Verifier.sol\":8581:8582  0 */\n      0x00\n        /* \"verifier/src/Verifier.sol\":8568:8583  vk.gamma_abc[0] */\n      dup2\n      mload\n      dup2\n      lt\n      tag_81\n      jumpi\n      tag_82\n      tag_48\n      jump\t// in\n    tag_82:\n    tag_81:\n      0x20\n      mul\n      0x20\n      add\n      add\n        /* \"verifier/src/Verifier.sol\":8568:8789  vk.gamma_abc[0] = Pairing.G1Point(... */\n      dup2\n      swap1\n      mstore\n      pop\n        /* \"verifier/src/Verifier.sol\":8817:9020  Pairing.G1Point(... */\n      mload(0x40)\n      dup1\n      0x40\n      add\n      0x40\n      mstore\n      dup1\n        /* \"verifier/src/Verifier.sol\":8854:8920  0x1b723ed82a7478e39551e2ab9346eda38a1c000cdd5f8ade3ccf6685f9d37b1e */\n      0x1b723ed82a7478e39551e2ab9346eda38a1c000cdd5f8ade3ccf6685f9d37b1e\n        /* \"verifier/src/Verifier.sol\":8817:9020  Pairing.G1Point(... */\n      dup2\n      mstore\n      0x20\n      add\n        /* \"verifier/src/Verifier.sol\":8943:9009  0x26ad983f9927d8414cddfe79a4eda6717a8e82a0e85450e7ca745cd15af62c77 */\n      0x26ad983f9927d8414cddfe79a4eda6717a8e82a0e85450e7ca745cd15af62c77\n        /* \"verifier/src/Verifier.sol\":8817:9020  Pairing.G1Point(... */\n      dup2\n      mstore\n      pop\n        /* \"verifier/src/Verifier.sol\":8799:8801  vk */\n      dup2\n        /* \"verifier/src/Verifier.sol\":8799:8811  vk.gamma_abc */\n      0x80\n      add\n      mload\n        /* \"verifier/src/Verifier.sol\":8812:8813  1 */\n      0x01\n        /* \"verifier/src/Verifier.sol\":8799:8814  vk.gamma_abc[1] */\n      dup2\n      mload\n      dup2\n      lt\n      tag_83\n      jumpi\n      tag_84\n      tag_48\n      jump\t// in\n    tag_84:\n    tag_83:\n      0x20\n      mul\n      0x20\n      add\n      add\n        /* \"verifier/src/Verifier.sol\":8799:9020  vk.gamma_abc[1] = Pairing.G1Point(... */\n      dup2\n      swap1\n      mstore\n      pop\n        /* \"verifier/src/Verifier.sol\":9048:9251  Pairing.G1Point(... */\n      mload(0x40)\n      dup1\n      0x40\n      add\n      0x40\n      mstore\n      dup1\n        /* \"verifier/src/Verifier.sol\":9085:9151  0x262988545555095a281b0c6ac183626fd44094e1cc230aa38a705030d69124f3 */\n      0x262988545555095a281b0c6ac183626fd44094e1cc230aa38a705030d69124f3\n        /* \"verifier/src/Verifier.sol\":9048:9251  Pairing.G1Point(... */\n      dup2\n      mstore\n      0x20\n      add\n        /* \"verifier/src/Verifier.sol\":9174:9240  0x1f248dcfb5baf7962c1c481b9d52110825710ace9b94ef387f78651cb9d3335b */\n      0x1f248dcfb5baf7962c1c481b9d52110825710ace9b94ef387f78651cb9d3335b\n        /* \"verifier/src/Verifier.sol\":9048:9251  Pairing.G1Point(... */\n      dup2\n      mstore\n      pop\n        /* \"verifier/src/Verifier.sol\":9030:9032  vk */\n      dup2\n        /* \"verifier/src/Verifier.sol\":9030:9042  vk.gamma_abc */\n      0x80\n      add\n      mload\n        /* \"verifier/src/Verifier.sol\":9043:9044  2 */\n      0x02\n        /* \"verifier/src/Verifier.sol\":9030:9045  vk.gamma_abc[2] */\n      dup2\n      mload\n      dup2\n      lt\n      tag_85\n      jumpi\n      tag_86\n      tag_48\n      jump\t// in\n    tag_86:\n    tag_85:\n      0x20\n      mul\n      0x20\n      add\n      add\n        /* \"verifier/src/Verifier.sol\":9030:9251  vk.gamma_abc[2] = Pairing.G1Point(... */\n      dup2\n      swap1\n      mstore\n      pop\n        /* \"verifier/src/Verifier.sol\":9279:9482  Pairing.G1Point(... */\n      mload(0x40)\n      dup1\n      0x40\n      add\n      0x40\n      mstore\n      dup1\n        /* \"verifier/src/Verifier.sol\":9316:9382  0x2b17ccfb2bf38f9ed35f4cb962b705028429e1e66679bff2d13a0f31049a2b3a */\n      0x2b17ccfb2bf38f9ed35f4cb962b705028429e1e66679bff2d13a0f31049a2b3a\n        /* \"verifier/src/Verifier.sol\":9279:9482  Pairing.G1Point(... */\n      dup2\n      mstore\n      0x20\n      add\n        /* \"verifier/src/Verifier.sol\":9405:9471  0x1abe95f952ab1cd0a71f61d4304c8e85a777cf5afcb1936b9113a6c8acf22c68 */\n      0x1abe95f952ab1cd0a71f61d4304c8e85a777cf5afcb1936b9113a6c8acf22c68\n        /* \"verifier/src/Verifier.sol\":9279:9482  Pairing.G1Point(... */\n      dup2\n      mstore\n      pop\n        /* \"verifier/src/Verifier.sol\":9261:9263  vk */\n      dup2\n        /* \"verifier/src/Verifier.sol\":9261:9273  vk.gamma_abc */\n      0x80\n      add\n      mload\n        /* \"verifier/src/Verifier.sol\":9274:9275  3 */\n      0x03\n        /* \"verifier/src/Verifier.sol\":9261:9276  vk.gamma_abc[3] */\n      dup2\n      mload\n      dup2\n      lt\n      tag_87\n      jumpi\n      tag_88\n      tag_48\n      jump\t// in\n    tag_88:\n    tag_87:\n      0x20\n      mul\n      0x20\n      add\n      add\n        /* \"verifier/src/Verifier.sol\":9261:9482  vk.gamma_abc[3] = Pairing.G1Point(... */\n      dup2\n      swap1\n      mstore\n      pop\n        /* \"verifier/src/Verifier.sol\":9510:9713  Pairing.G1Point(... */\n      mload(0x40)\n      dup1\n      0x40\n      add\n      0x40\n      mstore\n      dup1\n        /* \"verifier/src/Verifier.sol\":9547:9613  0x2d476a4fc5d6e7900b821ac91bc179164787f4c1532bd3b91facf951788f40af */\n      0x2d476a4fc5d6e7900b821ac91bc179164787f4c1532bd3b91facf951788f40af\n        /* \"verifier/src/Verifier.sol\":9510:9713  Pairing.G1Point(... */\n      dup2\n      mstore\n      0x20\n      add\n        /* \"verifier/src/Verifier.sol\":9636:9702  0x2a45d903c16fe8f0d0a14b36ae3ff7252075a266a0c749d3215352f175c1c8f1 */\n      0x2a45d903c16fe8f0d0a14b36ae3ff7252075a266a0c749d3215352f175c1c8f1\n        /* \"verifier/src/Verifier.sol\":9510:9713  Pairing.G1Point(... */\n      dup2\n      mstore\n      pop\n        /* \"verifier/src/Verifier.sol\":9492:9494  vk */\n      dup2\n        /* \"verifier/src/Verifier.sol\":9492:9504  vk.gamma_abc */\n      0x80\n      add\n      mload\n        /* \"verifier/src/Verifier.sol\":9505:9506  4 */\n      0x04\n        /* \"verifier/src/Verifier.sol\":9492:9507  vk.gamma_abc[4] */\n      dup2\n      mload\n      dup2\n      lt\n      tag_89\n      jumpi\n      tag_90\n      tag_48\n      jump\t// in\n    tag_90:\n    tag_89:\n      0x20\n      mul\n      0x20\n      add\n      add\n        /* \"verifier/src/Verifier.sol\":9492:9713  vk.gamma_abc[4] = Pairing.G1Point(... */\n      dup2\n      swap1\n      mstore\n      pop\n        /* \"verifier/src/Verifier.sol\":6793:9720  function verifyingKey() internal pure returns (VerifyingKey memory vk) {... */\n      swap1\n      jump\t// out\n        /* \"verifier/src/Verifier.sol\":3195:3666  function scalar_mul(G1Point memory p, uint256 s) internal view returns (G1Point memory r) {... */\n    tag_57:\n        /* \"verifier/src/Verifier.sol\":3267:3283  G1Point memory r */\n      tag_91\n      tag_80\n      jump\t// in\n    tag_91:\n        /* \"verifier/src/Verifier.sol\":3295:3318  uint256[3] memory input */\n      tag_93\n      tag_94\n      jump\t// in\n    tag_93:\n        /* \"verifier/src/Verifier.sol\":3339:3340  p */\n      dup4\n        /* \"verifier/src/Verifier.sol\":3339:3342  p.X */\n      0x00\n      add\n      mload\n        /* \"verifier/src/Verifier.sol\":3328:3333  input */\n      dup2\n        /* \"verifier/src/Verifier.sol\":3334:3335  0 */\n      0x00\n        /* \"verifier/src/Verifier.sol\":3328:3336  input[0] */\n      0x03\n      dup2\n      lt\n      tag_95\n      jumpi\n      tag_96\n      tag_48\n      jump\t// in\n    tag_96:\n    tag_95:\n      0x20\n      mul\n      add\n        /* \"verifier/src/Verifier.sol\":3328:3342  input[0] = p.X */\n      dup2\n      dup2\n      mstore\n      pop\n      pop\n        /* \"verifier/src/Verifier.sol\":3363:3364  p */\n      dup4\n        /* \"verifier/src/Verifier.sol\":3363:3366  p.Y */\n      0x20\n      add\n      mload\n        /* \"verifier/src/Verifier.sol\":3352:3357  input */\n      dup2\n        /* \"verifier/src/Verifier.sol\":3358:3359  1 */\n      0x01\n        /* \"verifier/src/Verifier.sol\":3352:3360  input[1] */\n      0x03\n      dup2\n      lt\n      tag_97\n      jumpi\n      tag_98\n      tag_48\n      jump\t// in\n    tag_98:\n    tag_97:\n      0x20\n      mul\n      add\n        /* \"verifier/src/Verifier.sol\":3352:3366  input[1] = p.Y */\n      dup2\n      dup2\n      mstore\n      pop\n      pop\n        /* \"verifier/src/Verifier.sol\":3387:3388  s */\n      dup3\n        /* \"verifier/src/Verifier.sol\":3376:3381  input */\n      dup2\n        /* \"verifier/src/Verifier.sol\":3382:3383  2 */\n      0x02\n        /* \"verifier/src/Verifier.sol\":3376:3384  input[2] */\n      0x03\n      dup2\n      lt\n      tag_99\n      jumpi\n      tag_100\n      tag_48\n      jump\t// in\n    tag_100:\n    tag_99:\n      0x20\n      mul\n      add\n        /* \"verifier/src/Verifier.sol\":3376:3388  input[2] = s */\n      dup2\n      dup2\n      mstore\n      pop\n      pop\n        /* \"verifier/src/Verifier.sol\":3398:3410  bool success */\n      0x00\n        /* \"verifier/src/Verifier.sol\":3502:3506  0x60 */\n      0x60\n        /* \"verifier/src/Verifier.sol\":3499:3500  r */\n      dup4\n        /* \"verifier/src/Verifier.sol\":3493:3497  0x80 */\n      0x80\n        /* \"verifier/src/Verifier.sol\":3486:3491  input */\n      dup5\n        /* \"verifier/src/Verifier.sol\":3483:3484  7 */\n      0x07\n        /* \"verifier/src/Verifier.sol\":3476:3480  2000 */\n      0x07d0\n        /* \"verifier/src/Verifier.sol\":3469:3474  gas() */\n      gas\n        /* \"verifier/src/Verifier.sol\":3465:3481  sub(gas(), 2000) */\n      sub\n        /* \"verifier/src/Verifier.sol\":3454:3507  staticcall(sub(gas(), 2000), 7, input, 0x80, r, 0x60) */\n      staticcall\n        /* \"verifier/src/Verifier.sol\":3443:3507  success := staticcall(sub(gas(), 2000), 7, input, 0x80, r, 0x60) */\n      swap1\n      pop\n        /* \"verifier/src/Verifier.sol\":3584:3591  success */\n      dup1\n        /* \"verifier/src/Verifier.sol\":3609:3610  0 */\n      0x00\n        /* \"verifier/src/Verifier.sol\":3604:3624  case 0 { invalid() } */\n      dup2\n      sub\n        /* \"verifier/src/Verifier.sol\":3577:3624  switch success... */\n      tag_101\n        /* \"verifier/src/Verifier.sol\":3604:3624  case 0 { invalid() } */\n      jumpi\n        /* \"verifier/src/Verifier.sol\":3613:3622  invalid() */\n      invalid\n        /* \"verifier/src/Verifier.sol\":3577:3624  switch success... */\n    tag_101:\n      pop\n        /* \"verifier/src/Verifier.sol\":3651:3658  success */\n      dup1\n        /* \"verifier/src/Verifier.sol\":3643:3659  require(success) */\n      tag_103\n      jumpi\n      0x00\n      dup1\n      revert\n    tag_103:\n        /* \"verifier/src/Verifier.sol\":3285:3666  {... */\n      pop\n      pop\n        /* \"verifier/src/Verifier.sol\":3195:3666  function scalar_mul(G1Point memory p, uint256 s) internal view returns (G1Point memory r) {... */\n      swap3\n      swap2\n      pop\n      pop\n      jump\t// out\n        /* \"verifier/src/Verifier.sol\":2531:3039  function addition(G1Point memory p1, G1Point memory p2) internal view returns (G1Point memory r) {... */\n    tag_58:\n        /* \"verifier/src/Verifier.sol\":2610:2626  G1Point memory r */\n      tag_104\n      tag_80\n      jump\t// in\n    tag_104:\n        /* \"verifier/src/Verifier.sol\":2638:2661  uint256[4] memory input */\n      tag_106\n      tag_107\n      jump\t// in\n    tag_106:\n        /* \"verifier/src/Verifier.sol\":2682:2684  p1 */\n      dup4\n        /* \"verifier/src/Verifier.sol\":2682:2686  p1.X */\n      0x00\n      add\n      mload\n        /* \"verifier/src/Verifier.sol\":2671:2676  input */\n      dup2\n        /* \"verifier/src/Verifier.sol\":2677:2678  0 */\n      0x00\n        /* \"verifier/src/Verifier.sol\":2671:2679  input[0] */\n      0x04\n      dup2\n      lt\n      tag_108\n      jumpi\n      tag_109\n      tag_48\n      jump\t// in\n    tag_109:\n    tag_108:\n      0x20\n      mul\n      add\n        /* \"verifier/src/Verifier.sol\":2671:2686  input[0] = p1.X */\n      dup2\n      dup2\n      mstore\n      pop\n      pop\n        /* \"verifier/src/Verifier.sol\":2707:2709  p1 */\n      dup4\n        /* \"verifier/src/Verifier.sol\":2707:2711  p1.Y */\n      0x20\n      add\n      mload\n        /* \"verifier/src/Verifier.sol\":2696:2701  input */\n      dup2\n        /* \"verifier/src/Verifier.sol\":2702:2703  1 */\n      0x01\n        /* \"verifier/src/Verifier.sol\":2696:2704  input[1] */\n      0x04\n      dup2\n      lt\n      tag_110\n      jumpi\n      tag_111\n      tag_48\n      jump\t// in\n    tag_111:\n    tag_110:\n      0x20\n      mul\n      add\n        /* \"verifier/src/Verifier.sol\":2696:2711  input[1] = p1.Y */\n      dup2\n      dup2\n      mstore\n      pop\n      pop\n        /* \"verifier/src/Verifier.sol\":2732:2734  p2 */\n      dup3\n        /* \"verifier/src/Verifier.sol\":2732:2736  p2.X */\n      0x00\n      add\n      mload\n        /* \"verifier/src/Verifier.sol\":2721:2726  input */\n      dup2\n        /* \"verifier/src/Verifier.sol\":2727:2728  2 */\n      0x02\n        /* \"verifier/src/Verifier.sol\":2721:2729  input[2] */\n      0x04\n      dup2\n      lt\n      tag_112\n      jumpi\n      tag_113\n      tag_48\n      jump\t// in\n    tag_113:\n    tag_112:\n      0x20\n      mul\n      add\n        /* \"verifier/src/Verifier.sol\":2721:2736  input[2] = p2.X */\n      dup2\n      dup2\n      mstore\n      pop\n      pop\n        /* \"verifier/src/Verifier.sol\":2757:2759  p2 */\n      dup3\n        /* \"verifier/src/Verifier.sol\":2757:2761  p2.Y */\n      0x20\n      add\n      mload\n        /* \"verifier/src/Verifier.sol\":2746:2751  input */\n      dup2\n        /* \"verifier/src/Verifier.sol\":2752:2753  3 */\n      0x03\n        /* \"verifier/src/Verifier.sol\":2746:2754  input[3] */\n      0x04\n      dup2\n      lt\n      tag_114\n      jumpi\n      tag_115\n      tag_48\n      jump\t// in\n    tag_115:\n    tag_114:\n      0x20\n      mul\n      add\n        /* \"verifier/src/Verifier.sol\":2746:2761  input[3] = p2.Y */\n      dup2\n      dup2\n      mstore\n      pop\n      pop\n        /* \"verifier/src/Verifier.sol\":2771:2783  bool success */\n      0x00\n        /* \"verifier/src/Verifier.sol\":2875:2879  0x60 */\n      0x60\n        /* \"verifier/src/Verifier.sol\":2872:2873  r */\n      dup4\n        /* \"verifier/src/Verifier.sol\":2866:2870  0xc0 */\n      0xc0\n        /* \"verifier/src/Verifier.sol\":2859:2864  input */\n      dup5\n        /* \"verifier/src/Verifier.sol\":2856:2857  6 */\n      0x06\n        /* \"verifier/src/Verifier.sol\":2849:2853  2000 */\n      0x07d0\n        /* \"verifier/src/Verifier.sol\":2842:2847  gas() */\n      gas\n        /* \"verifier/src/Verifier.sol\":2838:2854  sub(gas(), 2000) */\n      sub\n        /* \"verifier/src/Verifier.sol\":2827:2880  staticcall(sub(gas(), 2000), 6, input, 0xc0, r, 0x60) */\n      staticcall\n        /* \"verifier/src/Verifier.sol\":2816:2880  success := staticcall(sub(gas(), 2000), 6, input, 0xc0, r, 0x60) */\n      swap1\n      pop\n        /* \"verifier/src/Verifier.sol\":2957:2964  success */\n      dup1\n        /* \"verifier/src/Verifier.sol\":2982:2983  0 */\n      0x00\n        /* \"verifier/src/Verifier.sol\":2977:2997  case 0 { invalid() } */\n      dup2\n      sub\n        /* \"verifier/src/Verifier.sol\":2950:2997  switch success... */\n      tag_116\n        /* \"verifier/src/Verifier.sol\":2977:2997  case 0 { invalid() } */\n      jumpi\n        /* \"verifier/src/Verifier.sol\":2986:2995  invalid() */\n      invalid\n        /* \"verifier/src/Verifier.sol\":2950:2997  switch success... */\n    tag_116:\n      pop\n        /* \"verifier/src/Verifier.sol\":3024:3031  success */\n      dup1\n        /* \"verifier/src/Verifier.sol\":3016:3032  require(success) */\n      tag_118\n      jumpi\n      0x00\n      dup1\n      revert\n    tag_118:\n        /* \"verifier/src/Verifier.sol\":2628:3039  {... */\n      pop\n      pop\n        /* \"verifier/src/Verifier.sol\":2531:3039  function addition(G1Point memory p1, G1Point memory p2) internal view returns (G1Point memory r) {... */\n      swap3\n      swap2\n      pop\n      pop\n      jump\t// out\n        /* \"verifier/src/Verifier.sol\":2124:2479  function negate(G1Point memory p) internal pure returns (G1Point memory) {... */\n    tag_66:\n        /* \"verifier/src/Verifier.sol\":2181:2195  G1Point memory */\n      tag_119\n      tag_80\n      jump\t// in\n    tag_119:\n        /* \"verifier/src/Verifier.sol\":2259:2268  uint256 q */\n      0x00\n        /* \"verifier/src/Verifier.sol\":2271:2348  21888242871839275222246405745257275088696311157297823662689037894645226208583 */\n      0x30644e72e131a029b85045b68181585d97816a916871ca8d3c208c16d87cfd47\n        /* \"verifier/src/Verifier.sol\":2259:2348  uint256 q = 21888242871839275222246405745257275088696311157297823662689037894645226208583 */\n      swap1\n      pop\n        /* \"verifier/src/Verifier.sol\":2369:2370  0 */\n      0x00\n        /* \"verifier/src/Verifier.sol\":2362:2363  p */\n      dup4\n        /* \"verifier/src/Verifier.sol\":2362:2365  p.X */\n      0x00\n      add\n      mload\n        /* \"verifier/src/Verifier.sol\":2362:2370  p.X == 0 */\n      eq\n        /* \"verifier/src/Verifier.sol\":2362:2382  p.X == 0 && p.Y == 0 */\n      dup1\n      iszero\n      tag_121\n      jumpi\n      pop\n        /* \"verifier/src/Verifier.sol\":2381:2382  0 */\n      0x00\n        /* \"verifier/src/Verifier.sol\":2374:2375  p */\n      dup4\n        /* \"verifier/src/Verifier.sol\":2374:2377  p.Y */\n      0x20\n      add\n      mload\n        /* \"verifier/src/Verifier.sol\":2374:2382  p.Y == 0 */\n      eq\n        /* \"verifier/src/Verifier.sol\":2362:2382  p.X == 0 && p.Y == 0 */\n    tag_121:\n        /* \"verifier/src/Verifier.sol\":2358:2429  if (p.X == 0 && p.Y == 0) {... */\n      iszero\n      tag_122\n      jumpi\n        /* \"verifier/src/Verifier.sol\":2405:2418  G1Point(0, 0) */\n      mload(0x40)\n      dup1\n      0x40\n      add\n      0x40\n      mstore\n      dup1\n        /* \"verifier/src/Verifier.sol\":2413:2414  0 */\n      0x00\n        /* \"verifier/src/Verifier.sol\":2405:2418  G1Point(0, 0) */\n      dup2\n      mstore\n      0x20\n      add\n        /* \"verifier/src/Verifier.sol\":2416:2417  0 */\n      0x00\n        /* \"verifier/src/Verifier.sol\":2405:2418  G1Point(0, 0) */\n      dup2\n      mstore\n      pop\n        /* \"verifier/src/Verifier.sol\":2398:2418  return G1Point(0, 0) */\n      swap2\n      pop\n      pop\n      jump(tag_120)\n        /* \"verifier/src/Verifier.sol\":2358:2429  if (p.X == 0 && p.Y == 0) {... */\n    tag_122:\n        /* \"verifier/src/Verifier.sol\":2445:2472  G1Point(p.X, q - (p.Y % q)) */\n      mload(0x40)\n      dup1\n      0x40\n      add\n      0x40\n      mstore\n      dup1\n        /* \"verifier/src/Verifier.sol\":2453:2454  p */\n      dup5\n        /* \"verifier/src/Verifier.sol\":2453:2456  p.X */\n      0x00\n      add\n      mload\n        /* \"verifier/src/Verifier.sol\":2445:2472  G1Point(p.X, q - (p.Y % q)) */\n      dup2\n      mstore\n      0x20\n      add\n        /* \"verifier/src/Verifier.sol\":2469:2470  q */\n      dup3\n        /* \"verifier/src/Verifier.sol\":2463:2464  p */\n      dup6\n        /* \"verifier/src/Verifier.sol\":2463:2466  p.Y */\n      0x20\n      add\n      mload\n        /* \"verifier/src/Verifier.sol\":2463:2470  p.Y % q */\n      tag_123\n      swap2\n      swap1\n      tag_124\n      jump\t// in\n    tag_123:\n        /* \"verifier/src/Verifier.sol\":2458:2459  q */\n      dup4\n        /* \"verifier/src/Verifier.sol\":2458:2471  q - (p.Y % q) */\n      tag_125\n      swap2\n      swap1\n      tag_126\n      jump\t// in\n    tag_125:\n        /* \"verifier/src/Verifier.sol\":2445:2472  G1Point(p.X, q - (p.Y % q)) */\n      dup2\n      mstore\n      pop\n        /* \"verifier/src/Verifier.sol\":2438:2472  return G1Point(p.X, q - (p.Y % q)) */\n      swap2\n      pop\n      pop\n        /* \"verifier/src/Verifier.sol\":2124:2479  function negate(G1Point memory p) internal pure returns (G1Point memory) {... */\n    tag_120:\n      swap2\n      swap1\n      pop\n      jump\t// out\n        /* \"verifier/src/Verifier.sol\":5871:6439  function pairingProd4(... */\n    tag_69:\n        /* \"verifier/src/Verifier.sol\":6138:6142  bool */\n      0x00\n        /* \"verifier/src/Verifier.sol\":6154:6173  G1Point[] memory p1 */\n      dup1\n        /* \"verifier/src/Verifier.sol\":6190:6191  4 */\n      0x04\n        /* \"verifier/src/Verifier.sol\":6176:6192  new G1Point[](4) */\n      0xffffffffffffffff\n      dup2\n      gt\n      iszero\n      tag_128\n      jumpi\n      tag_129\n      tag_76\n      jump\t// in\n    tag_129:\n    tag_128:\n      mload(0x40)\n      swap1\n      dup1\n      dup3\n      mstore\n      dup1\n      0x20\n      mul\n      0x20\n      add\n      dup3\n      add\n      0x40\n      mstore\n      dup1\n      iszero\n      tag_130\n      jumpi\n      dup2\n      0x20\n      add\n    tag_131:\n      tag_132\n      tag_80\n      jump\t// in\n    tag_132:\n      dup2\n      mstore\n      0x20\n      add\n      swap1\n      0x01\n      swap1\n      sub\n      swap1\n      dup2\n      tag_131\n      jumpi\n      swap1\n      pop\n    tag_130:\n      pop\n        /* \"verifier/src/Verifier.sol\":6154:6192  G1Point[] memory p1 = new G1Point[](4) */\n      swap1\n      pop\n        /* \"verifier/src/Verifier.sol\":6202:6221  G2Point[] memory p2 */\n      0x00\n        /* \"verifier/src/Verifier.sol\":6238:6239  4 */\n      0x04\n        /* \"verifier/src/Verifier.sol\":6224:6240  new G2Point[](4) */\n      0xffffffffffffffff\n      dup2\n      gt\n      iszero\n      tag_133\n      jumpi\n      tag_134\n      tag_76\n      jump\t// in\n    tag_134:\n    tag_133:\n      mload(0x40)\n      swap1\n      dup1\n      dup3\n      mstore\n      dup1\n      0x20\n      mul\n      0x20\n      add\n      dup3\n      add\n      0x40\n      mstore\n      dup1\n      iszero\n      tag_135\n      jumpi\n      dup2\n      0x20\n      add\n    tag_136:\n      tag_137\n      tag_138\n      jump\t// in\n    tag_137:\n      dup2\n      mstore\n      0x20\n      add\n      swap1\n      0x01\n      swap1\n      sub\n      swap1\n      dup2\n      tag_136\n      jumpi\n      swap1\n      pop\n    tag_135:\n      pop\n        /* \"verifier/src/Verifier.sol\":6202:6240  G2Point[] memory p2 = new G2Point[](4) */\n      swap1\n      pop\n        /* \"verifier/src/Verifier.sol\":6258:6260  a1 */\n      dup11\n        /* \"verifier/src/Verifier.sol\":6250:6252  p1 */\n      dup3\n        /* \"verifier/src/Verifier.sol\":6253:6254  0 */\n      0x00\n        /* \"verifier/src/Verifier.sol\":6250:6255  p1[0] */\n      dup2\n      mload\n      dup2\n      lt\n      tag_139\n      jumpi\n      tag_140\n      tag_48\n      jump\t// in\n    tag_140:\n    tag_139:\n      0x20\n      mul\n      0x20\n      add\n      add\n        /* \"verifier/src/Verifier.sol\":6250:6260  p1[0] = a1 */\n      dup2\n      swap1\n      mstore\n      pop\n        /* \"verifier/src/Verifier.sol\":6278:6280  b1 */\n      dup9\n        /* \"verifier/src/Verifier.sol\":6270:6272  p1 */\n      dup3\n        /* \"verifier/src/Verifier.sol\":6273:6274  1 */\n      0x01\n        /* \"verifier/src/Verifier.sol\":6270:6275  p1[1] */\n      dup2\n      mload\n      dup2\n      lt\n      tag_141\n      jumpi\n      tag_142\n      tag_48\n      jump\t// in\n    tag_142:\n    tag_141:\n      0x20\n      mul\n      0x20\n      add\n      add\n        /* \"verifier/src/Verifier.sol\":6270:6280  p1[1] = b1 */\n      dup2\n      swap1\n      mstore\n      pop\n        /* \"verifier/src/Verifier.sol\":6298:6300  c1 */\n      dup7\n        /* \"verifier/src/Verifier.sol\":6290:6292  p1 */\n      dup3\n        /* \"verifier/src/Verifier.sol\":6293:6294  2 */\n      0x02\n        /* \"verifier/src/Verifier.sol\":6290:6295  p1[2] */\n      dup2\n      mload\n      dup2\n      lt\n      tag_143\n      jumpi\n      tag_144\n      tag_48\n      jump\t// in\n    tag_144:\n    tag_143:\n      0x20\n      mul\n      0x20\n      add\n      add\n        /* \"verifier/src/Verifier.sol\":6290:6300  p1[2] = c1 */\n      dup2\n      swap1\n      mstore\n      pop\n        /* \"verifier/src/Verifier.sol\":6318:6320  d1 */\n      dup5\n        /* \"verifier/src/Verifier.sol\":6310:6312  p1 */\n      dup3\n        /* \"verifier/src/Verifier.sol\":6313:6314  3 */\n      0x03\n        /* \"verifier/src/Verifier.sol\":6310:6315  p1[3] */\n      dup2\n      mload\n      dup2\n      lt\n      tag_145\n      jumpi\n      tag_146\n      tag_48\n      jump\t// in\n    tag_146:\n    tag_145:\n      0x20\n      mul\n      0x20\n      add\n      add\n        /* \"verifier/src/Verifier.sol\":6310:6320  p1[3] = d1 */\n      dup2\n      swap1\n      mstore\n      pop\n        /* \"verifier/src/Verifier.sol\":6338:6340  a2 */\n      dup10\n        /* \"verifier/src/Verifier.sol\":6330:6332  p2 */\n      dup2\n        /* \"verifier/src/Verifier.sol\":6333:6334  0 */\n      0x00\n        /* \"verifier/src/Verifier.sol\":6330:6335  p2[0] */\n      dup2\n      mload\n      dup2\n      lt\n      tag_147\n      jumpi\n      tag_148\n      tag_48\n      jump\t// in\n    tag_148:\n    tag_147:\n      0x20\n      mul\n      0x20\n      add\n      add\n        /* \"verifier/src/Verifier.sol\":6330:6340  p2[0] = a2 */\n      dup2\n      swap1\n      mstore\n      pop\n        /* \"verifier/src/Verifier.sol\":6358:6360  b2 */\n      dup8\n        /* \"verifier/src/Verifier.sol\":6350:6352  p2 */\n      dup2\n        /* \"verifier/src/Verifier.sol\":6353:6354  1 */\n      0x01\n        /* \"verifier/src/Verifier.sol\":6350:6355  p2[1] */\n      dup2\n      mload\n      dup2\n      lt\n      tag_149\n      jumpi\n      tag_150\n      tag_48\n      jump\t// in\n    tag_150:\n    tag_149:\n      0x20\n      mul\n      0x20\n      add\n      add\n        /* \"verifier/src/Verifier.sol\":6350:6360  p2[1] = b2 */\n      dup2\n      swap1\n      mstore\n      pop\n        /* \"verifier/src/Verifier.sol\":6378:6380  c2 */\n      dup6\n        /* \"verifier/src/Verifier.sol\":6370:6372  p2 */\n      dup2\n        /* \"verifier/src/Verifier.sol\":6373:6374  2 */\n      0x02\n        /* \"verifier/src/Verifier.sol\":6370:6375  p2[2] */\n      dup2\n      mload\n      dup2\n      lt\n      tag_151\n      jumpi\n      tag_152\n      tag_48\n      jump\t// in\n    tag_152:\n    tag_151:\n      0x20\n      mul\n      0x20\n      add\n      add\n        /* \"verifier/src/Verifier.sol\":6370:6380  p2[2] = c2 */\n      dup2\n      swap1\n      mstore\n      pop\n        /* \"verifier/src/Verifier.sol\":6398:6400  d2 */\n      dup4\n        /* \"verifier/src/Verifier.sol\":6390:6392  p2 */\n      dup2\n        /* \"verifier/src/Verifier.sol\":6393:6394  3 */\n      0x03\n        /* \"verifier/src/Verifier.sol\":6390:6395  p2[3] */\n      dup2\n      mload\n      dup2\n      lt\n      tag_153\n      jumpi\n      tag_154\n      tag_48\n      jump\t// in\n    tag_154:\n    tag_153:\n      0x20\n      mul\n      0x20\n      add\n      add\n        /* \"verifier/src/Verifier.sol\":6390:6400  p2[3] = d2 */\n      dup2\n      swap1\n      mstore\n      pop\n        /* \"verifier/src/Verifier.sol\":6417:6432  pairing(p1, p2) */\n      tag_155\n        /* \"verifier/src/Verifier.sol\":6425:6427  p1 */\n      dup3\n        /* \"verifier/src/Verifier.sol\":6429:6431  p2 */\n      dup3\n        /* \"verifier/src/Verifier.sol\":6417:6424  pairing */\n      tag_156\n        /* \"verifier/src/Verifier.sol\":6417:6432  pairing(p1, p2) */\n      jump\t// in\n    tag_155:\n        /* \"verifier/src/Verifier.sol\":6410:6432  return pairing(p1, p2) */\n      swap3\n      pop\n      pop\n      pop\n        /* \"verifier/src/Verifier.sol\":5871:6439  function pairingProd4(... */\n      swap9\n      swap8\n      pop\n      pop\n      pop\n      pop\n      pop\n      pop\n      pop\n      pop\n      jump\t// out\n        /* \"verifier/src/Verifier.sol\":3878:4820  function pairing(G1Point[] memory p1, G2Point[] memory p2) internal view returns (bool) {... */\n    tag_156:\n        /* \"verifier/src/Verifier.sol\":3960:3964  bool */\n      0x00\n        /* \"verifier/src/Verifier.sol\":3997:3999  p2 */\n      dup2\n        /* \"verifier/src/Verifier.sol\":3997:4006  p2.length */\n      mload\n        /* \"verifier/src/Verifier.sol\":3984:3986  p1 */\n      dup4\n        /* \"verifier/src/Verifier.sol\":3984:3993  p1.length */\n      mload\n        /* \"verifier/src/Verifier.sol\":3984:4006  p1.length == p2.length */\n      eq\n        /* \"verifier/src/Verifier.sol\":3976:4007  require(p1.length == p2.length) */\n      tag_158\n      jumpi\n      0x00\n      dup1\n      revert\n    tag_158:\n        /* \"verifier/src/Verifier.sol\":4017:4033  uint256 elements */\n      0x00\n        /* \"verifier/src/Verifier.sol\":4036:4038  p1 */\n      dup4\n        /* \"verifier/src/Verifier.sol\":4036:4045  p1.length */\n      mload\n        /* \"verifier/src/Verifier.sol\":4017:4045  uint256 elements = p1.length */\n      swap1\n      pop\n        /* \"verifier/src/Verifier.sol\":4055:4072  uint256 inputSize */\n      0x00\n        /* \"verifier/src/Verifier.sol\":4086:4087  6 */\n      0x06\n        /* \"verifier/src/Verifier.sol\":4075:4083  elements */\n      dup3\n        /* \"verifier/src/Verifier.sol\":4075:4087  elements * 6 */\n      tag_159\n      swap2\n      swap1\n      tag_160\n      jump\t// in\n    tag_159:\n        /* \"verifier/src/Verifier.sol\":4055:4087  uint256 inputSize = elements * 6 */\n      swap1\n      pop\n        /* \"verifier/src/Verifier.sol\":4097:4119  uint256[] memory input */\n      0x00\n        /* \"verifier/src/Verifier.sol\":4133:4142  inputSize */\n      dup2\n        /* \"verifier/src/Verifier.sol\":4122:4143  new uint[](inputSize) */\n      0xffffffffffffffff\n      dup2\n      gt\n      iszero\n      tag_161\n      jumpi\n      tag_162\n      tag_76\n      jump\t// in\n    tag_162:\n    tag_161:\n      mload(0x40)\n      swap1\n      dup1\n      dup3\n      mstore\n      dup1\n      0x20\n      mul\n      0x20\n      add\n      dup3\n      add\n      0x40\n      mstore\n      dup1\n      iszero\n      tag_163\n      jumpi\n      dup2\n      0x20\n      add\n      0x20\n      dup3\n      mul\n      dup1\n      calldatasize\n      dup4\n      calldatacopy\n      dup1\n      dup3\n      add\n      swap2\n      pop\n      pop\n      swap1\n      pop\n    tag_163:\n      pop\n        /* \"verifier/src/Verifier.sol\":4097:4143  uint256[] memory input = new uint[](inputSize) */\n      swap1\n      pop\n        /* \"verifier/src/Verifier.sol\":4158:4167  uint256 i */\n      0x00\n        /* \"verifier/src/Verifier.sol\":4153:4455  for (uint256 i = 0; i < elements; i++) {... */\n    tag_164:\n        /* \"verifier/src/Verifier.sol\":4177:4185  elements */\n      dup4\n        /* \"verifier/src/Verifier.sol\":4173:4174  i */\n      dup2\n        /* \"verifier/src/Verifier.sol\":4173:4185  i < elements */\n      lt\n        /* \"verifier/src/Verifier.sol\":4153:4455  for (uint256 i = 0; i < elements; i++) {... */\n      iszero\n      tag_165\n      jumpi\n        /* \"verifier/src/Verifier.sol\":4225:4227  p1 */\n      dup7\n        /* \"verifier/src/Verifier.sol\":4228:4229  i */\n      dup2\n        /* \"verifier/src/Verifier.sol\":4225:4230  p1[i] */\n      dup2\n      mload\n      dup2\n      lt\n      tag_167\n      jumpi\n      tag_168\n      tag_48\n      jump\t// in\n    tag_168:\n    tag_167:\n      0x20\n      mul\n      0x20\n      add\n      add\n      mload\n        /* \"verifier/src/Verifier.sol\":4225:4232  p1[i].X */\n      0x00\n      add\n      mload\n        /* \"verifier/src/Verifier.sol\":4206:4211  input */\n      dup3\n        /* \"verifier/src/Verifier.sol\":4220:4221  0 */\n      0x00\n        /* \"verifier/src/Verifier.sol\":4216:4217  6 */\n      0x06\n        /* \"verifier/src/Verifier.sol\":4212:4213  i */\n      dup5\n        /* \"verifier/src/Verifier.sol\":4212:4217  i * 6 */\n      tag_169\n      swap2\n      swap1\n      tag_160\n      jump\t// in\n    tag_169:\n        /* \"verifier/src/Verifier.sol\":4212:4221  i * 6 + 0 */\n      tag_170\n      swap2\n      swap1\n      tag_41\n      jump\t// in\n    tag_170:\n        /* \"verifier/src/Verifier.sol\":4206:4222  input[i * 6 + 0] */\n      dup2\n      mload\n      dup2\n      lt\n      tag_171\n      jumpi\n      tag_172\n      tag_48\n      jump\t// in\n    tag_172:\n    tag_171:\n      0x20\n      mul\n      0x20\n      add\n      add\n        /* \"verifier/src/Verifier.sol\":4206:4232  input[i * 6 + 0] = p1[i].X */\n      dup2\n      dup2\n      mstore\n      pop\n      pop\n        /* \"verifier/src/Verifier.sol\":4265:4267  p1 */\n      dup7\n        /* \"verifier/src/Verifier.sol\":4268:4269  i */\n      dup2\n        /* \"verifier/src/Verifier.sol\":4265:4270  p1[i] */\n      dup2\n      mload\n      dup2\n      lt\n      tag_173\n      jumpi\n      tag_174\n      tag_48\n      jump\t// in\n    tag_174:\n    tag_173:\n      0x20\n      mul\n      0x20\n      add\n      add\n      mload\n        /* \"verifier/src/Verifier.sol\":4265:4272  p1[i].Y */\n      0x20\n      add\n      mload\n        /* \"verifier/src/Verifier.sol\":4246:4251  input */\n      dup3\n        /* \"verifier/src/Verifier.sol\":4260:4261  1 */\n      0x01\n        /* \"verifier/src/Verifier.sol\":4256:4257  6 */\n      0x06\n        /* \"verifier/src/Verifier.sol\":4252:4253  i */\n      dup5\n        /* \"verifier/src/Verifier.sol\":4252:4257  i * 6 */\n      tag_175\n      swap2\n      swap1\n      tag_160\n      jump\t// in\n    tag_175:\n        /* \"verifier/src/Verifier.sol\":4252:4261  i * 6 + 1 */\n      tag_176\n      swap2\n      swap1\n      tag_41\n      jump\t// in\n    tag_176:\n        /* \"verifier/src/Verifier.sol\":4246:4262  input[i * 6 + 1] */\n      dup2\n      mload\n      dup2\n      lt\n      tag_177\n      jumpi\n      tag_178\n      tag_48\n      jump\t// in\n    tag_178:\n    tag_177:\n      0x20\n      mul\n      0x20\n      add\n      add\n        /* \"verifier/src/Verifier.sol\":4246:4272  input[i * 6 + 1] = p1[i].Y */\n      dup2\n      dup2\n      mstore\n      pop\n      pop\n        /* \"verifier/src/Verifier.sol\":4305:4307  p2 */\n      dup6\n        /* \"verifier/src/Verifier.sol\":4308:4309  i */\n      dup2\n        /* \"verifier/src/Verifier.sol\":4305:4310  p2[i] */\n      dup2\n      mload\n      dup2\n      lt\n      tag_179\n      jumpi\n      tag_180\n      tag_48\n      jump\t// in\n    tag_180:\n    tag_179:\n      0x20\n      mul\n      0x20\n      add\n      add\n      mload\n        /* \"verifier/src/Verifier.sol\":4305:4312  p2[i].X */\n      0x00\n      add\n      mload\n        /* \"verifier/src/Verifier.sol\":4313:4314  1 */\n      0x01\n        /* \"verifier/src/Verifier.sol\":4305:4315  p2[i].X[1] */\n      0x02\n      dup2\n      lt\n      tag_181\n      jumpi\n      tag_182\n      tag_48\n      jump\t// in\n    tag_182:\n    tag_181:\n      0x20\n      mul\n      add\n      mload\n        /* \"verifier/src/Verifier.sol\":4286:4291  input */\n      dup3\n        /* \"verifier/src/Verifier.sol\":4300:4301  2 */\n      0x02\n        /* \"verifier/src/Verifier.sol\":4296:4297  6 */\n      0x06\n        /* \"verifier/src/Verifier.sol\":4292:4293  i */\n      dup5\n        /* \"verifier/src/Verifier.sol\":4292:4297  i * 6 */\n      tag_183\n      swap2\n      swap1\n      tag_160\n      jump\t// in\n    tag_183:\n        /* \"verifier/src/Verifier.sol\":4292:4301  i * 6 + 2 */\n      tag_184\n      swap2\n      swap1\n      tag_41\n      jump\t// in\n    tag_184:\n        /* \"verifier/src/Verifier.sol\":4286:4302  input[i * 6 + 2] */\n      dup2\n      mload\n      dup2\n      lt\n      tag_185\n      jumpi\n      tag_186\n      tag_48\n      jump\t// in\n    tag_186:\n    tag_185:\n      0x20\n      mul\n      0x20\n      add\n      add\n        /* \"verifier/src/Verifier.sol\":4286:4315  input[i * 6 + 2] = p2[i].X[1] */\n      dup2\n      dup2\n      mstore\n      pop\n      pop\n        /* \"verifier/src/Verifier.sol\":4348:4350  p2 */\n      dup6\n        /* \"verifier/src/Verifier.sol\":4351:4352  i */\n      dup2\n        /* \"verifier/src/Verifier.sol\":4348:4353  p2[i] */\n      dup2\n      mload\n      dup2\n      lt\n      tag_187\n      jumpi\n      tag_188\n      tag_48\n      jump\t// in\n    tag_188:\n    tag_187:\n      0x20\n      mul\n      0x20\n      add\n      add\n      mload\n        /* \"verifier/src/Verifier.sol\":4348:4355  p2[i].X */\n      0x00\n      add\n      mload\n        /* \"verifier/src/Verifier.sol\":4356:4357  0 */\n      0x00\n        /* \"verifier/src/Verifier.sol\":4348:4358  p2[i].X[0] */\n      0x02\n      dup2\n      lt\n      tag_189\n      jumpi\n      tag_190\n      tag_48\n      jump\t// in\n    tag_190:\n    tag_189:\n      0x20\n      mul\n      add\n      mload\n        /* \"verifier/src/Verifier.sol\":4329:4334  input */\n      dup3\n        /* \"verifier/src/Verifier.sol\":4343:4344  3 */\n      0x03\n        /* \"verifier/src/Verifier.sol\":4339:4340  6 */\n      0x06\n        /* \"verifier/src/Verifier.sol\":4335:4336  i */\n      dup5\n        /* \"verifier/src/Verifier.sol\":4335:4340  i * 6 */\n      tag_191\n      swap2\n      swap1\n      tag_160\n      jump\t// in\n    tag_191:\n        /* \"verifier/src/Verifier.sol\":4335:4344  i * 6 + 3 */\n      tag_192\n      swap2\n      swap1\n      tag_41\n      jump\t// in\n    tag_192:\n        /* \"verifier/src/Verifier.sol\":4329:4345  input[i * 6 + 3] */\n      dup2\n      mload\n      dup2\n      lt\n      tag_193\n      jumpi\n      tag_194\n      tag_48\n      jump\t// in\n    tag_194:\n    tag_193:\n      0x20\n      mul\n      0x20\n      add\n      add\n        /* \"verifier/src/Verifier.sol\":4329:4358  input[i * 6 + 3] = p2[i].X[0] */\n      dup2\n      dup2\n      mstore\n      pop\n      pop\n        /* \"verifier/src/Verifier.sol\":4391:4393  p2 */\n      dup6\n        /* \"verifier/src/Verifier.sol\":4394:4395  i */\n      dup2\n        /* \"verifier/src/Verifier.sol\":4391:4396  p2[i] */\n      dup2\n      mload\n      dup2\n      lt\n      tag_195\n      jumpi\n      tag_196\n      tag_48\n      jump\t// in\n    tag_196:\n    tag_195:\n      0x20\n      mul\n      0x20\n      add\n      add\n      mload\n        /* \"verifier/src/Verifier.sol\":4391:4398  p2[i].Y */\n      0x20\n      add\n      mload\n        /* \"verifier/src/Verifier.sol\":4399:4400  1 */\n      0x01\n        /* \"verifier/src/Verifier.sol\":4391:4401  p2[i].Y[1] */\n      0x02\n      dup2\n      lt\n      tag_197\n      jumpi\n      tag_198\n      tag_48\n      jump\t// in\n    tag_198:\n    tag_197:\n      0x20\n      mul\n      add\n      mload\n        /* \"verifier/src/Verifier.sol\":4372:4377  input */\n      dup3\n        /* \"verifier/src/Verifier.sol\":4386:4387  4 */\n      0x04\n        /* \"verifier/src/Verifier.sol\":4382:4383  6 */\n      0x06\n        /* \"verifier/src/Verifier.sol\":4378:4379  i */\n      dup5\n        /* \"verifier/src/Verifier.sol\":4378:4383  i * 6 */\n      tag_199\n      swap2\n      swap1\n      tag_160\n      jump\t// in\n    tag_199:\n        /* \"verifier/src/Verifier.sol\":4378:4387  i * 6 + 4 */\n      tag_200\n      swap2\n      swap1\n      tag_41\n      jump\t// in\n    tag_200:\n        /* \"verifier/src/Verifier.sol\":4372:4388  input[i * 6 + 4] */\n      dup2\n      mload\n      dup2\n      lt\n      tag_201\n      jumpi\n      tag_202\n      tag_48\n      jump\t// in\n    tag_202:\n    tag_201:\n      0x20\n      mul\n      0x20\n      add\n      add\n        /* \"verifier/src/Verifier.sol\":4372:4401  input[i * 6 + 4] = p2[i].Y[1] */\n      dup2\n      dup2\n      mstore\n      pop\n      pop\n        /* \"verifier/src/Verifier.sol\":4434:4436  p2 */\n      dup6\n        /* \"verifier/src/Verifier.sol\":4437:4438  i */\n      dup2\n        /* \"verifier/src/Verifier.sol\":4434:4439  p2[i] */\n      dup2\n      mload\n      dup2\n      lt\n      tag_203\n      jumpi\n      tag_204\n      tag_48\n      jump\t// in\n    tag_204:\n    tag_203:\n      0x20\n      mul\n      0x20\n      add\n      add\n      mload\n        /* \"verifier/src/Verifier.sol\":4434:4441  p2[i].Y */\n      0x20\n      add\n      mload\n        /* \"verifier/src/Verifier.sol\":4442:4443  0 */\n      0x00\n        /* \"verifier/src/Verifier.sol\":4434:4444  p2[i].Y[0] */\n      0x02\n      dup2\n      lt\n      tag_205\n      jumpi\n      tag_206\n      tag_48\n      jump\t// in\n    tag_206:\n    tag_205:\n      0x20\n      mul\n      add\n      mload\n        /* \"verifier/src/Verifier.sol\":4415:4420  input */\n      dup3\n        /* \"verifier/src/Verifier.sol\":4429:4430  5 */\n      0x05\n        /* \"verifier/src/Verifier.sol\":4425:4426  6 */\n      0x06\n        /* \"verifier/src/Verifier.sol\":4421:4422  i */\n      dup5\n        /* \"verifier/src/Verifier.sol\":4421:4426  i * 6 */\n      tag_207\n      swap2\n      swap1\n      tag_160\n      jump\t// in\n    tag_207:\n        /* \"verifier/src/Verifier.sol\":4421:4430  i * 6 + 5 */\n      tag_208\n      swap2\n      swap1\n      tag_41\n      jump\t// in\n    tag_208:\n        /* \"verifier/src/Verifier.sol\":4415:4431  input[i * 6 + 5] */\n      dup2\n      mload\n      dup2\n      lt\n      tag_209\n      jumpi\n      tag_210\n      tag_48\n      jump\t// in\n    tag_210:\n    tag_209:\n      0x20\n      mul\n      0x20\n      add\n      add\n        /* \"verifier/src/Verifier.sol\":4415:4444  input[i * 6 + 5] = p2[i].Y[0] */\n      dup2\n      dup2\n      mstore\n      pop\n      pop\n        /* \"verifier/src/Verifier.sol\":4187:4190  i++ */\n      dup1\n      dup1\n      tag_211\n      swap1\n      tag_60\n      jump\t// in\n    tag_211:\n      swap2\n      pop\n      pop\n        /* \"verifier/src/Verifier.sol\":4153:4455  for (uint256 i = 0; i < elements; i++) {... */\n      jump(tag_164)\n    tag_165:\n      pop\n        /* \"verifier/src/Verifier.sol\":4464:4485  uint256[1] memory out */\n      tag_212\n      tag_213\n      jump\t// in\n    tag_212:\n        /* \"verifier/src/Verifier.sol\":4495:4507  bool success */\n      0x00\n        /* \"verifier/src/Verifier.sol\":4628:4632  0x20 */\n      0x20\n        /* \"verifier/src/Verifier.sol\":4623:4626  out */\n      dup3\n        /* \"verifier/src/Verifier.sol\":4616:4620  0x20 */\n      0x20\n        /* \"verifier/src/Verifier.sol\":4605:4614  inputSize */\n      dup7\n        /* \"verifier/src/Verifier.sol\":4601:4621  mul(inputSize, 0x20) */\n      mul\n        /* \"verifier/src/Verifier.sol\":4594:4598  0x20 */\n      0x20\n        /* \"verifier/src/Verifier.sol\":4587:4592  input */\n      dup7\n        /* \"verifier/src/Verifier.sol\":4583:4599  add(input, 0x20) */\n      add\n        /* \"verifier/src/Verifier.sol\":4580:4581  8 */\n      0x08\n        /* \"verifier/src/Verifier.sol\":4573:4577  2000 */\n      0x07d0\n        /* \"verifier/src/Verifier.sol\":4566:4571  gas() */\n      gas\n        /* \"verifier/src/Verifier.sol\":4562:4578  sub(gas(), 2000) */\n      sub\n        /* \"verifier/src/Verifier.sol\":4551:4633  staticcall(sub(gas(), 2000), 8, add(input, 0x20), mul(inputSize, 0x20), out, 0x20) */\n      staticcall\n        /* \"verifier/src/Verifier.sol\":4540:4633  success := staticcall(sub(gas(), 2000), 8, add(input, 0x20), mul(inputSize, 0x20), out, 0x20) */\n      swap1\n      pop\n        /* \"verifier/src/Verifier.sol\":4710:4717  success */\n      dup1\n        /* \"verifier/src/Verifier.sol\":4735:4736  0 */\n      0x00\n        /* \"verifier/src/Verifier.sol\":4730:4750  case 0 { invalid() } */\n      dup2\n      sub\n        /* \"verifier/src/Verifier.sol\":4703:4750  switch success... */\n      tag_214\n        /* \"verifier/src/Verifier.sol\":4730:4750  case 0 { invalid() } */\n      jumpi\n        /* \"verifier/src/Verifier.sol\":4739:4748  invalid() */\n      invalid\n        /* \"verifier/src/Verifier.sol\":4703:4750  switch success... */\n    tag_214:\n      pop\n        /* \"verifier/src/Verifier.sol\":4777:4784  success */\n      dup1\n        /* \"verifier/src/Verifier.sol\":4769:4785  require(success) */\n      tag_216\n      jumpi\n      0x00\n      dup1\n      revert\n    tag_216:\n        /* \"verifier/src/Verifier.sol\":4812:4813  0 */\n      0x00\n        /* \"verifier/src/Verifier.sol\":4802:4805  out */\n      dup3\n        /* \"verifier/src/Verifier.sol\":4806:4807  0 */\n      0x00\n        /* \"verifier/src/Verifier.sol\":4802:4808  out[0] */\n      0x01\n      dup2\n      lt\n      tag_217\n      jumpi\n      tag_218\n      tag_48\n      jump\t// in\n    tag_218:\n    tag_217:\n      0x20\n      mul\n      add\n      mload\n        /* \"verifier/src/Verifier.sol\":4802:4813  out[0] != 0 */\n      eq\n      iszero\n        /* \"verifier/src/Verifier.sol\":4795:4813  return out[0] != 0 */\n      swap6\n      pop\n      pop\n      pop\n      pop\n      pop\n      pop\n        /* \"verifier/src/Verifier.sol\":3878:4820  function pairing(G1Point[] memory p1, G2Point[] memory p2) internal view returns (bool) {... */\n      swap3\n      swap2\n      pop\n      pop\n      jump\t// out\n    tag_72:\n      mload(0x40)\n      dup1\n      0xa0\n      add\n      0x40\n      mstore\n      dup1\n      tag_219\n      tag_80\n      jump\t// in\n    tag_219:\n      dup2\n      mstore\n      0x20\n      add\n      tag_220\n      tag_138\n      jump\t// in\n    tag_220:\n      dup2\n      mstore\n      0x20\n      add\n      tag_221\n      tag_138\n      jump\t// in\n    tag_221:\n      dup2\n      mstore\n      0x20\n      add\n      tag_222\n      tag_138\n      jump\t// in\n    tag_222:\n      dup2\n      mstore\n      0x20\n      add\n      0x60\n      dup2\n      mstore\n      pop\n      swap1\n      jump\t// out\n    tag_80:\n      mload(0x40)\n      dup1\n      0x40\n      add\n      0x40\n      mstore\n      dup1\n      0x00\n      dup2\n      mstore\n      0x20\n      add\n      0x00\n      dup2\n      mstore\n      pop\n      swap1\n      jump\t// out\n    tag_94:\n      mload(0x40)\n      dup1\n      0x60\n      add\n      0x40\n      mstore\n      dup1\n      0x03\n      swap1\n      0x20\n      dup3\n      mul\n      dup1\n      calldatasize\n      dup4\n      calldatacopy\n      dup1\n      dup3\n      add\n      swap2\n      pop\n      pop\n      swap1\n      pop\n      pop\n      swap1\n      jump\t// out\n    tag_107:\n      mload(0x40)\n      dup1\n      0x80\n      add\n      0x40\n      mstore\n      dup1\n      0x04\n      swap1\n      0x20\n      dup3\n      mul\n      dup1\n      calldatasize\n      dup4\n      calldatacopy\n      dup1\n      dup3\n      add\n      swap2\n      pop\n      pop\n      swap1\n      pop\n      pop\n      swap1\n      jump\t// out\n    tag_138:\n      mload(0x40)\n      dup1\n      0x40\n      add\n      0x40\n      mstore\n      dup1\n      tag_223\n      tag_224\n      jump\t// in\n    tag_223:\n      dup2\n      mstore\n      0x20\n      add\n      tag_225\n      tag_224\n      jump\t// in\n    tag_225:\n      dup2\n      mstore\n      pop\n      swap1\n      jump\t// out\n    tag_213:\n      mload(0x40)\n      dup1\n      0x20\n      add\n      0x40\n      mstore\n      dup1\n      0x01\n      swap1\n      0x20\n      dup3\n      mul\n      dup1\n      calldatasize\n      dup4\n      calldatacopy\n      dup1\n      dup3\n      add\n      swap2\n      pop\n      pop\n      swap1\n      pop\n      pop\n      swap1\n      jump\t// out\n    tag_224:\n      mload(0x40)\n      dup1\n      0x40\n      add\n      0x40\n      mstore\n      dup1\n      0x02\n      swap1\n      0x20\n      dup3\n      mul\n      dup1\n      calldatasize\n      dup4\n      calldatacopy\n      dup1\n      dup3\n      add\n      swap2\n      pop\n      pop\n      swap1\n      pop\n      pop\n      swap1\n      jump\t// out\n        /* \"#utility.yul\":7:82   */\n    tag_226:\n        /* \"#utility.yul\":40:46   */\n      0x00\n        /* \"#utility.yul\":73:75   */\n      0x40\n        /* \"#utility.yul\":67:76   */\n      mload\n        /* \"#utility.yul\":57:76   */\n      swap1\n      pop\n        /* \"#utility.yul\":7:82   */\n      swap1\n      jump\t// out\n        /* \"#utility.yul\":88:205   */\n    tag_227:\n        /* \"#utility.yul\":197:198   */\n      0x00\n        /* \"#utility.yul\":194:195   */\n      dup1\n        /* \"#utility.yul\":187:199   */\n      revert\n        /* \"#utility.yul\":334:460   */\n    tag_229:\n        /* \"#utility.yul\":371:378   */\n      0x00\n        /* \"#utility.yul\":411:453   */\n      0xffffffffffffffffffffffffffffffffffffffff\n        /* \"#utility.yul\":404:409   */\n      dup3\n        /* \"#utility.yul\":400:454   */\n      and\n        /* \"#utility.yul\":389:454   */\n      swap1\n      pop\n        /* \"#utility.yul\":334:460   */\n      swap2\n      swap1\n      pop\n      jump\t// out\n        /* \"#utility.yul\":466:562   */\n    tag_230:\n        /* \"#utility.yul\":503:510   */\n      0x00\n        /* \"#utility.yul\":532:556   */\n      tag_264\n        /* \"#utility.yul\":550:555   */\n      dup3\n        /* \"#utility.yul\":532:556   */\n      tag_229\n      jump\t// in\n    tag_264:\n        /* \"#utility.yul\":521:556   */\n      swap1\n      pop\n        /* \"#utility.yul\":466:562   */\n      swap2\n      swap1\n      pop\n      jump\t// out\n        /* \"#utility.yul\":568:690   */\n    tag_231:\n        /* \"#utility.yul\":641:665   */\n      tag_266\n        /* \"#utility.yul\":659:664   */\n      dup2\n        /* \"#utility.yul\":641:665   */\n      tag_230\n      jump\t// in\n    tag_266:\n        /* \"#utility.yul\":634:639   */\n      dup2\n        /* \"#utility.yul\":631:666   */\n      eq\n        /* \"#utility.yul\":621:684   */\n      tag_267\n      jumpi\n        /* \"#utility.yul\":680:681   */\n      0x00\n        /* \"#utility.yul\":677:678   */\n      dup1\n        /* \"#utility.yul\":670:682   */\n      revert\n        /* \"#utility.yul\":621:684   */\n    tag_267:\n        /* \"#utility.yul\":568:690   */\n      pop\n      jump\t// out\n        /* \"#utility.yul\":696:835   */\n    tag_232:\n        /* \"#utility.yul\":742:747   */\n      0x00\n        /* \"#utility.yul\":780:786   */\n      dup2\n        /* \"#utility.yul\":767:787   */\n      calldataload\n        /* \"#utility.yul\":758:787   */\n      swap1\n      pop\n        /* \"#utility.yul\":796:829   */\n      tag_269\n        /* \"#utility.yul\":823:828   */\n      dup2\n        /* \"#utility.yul\":796:829   */\n      tag_231\n      jump\t// in\n    tag_269:\n        /* \"#utility.yul\":696:835   */\n      swap3\n      swap2\n      pop\n      pop\n      jump\t// out\n        /* \"#utility.yul\":841:1170   */\n    tag_9:\n        /* \"#utility.yul\":900:906   */\n      0x00\n        /* \"#utility.yul\":949:951   */\n      0x20\n        /* \"#utility.yul\":937:946   */\n      dup3\n        /* \"#utility.yul\":928:935   */\n      dup5\n        /* \"#utility.yul\":924:947   */\n      sub\n        /* \"#utility.yul\":920:952   */\n      slt\n        /* \"#utility.yul\":917:1036   */\n      iszero\n      tag_271\n      jumpi\n        /* \"#utility.yul\":955:1034   */\n      tag_272\n      tag_227\n      jump\t// in\n    tag_272:\n        /* \"#utility.yul\":917:1036   */\n    tag_271:\n        /* \"#utility.yul\":1075:1076   */\n      0x00\n        /* \"#utility.yul\":1100:1153   */\n      tag_273\n        /* \"#utility.yul\":1145:1152   */\n      dup5\n        /* \"#utility.yul\":1136:1142   */\n      dup3\n        /* \"#utility.yul\":1125:1134   */\n      dup6\n        /* \"#utility.yul\":1121:1143   */\n      add\n        /* \"#utility.yul\":1100:1153   */\n      tag_232\n      jump\t// in\n    tag_273:\n        /* \"#utility.yul\":1090:1153   */\n      swap2\n      pop\n        /* \"#utility.yul\":1046:1163   */\n      pop\n        /* \"#utility.yul\":841:1170   */\n      swap3\n      swap2\n      pop\n      pop\n      jump\t// out\n        /* \"#utility.yul\":1176:1253   */\n    tag_233:\n        /* \"#utility.yul\":1213:1220   */\n      0x00\n        /* \"#utility.yul\":1242:1247   */\n      dup2\n        /* \"#utility.yul\":1231:1247   */\n      swap1\n      pop\n        /* \"#utility.yul\":1176:1253   */\n      swap2\n      swap1\n      pop\n      jump\t// out\n        /* \"#utility.yul\":1259:1377   */\n    tag_234:\n        /* \"#utility.yul\":1346:1370   */\n      tag_276\n        /* \"#utility.yul\":1364:1369   */\n      dup2\n        /* \"#utility.yul\":1346:1370   */\n      tag_233\n      jump\t// in\n    tag_276:\n        /* \"#utility.yul\":1341:1344   */\n      dup3\n        /* \"#utility.yul\":1334:1371   */\n      mstore\n        /* \"#utility.yul\":1259:1377   */\n      pop\n      pop\n      jump\t// out\n        /* \"#utility.yul\":1383:1605   */\n    tag_12:\n        /* \"#utility.yul\":1476:1480   */\n      0x00\n        /* \"#utility.yul\":1514:1516   */\n      0x20\n        /* \"#utility.yul\":1503:1512   */\n      dup3\n        /* \"#utility.yul\":1499:1517   */\n      add\n        /* \"#utility.yul\":1491:1517   */\n      swap1\n      pop\n        /* \"#utility.yul\":1527:1598   */\n      tag_278\n        /* \"#utility.yul\":1595:1596   */\n      0x00\n        /* \"#utility.yul\":1584:1593   */\n      dup4\n        /* \"#utility.yul\":1580:1597   */\n      add\n        /* \"#utility.yul\":1571:1577   */\n      dup5\n        /* \"#utility.yul\":1527:1598   */\n      tag_234\n      jump\t// in\n    tag_278:\n        /* \"#utility.yul\":1383:1605   */\n      swap3\n      swap2\n      pop\n      pop\n      jump\t// out\n        /* \"#utility.yul\":1611:1733   */\n    tag_235:\n        /* \"#utility.yul\":1684:1708   */\n      tag_280\n        /* \"#utility.yul\":1702:1707   */\n      dup2\n        /* \"#utility.yul\":1684:1708   */\n      tag_233\n      jump\t// in\n    tag_280:\n        /* \"#utility.yul\":1677:1682   */\n      dup2\n        /* \"#utility.yul\":1674:1709   */\n      eq\n        /* \"#utility.yul\":1664:1727   */\n      tag_281\n      jumpi\n        /* \"#utility.yul\":1723:1724   */\n      0x00\n        /* \"#utility.yul\":1720:1721   */\n      dup1\n        /* \"#utility.yul\":1713:1725   */\n      revert\n        /* \"#utility.yul\":1664:1727   */\n    tag_281:\n        /* \"#utility.yul\":1611:1733   */\n      pop\n      jump\t// out\n        /* \"#utility.yul\":1739:1878   */\n    tag_236:\n        /* \"#utility.yul\":1785:1790   */\n      0x00\n        /* \"#utility.yul\":1823:1829   */\n      dup2\n        /* \"#utility.yul\":1810:1830   */\n      calldataload\n        /* \"#utility.yul\":1801:1830   */\n      swap1\n      pop\n        /* \"#utility.yul\":1839:1872   */\n      tag_283\n        /* \"#utility.yul\":1866:1871   */\n      dup2\n        /* \"#utility.yul\":1839:1872   */\n      tag_235\n      jump\t// in\n    tag_283:\n        /* \"#utility.yul\":1739:1878   */\n      swap3\n      swap2\n      pop\n      pop\n      jump\t// out\n        /* \"#utility.yul\":1884:2358   */\n    tag_15:\n        /* \"#utility.yul\":1952:1958   */\n      0x00\n        /* \"#utility.yul\":1960:1966   */\n      dup1\n        /* \"#utility.yul\":2009:2011   */\n      0x40\n        /* \"#utility.yul\":1997:2006   */\n      dup4\n        /* \"#utility.yul\":1988:1995   */\n      dup6\n        /* \"#utility.yul\":1984:2007   */\n      sub\n        /* \"#utility.yul\":1980:2012   */\n      slt\n        /* \"#utility.yul\":1977:2096   */\n      iszero\n      tag_285\n      jumpi\n        /* \"#utility.yul\":2015:2094   */\n      tag_286\n      tag_227\n      jump\t// in\n    tag_286:\n        /* \"#utility.yul\":1977:2096   */\n    tag_285:\n        /* \"#utility.yul\":2135:2136   */\n      0x00\n        /* \"#utility.yul\":2160:2213   */\n      tag_287\n        /* \"#utility.yul\":2205:2212   */\n      dup6\n        /* \"#utility.yul\":2196:2202   */\n      dup3\n        /* \"#utility.yul\":2185:2194   */\n      dup7\n        /* \"#utility.yul\":2181:2203   */\n      add\n        /* \"#utility.yul\":2160:2213   */\n      tag_236\n      jump\t// in\n    tag_287:\n        /* \"#utility.yul\":2150:2213   */\n      swap3\n      pop\n        /* \"#utility.yul\":2106:2223   */\n      pop\n        /* \"#utility.yul\":2262:2264   */\n      0x20\n        /* \"#utility.yul\":2288:2341   */\n      tag_288\n        /* \"#utility.yul\":2333:2340   */\n      dup6\n        /* \"#utility.yul\":2324:2330   */\n      dup3\n        /* \"#utility.yul\":2313:2322   */\n      dup7\n        /* \"#utility.yul\":2309:2331   */\n      add\n        /* \"#utility.yul\":2288:2341   */\n      tag_236\n      jump\t// in\n    tag_288:\n        /* \"#utility.yul\":2278:2341   */\n      swap2\n      pop\n        /* \"#utility.yul\":2233:2351   */\n      pop\n        /* \"#utility.yul\":1884:2358   */\n      swap3\n      pop\n      swap3\n      swap1\n      pop\n      jump\t// out\n        /* \"#utility.yul\":2364:2454   */\n    tag_237:\n        /* \"#utility.yul\":2398:2405   */\n      0x00\n        /* \"#utility.yul\":2441:2446   */\n      dup2\n        /* \"#utility.yul\":2434:2447   */\n      iszero\n        /* \"#utility.yul\":2427:2448   */\n      iszero\n        /* \"#utility.yul\":2416:2448   */\n      swap1\n      pop\n        /* \"#utility.yul\":2364:2454   */\n      swap2\n      swap1\n      pop\n      jump\t// out\n        /* \"#utility.yul\":2460:2569   */\n    tag_238:\n        /* \"#utility.yul\":2541:2562   */\n      tag_291\n        /* \"#utility.yul\":2556:2561   */\n      dup2\n        /* \"#utility.yul\":2541:2562   */\n      tag_237\n      jump\t// in\n    tag_291:\n        /* \"#utility.yul\":2536:2539   */\n      dup3\n        /* \"#utility.yul\":2529:2563   */\n      mstore\n        /* \"#utility.yul\":2460:2569   */\n      pop\n      pop\n      jump\t// out\n        /* \"#utility.yul\":2575:2785   */\n    tag_18:\n        /* \"#utility.yul\":2662:2666   */\n      0x00\n        /* \"#utility.yul\":2700:2702   */\n      0x20\n        /* \"#utility.yul\":2689:2698   */\n      dup3\n        /* \"#utility.yul\":2685:2703   */\n      add\n        /* \"#utility.yul\":2677:2703   */\n      swap1\n      pop\n        /* \"#utility.yul\":2713:2778   */\n      tag_293\n        /* \"#utility.yul\":2775:2776   */\n      0x00\n        /* \"#utility.yul\":2764:2773   */\n      dup4\n        /* \"#utility.yul\":2760:2777   */\n      add\n        /* \"#utility.yul\":2751:2757   */\n      dup5\n        /* \"#utility.yul\":2713:2778   */\n      tag_238\n      jump\t// in\n    tag_293:\n        /* \"#utility.yul\":2575:2785   */\n      swap3\n      swap2\n      pop\n      pop\n      jump\t// out\n        /* \"#utility.yul\":2791:2908   */\n    tag_239:\n        /* \"#utility.yul\":2900:2901   */\n      0x00\n        /* \"#utility.yul\":2897:2898   */\n      dup1\n        /* \"#utility.yul\":2890:2902   */\n      revert\n        /* \"#utility.yul\":2914:3016   */\n    tag_240:\n        /* \"#utility.yul\":2955:2961   */\n      0x00\n        /* \"#utility.yul\":3006:3008   */\n      0x1f\n        /* \"#utility.yul\":3002:3009   */\n      not\n        /* \"#utility.yul\":2997:2999   */\n      0x1f\n        /* \"#utility.yul\":2990:2995   */\n      dup4\n        /* \"#utility.yul\":2986:3000   */\n      add\n        /* \"#utility.yul\":2982:3010   */\n      and\n        /* \"#utility.yul\":2972:3010   */\n      swap1\n      pop\n        /* \"#utility.yul\":2914:3016   */\n      swap2\n      swap1\n      pop\n      jump\t// out\n        /* \"#utility.yul\":3022:3202   */\n    tag_76:\n        /* \"#utility.yul\":3070:3147   */\n      0x4e487b7100000000000000000000000000000000000000000000000000000000\n        /* \"#utility.yul\":3067:3068   */\n      0x00\n        /* \"#utility.yul\":3060:3148   */\n      mstore\n        /* \"#utility.yul\":3167:3171   */\n      0x41\n        /* \"#utility.yul\":3164:3165   */\n      0x04\n        /* \"#utility.yul\":3157:3172   */\n      mstore\n        /* \"#utility.yul\":3191:3195   */\n      0x24\n        /* \"#utility.yul\":3188:3189   */\n      0x00\n        /* \"#utility.yul\":3181:3196   */\n      revert\n        /* \"#utility.yul\":3208:3489   */\n    tag_241:\n        /* \"#utility.yul\":3291:3318   */\n      tag_298\n        /* \"#utility.yul\":3313:3317   */\n      dup3\n        /* \"#utility.yul\":3291:3318   */\n      tag_240\n      jump\t// in\n    tag_298:\n        /* \"#utility.yul\":3283:3289   */\n      dup2\n        /* \"#utility.yul\":3279:3319   */\n      add\n        /* \"#utility.yul\":3421:3427   */\n      dup2\n        /* \"#utility.yul\":3409:3419   */\n      dup2\n        /* \"#utility.yul\":3406:3428   */\n      lt\n        /* \"#utility.yul\":3385:3403   */\n      0xffffffffffffffff\n        /* \"#utility.yul\":3373:3383   */\n      dup3\n        /* \"#utility.yul\":3370:3404   */\n      gt\n        /* \"#utility.yul\":3367:3429   */\n      or\n        /* \"#utility.yul\":3364:3452   */\n      iszero\n      tag_299\n      jumpi\n        /* \"#utility.yul\":3432:3450   */\n      tag_300\n      tag_76\n      jump\t// in\n    tag_300:\n        /* \"#utility.yul\":3364:3452   */\n    tag_299:\n        /* \"#utility.yul\":3472:3482   */\n      dup1\n        /* \"#utility.yul\":3468:3470   */\n      0x40\n        /* \"#utility.yul\":3461:3483   */\n      mstore\n        /* \"#utility.yul\":3251:3489   */\n      pop\n        /* \"#utility.yul\":3208:3489   */\n      pop\n      pop\n      jump\t// out\n        /* \"#utility.yul\":3495:3624   */\n    tag_242:\n        /* \"#utility.yul\":3529:3535   */\n      0x00\n        /* \"#utility.yul\":3556:3576   */\n      tag_302\n      tag_226\n      jump\t// in\n    tag_302:\n        /* \"#utility.yul\":3546:3576   */\n      swap1\n      pop\n        /* \"#utility.yul\":3585:3618   */\n      tag_303\n        /* \"#utility.yul\":3613:3617   */\n      dup3\n        /* \"#utility.yul\":3605:3611   */\n      dup3\n        /* \"#utility.yul\":3585:3618   */\n      tag_241\n      jump\t// in\n    tag_303:\n        /* \"#utility.yul\":3495:3624   */\n      swap2\n      swap1\n      pop\n      jump\t// out\n        /* \"#utility.yul\":3783:4350   */\n    tag_244:\n        /* \"#utility.yul\":3856:3861   */\n      0x00\n        /* \"#utility.yul\":3900:3904   */\n      0x40\n        /* \"#utility.yul\":3888:3897   */\n      dup3\n        /* \"#utility.yul\":3883:3886   */\n      dup5\n        /* \"#utility.yul\":3879:3898   */\n      sub\n        /* \"#utility.yul\":3875:3905   */\n      slt\n        /* \"#utility.yul\":3872:3989   */\n      iszero\n      tag_306\n      jumpi\n        /* \"#utility.yul\":3908:3987   */\n      tag_307\n      tag_239\n      jump\t// in\n    tag_307:\n        /* \"#utility.yul\":3872:3989   */\n    tag_306:\n        /* \"#utility.yul\":4007:4028   */\n      tag_308\n        /* \"#utility.yul\":4023:4027   */\n      0x40\n        /* \"#utility.yul\":4007:4028   */\n      tag_242\n      jump\t// in\n    tag_308:\n        /* \"#utility.yul\":3998:4028   */\n      swap1\n      pop\n        /* \"#utility.yul\":4084:4085   */\n      0x00\n        /* \"#utility.yul\":4124:4173   */\n      tag_309\n        /* \"#utility.yul\":4169:4172   */\n      dup5\n        /* \"#utility.yul\":4160:4166   */\n      dup3\n        /* \"#utility.yul\":4149:4158   */\n      dup6\n        /* \"#utility.yul\":4145:4167   */\n      add\n        /* \"#utility.yul\":4124:4173   */\n      tag_236\n      jump\t// in\n    tag_309:\n        /* \"#utility.yul\":4117:4121   */\n      0x00\n        /* \"#utility.yul\":4110:4115   */\n      dup4\n        /* \"#utility.yul\":4106:4122   */\n      add\n        /* \"#utility.yul\":4099:4174   */\n      mstore\n        /* \"#utility.yul\":4038:4185   */\n      pop\n        /* \"#utility.yul\":4241:4243   */\n      0x20\n        /* \"#utility.yul\":4282:4331   */\n      tag_310\n        /* \"#utility.yul\":4327:4330   */\n      dup5\n        /* \"#utility.yul\":4318:4324   */\n      dup3\n        /* \"#utility.yul\":4307:4316   */\n      dup6\n        /* \"#utility.yul\":4303:4325   */\n      add\n        /* \"#utility.yul\":4282:4331   */\n      tag_236\n      jump\t// in\n    tag_310:\n        /* \"#utility.yul\":4275:4279   */\n      0x20\n        /* \"#utility.yul\":4268:4273   */\n      dup4\n        /* \"#utility.yul\":4264:4280   */\n      add\n        /* \"#utility.yul\":4257:4332   */\n      mstore\n        /* \"#utility.yul\":4195:4343   */\n      pop\n        /* \"#utility.yul\":3783:4350   */\n      swap3\n      swap2\n      pop\n      pop\n      jump\t// out\n        /* \"#utility.yul\":4356:4473   */\n    tag_245:\n        /* \"#utility.yul\":4465:4466   */\n      0x00\n        /* \"#utility.yul\":4462:4463   */\n      dup1\n        /* \"#utility.yul\":4455:4467   */\n      revert\n        /* \"#utility.yul\":4479:4728   */\n    tag_246:\n        /* \"#utility.yul\":4554:4558   */\n      0x00\n        /* \"#utility.yul\":4644:4662   */\n      0xffffffffffffffff\n        /* \"#utility.yul\":4636:4642   */\n      dup3\n        /* \"#utility.yul\":4633:4663   */\n      gt\n        /* \"#utility.yul\":4630:4686   */\n      iszero\n      tag_313\n      jumpi\n        /* \"#utility.yul\":4666:4684   */\n      tag_314\n      tag_76\n      jump\t// in\n    tag_314:\n        /* \"#utility.yul\":4630:4686   */\n    tag_313:\n        /* \"#utility.yul\":4716:4720   */\n      0x20\n        /* \"#utility.yul\":4708:4714   */\n      dup3\n        /* \"#utility.yul\":4704:4721   */\n      mul\n        /* \"#utility.yul\":4696:4721   */\n      swap1\n      pop\n        /* \"#utility.yul\":4479:4728   */\n      swap2\n      swap1\n      pop\n      jump\t// out\n        /* \"#utility.yul\":4734:4851   */\n    tag_247:\n        /* \"#utility.yul\":4843:4844   */\n      0x00\n        /* \"#utility.yul\":4840:4841   */\n      dup1\n        /* \"#utility.yul\":4833:4845   */\n      revert\n        /* \"#utility.yul\":4875:5518   */\n    tag_248:\n        /* \"#utility.yul\":4969:4974   */\n      0x00\n        /* \"#utility.yul\":4994:5073   */\n      tag_317\n        /* \"#utility.yul\":5010:5072   */\n      tag_318\n        /* \"#utility.yul\":5065:5071   */\n      dup5\n        /* \"#utility.yul\":5010:5072   */\n      tag_246\n      jump\t// in\n    tag_318:\n        /* \"#utility.yul\":4994:5073   */\n      tag_242\n      jump\t// in\n    tag_317:\n        /* \"#utility.yul\":4985:5073   */\n      swap1\n      pop\n        /* \"#utility.yul\":5093:5098   */\n      dup1\n        /* \"#utility.yul\":5146:5150   */\n      0x20\n        /* \"#utility.yul\":5138:5144   */\n      dup5\n        /* \"#utility.yul\":5134:5151   */\n      mul\n        /* \"#utility.yul\":5126:5132   */\n      dup4\n        /* \"#utility.yul\":5122:5152   */\n      add\n        /* \"#utility.yul\":5175:5178   */\n      dup6\n        /* \"#utility.yul\":5167:5173   */\n      dup2\n        /* \"#utility.yul\":5164:5179   */\n      gt\n        /* \"#utility.yul\":5161:5283   */\n      iszero\n      tag_319\n      jumpi\n        /* \"#utility.yul\":5194:5273   */\n      tag_320\n      tag_247\n      jump\t// in\n    tag_320:\n        /* \"#utility.yul\":5161:5283   */\n    tag_319:\n        /* \"#utility.yul\":5309:5315   */\n      dup4\n        /* \"#utility.yul\":5292:5512   */\n    tag_321:\n        /* \"#utility.yul\":5326:5332   */\n      dup2\n        /* \"#utility.yul\":5321:5324   */\n      dup2\n        /* \"#utility.yul\":5318:5333   */\n      lt\n        /* \"#utility.yul\":5292:5512   */\n      iszero\n      tag_323\n      jumpi\n        /* \"#utility.yul\":5401:5404   */\n      dup1\n        /* \"#utility.yul\":5430:5467   */\n      tag_324\n        /* \"#utility.yul\":5463:5466   */\n      dup9\n        /* \"#utility.yul\":5451:5461   */\n      dup3\n        /* \"#utility.yul\":5430:5467   */\n      tag_236\n      jump\t// in\n    tag_324:\n        /* \"#utility.yul\":5425:5428   */\n      dup5\n        /* \"#utility.yul\":5418:5468   */\n      mstore\n        /* \"#utility.yul\":5497:5501   */\n      0x20\n        /* \"#utility.yul\":5492:5495   */\n      dup5\n        /* \"#utility.yul\":5488:5502   */\n      add\n        /* \"#utility.yul\":5481:5502   */\n      swap4\n      pop\n        /* \"#utility.yul\":5368:5512   */\n      pop\n        /* \"#utility.yul\":5352:5356   */\n      0x20\n        /* \"#utility.yul\":5347:5350   */\n      dup2\n        /* \"#utility.yul\":5343:5357   */\n      add\n        /* \"#utility.yul\":5336:5357   */\n      swap1\n      pop\n        /* \"#utility.yul\":5292:5512   */\n      jump(tag_321)\n    tag_323:\n        /* \"#utility.yul\":5296:5317   */\n      pop\n        /* \"#utility.yul\":4975:5518   */\n      pop\n      pop\n        /* \"#utility.yul\":4875:5518   */\n      swap4\n      swap3\n      pop\n      pop\n      pop\n      jump\t// out\n        /* \"#utility.yul\":5542:5881   */\n    tag_249:\n        /* \"#utility.yul\":5611:5616   */\n      0x00\n        /* \"#utility.yul\":5660:5663   */\n      dup3\n        /* \"#utility.yul\":5653:5657   */\n      0x1f\n        /* \"#utility.yul\":5645:5651   */\n      dup4\n        /* \"#utility.yul\":5641:5658   */\n      add\n        /* \"#utility.yul\":5637:5664   */\n      slt\n        /* \"#utility.yul\":5627:5749   */\n      tag_326\n      jumpi\n        /* \"#utility.yul\":5668:5747   */\n      tag_327\n      tag_245\n      jump\t// in\n    tag_327:\n        /* \"#utility.yul\":5627:5749   */\n    tag_326:\n        /* \"#utility.yul\":5772:5776   */\n      0x02\n        /* \"#utility.yul\":5794:5875   */\n      tag_328\n        /* \"#utility.yul\":5871:5874   */\n      dup5\n        /* \"#utility.yul\":5863:5869   */\n      dup3\n        /* \"#utility.yul\":5855:5861   */\n      dup6\n        /* \"#utility.yul\":5794:5875   */\n      tag_248\n      jump\t// in\n    tag_328:\n        /* \"#utility.yul\":5785:5875   */\n      swap2\n      pop\n        /* \"#utility.yul\":5617:5881   */\n      pop\n        /* \"#utility.yul\":5542:5881   */\n      swap3\n      swap2\n      pop\n      pop\n      jump\t// out\n        /* \"#utility.yul\":5917:6530   */\n    tag_250:\n        /* \"#utility.yul\":5990:5995   */\n      0x00\n        /* \"#utility.yul\":6034:6038   */\n      0x80\n        /* \"#utility.yul\":6022:6031   */\n      dup3\n        /* \"#utility.yul\":6017:6020   */\n      dup5\n        /* \"#utility.yul\":6013:6032   */\n      sub\n        /* \"#utility.yul\":6009:6039   */\n      slt\n        /* \"#utility.yul\":6006:6123   */\n      iszero\n      tag_330\n      jumpi\n        /* \"#utility.yul\":6042:6121   */\n      tag_331\n      tag_239\n      jump\t// in\n    tag_331:\n        /* \"#utility.yul\":6006:6123   */\n    tag_330:\n        /* \"#utility.yul\":6141:6162   */\n      tag_332\n        /* \"#utility.yul\":6157:6161   */\n      0x40\n        /* \"#utility.yul\":6141:6162   */\n      tag_242\n      jump\t// in\n    tag_332:\n        /* \"#utility.yul\":6132:6162   */\n      swap1\n      pop\n        /* \"#utility.yul\":6218:6219   */\n      0x00\n        /* \"#utility.yul\":6258:6330   */\n      tag_333\n        /* \"#utility.yul\":6326:6329   */\n      dup5\n        /* \"#utility.yul\":6317:6323   */\n      dup3\n        /* \"#utility.yul\":6306:6315   */\n      dup6\n        /* \"#utility.yul\":6302:6324   */\n      add\n        /* \"#utility.yul\":6258:6330   */\n      tag_249\n      jump\t// in\n    tag_333:\n        /* \"#utility.yul\":6251:6255   */\n      0x00\n        /* \"#utility.yul\":6244:6249   */\n      dup4\n        /* \"#utility.yul\":6240:6256   */\n      add\n        /* \"#utility.yul\":6233:6331   */\n      mstore\n        /* \"#utility.yul\":6172:6342   */\n      pop\n        /* \"#utility.yul\":6398:6400   */\n      0x40\n        /* \"#utility.yul\":6439:6511   */\n      tag_334\n        /* \"#utility.yul\":6507:6510   */\n      dup5\n        /* \"#utility.yul\":6498:6504   */\n      dup3\n        /* \"#utility.yul\":6487:6496   */\n      dup6\n        /* \"#utility.yul\":6483:6505   */\n      add\n        /* \"#utility.yul\":6439:6511   */\n      tag_249\n      jump\t// in\n    tag_334:\n        /* \"#utility.yul\":6432:6436   */\n      0x20\n        /* \"#utility.yul\":6425:6430   */\n      dup4\n        /* \"#utility.yul\":6421:6437   */\n      add\n        /* \"#utility.yul\":6414:6512   */\n      mstore\n        /* \"#utility.yul\":6352:6523   */\n      pop\n        /* \"#utility.yul\":5917:6530   */\n      swap3\n      swap2\n      pop\n      pop\n      jump\t// out\n        /* \"#utility.yul\":6565:7363   */\n    tag_251:\n        /* \"#utility.yul\":6636:6641   */\n      0x00\n        /* \"#utility.yul\":6680:6686   */\n      0x0100\n        /* \"#utility.yul\":6668:6677   */\n      dup3\n        /* \"#utility.yul\":6663:6666   */\n      dup5\n        /* \"#utility.yul\":6659:6678   */\n      sub\n        /* \"#utility.yul\":6655:6687   */\n      slt\n        /* \"#utility.yul\":6652:6771   */\n      iszero\n      tag_336\n      jumpi\n        /* \"#utility.yul\":6690:6769   */\n      tag_337\n      tag_239\n      jump\t// in\n    tag_337:\n        /* \"#utility.yul\":6652:6771   */\n    tag_336:\n        /* \"#utility.yul\":6789:6810   */\n      tag_338\n        /* \"#utility.yul\":6805:6809   */\n      0x60\n        /* \"#utility.yul\":6789:6810   */\n      tag_242\n      jump\t// in\n    tag_338:\n        /* \"#utility.yul\":6780:6810   */\n      swap1\n      pop\n        /* \"#utility.yul\":6866:6867   */\n      0x00\n        /* \"#utility.yul\":6906:6979   */\n      tag_339\n        /* \"#utility.yul\":6975:6978   */\n      dup5\n        /* \"#utility.yul\":6966:6972   */\n      dup3\n        /* \"#utility.yul\":6955:6964   */\n      dup6\n        /* \"#utility.yul\":6951:6973   */\n      add\n        /* \"#utility.yul\":6906:6979   */\n      tag_244\n      jump\t// in\n    tag_339:\n        /* \"#utility.yul\":6899:6903   */\n      0x00\n        /* \"#utility.yul\":6892:6897   */\n      dup4\n        /* \"#utility.yul\":6888:6904   */\n      add\n        /* \"#utility.yul\":6881:6980   */\n      mstore\n        /* \"#utility.yul\":6820:6991   */\n      pop\n        /* \"#utility.yul\":7047:7049   */\n      0x40\n        /* \"#utility.yul\":7088:7161   */\n      tag_340\n        /* \"#utility.yul\":7157:7160   */\n      dup5\n        /* \"#utility.yul\":7148:7154   */\n      dup3\n        /* \"#utility.yul\":7137:7146   */\n      dup6\n        /* \"#utility.yul\":7133:7155   */\n      add\n        /* \"#utility.yul\":7088:7161   */\n      tag_250\n      jump\t// in\n    tag_340:\n        /* \"#utility.yul\":7081:7085   */\n      0x20\n        /* \"#utility.yul\":7074:7079   */\n      dup4\n        /* \"#utility.yul\":7070:7086   */\n      add\n        /* \"#utility.yul\":7063:7162   */\n      mstore\n        /* \"#utility.yul\":7001:7173   */\n      pop\n        /* \"#utility.yul\":7229:7232   */\n      0xc0\n        /* \"#utility.yul\":7271:7344   */\n      tag_341\n        /* \"#utility.yul\":7340:7343   */\n      dup5\n        /* \"#utility.yul\":7331:7337   */\n      dup3\n        /* \"#utility.yul\":7320:7329   */\n      dup6\n        /* \"#utility.yul\":7316:7338   */\n      add\n        /* \"#utility.yul\":7271:7344   */\n      tag_244\n      jump\t// in\n    tag_341:\n        /* \"#utility.yul\":7264:7268   */\n      0x40\n        /* \"#utility.yul\":7257:7262   */\n      dup4\n        /* \"#utility.yul\":7253:7269   */\n      add\n        /* \"#utility.yul\":7246:7345   */\n      mstore\n        /* \"#utility.yul\":7183:7356   */\n      pop\n        /* \"#utility.yul\":6565:7363   */\n      swap3\n      swap2\n      pop\n      pop\n      jump\t// out\n        /* \"#utility.yul\":7369:7743   */\n    tag_25:\n        /* \"#utility.yul\":7450:7456   */\n      0x00\n        /* \"#utility.yul\":7499:7502   */\n      0x0100\n        /* \"#utility.yul\":7487:7496   */\n      dup3\n        /* \"#utility.yul\":7478:7485   */\n      dup5\n        /* \"#utility.yul\":7474:7497   */\n      sub\n        /* \"#utility.yul\":7470:7503   */\n      slt\n        /* \"#utility.yul\":7467:7587   */\n      iszero\n      tag_343\n      jumpi\n        /* \"#utility.yul\":7506:7585   */\n      tag_344\n      tag_227\n      jump\t// in\n    tag_344:\n        /* \"#utility.yul\":7467:7587   */\n    tag_343:\n        /* \"#utility.yul\":7626:7627   */\n      0x00\n        /* \"#utility.yul\":7651:7726   */\n      tag_345\n        /* \"#utility.yul\":7718:7725   */\n      dup5\n        /* \"#utility.yul\":7709:7715   */\n      dup3\n        /* \"#utility.yul\":7698:7707   */\n      dup6\n        /* \"#utility.yul\":7694:7716   */\n      add\n        /* \"#utility.yul\":7651:7726   */\n      tag_251\n      jump\t// in\n    tag_345:\n        /* \"#utility.yul\":7641:7726   */\n      swap2\n      pop\n        /* \"#utility.yul\":7597:7736   */\n      pop\n        /* \"#utility.yul\":7369:7743   */\n      swap3\n      swap2\n      pop\n      pop\n      jump\t// out\n        /* \"#utility.yul\":7749:7918   */\n    tag_252:\n        /* \"#utility.yul\":7833:7844   */\n      0x00\n        /* \"#utility.yul\":7867:7873   */\n      dup3\n        /* \"#utility.yul\":7862:7865   */\n      dup3\n        /* \"#utility.yul\":7855:7874   */\n      mstore\n        /* \"#utility.yul\":7907:7911   */\n      0x20\n        /* \"#utility.yul\":7902:7905   */\n      dup3\n        /* \"#utility.yul\":7898:7912   */\n      add\n        /* \"#utility.yul\":7883:7912   */\n      swap1\n      pop\n        /* \"#utility.yul\":7749:7918   */\n      swap3\n      swap2\n      pop\n      pop\n      jump\t// out\n        /* \"#utility.yul\":7924:8088   */\n    tag_253:\n        /* \"#utility.yul\":8064:8080   */\n      0x426162792069742773206d652c20000000000000000000000000000000000000\n        /* \"#utility.yul\":8060:8061   */\n      0x00\n        /* \"#utility.yul\":8052:8058   */\n      dup3\n        /* \"#utility.yul\":8048:8062   */\n      add\n        /* \"#utility.yul\":8041:8081   */\n      mstore\n        /* \"#utility.yul\":7924:8088   */\n      pop\n      jump\t// out\n        /* \"#utility.yul\":8094:8460   */\n    tag_254:\n        /* \"#utility.yul\":8236:8239   */\n      0x00\n        /* \"#utility.yul\":8257:8324   */\n      tag_349\n        /* \"#utility.yul\":8321:8323   */\n      0x0e\n        /* \"#utility.yul\":8316:8319   */\n      dup4\n        /* \"#utility.yul\":8257:8324   */\n      tag_252\n      jump\t// in\n    tag_349:\n        /* \"#utility.yul\":8250:8324   */\n      swap2\n      pop\n        /* \"#utility.yul\":8333:8426   */\n      tag_350\n        /* \"#utility.yul\":8422:8425   */\n      dup3\n        /* \"#utility.yul\":8333:8426   */\n      tag_253\n      jump\t// in\n    tag_350:\n        /* \"#utility.yul\":8451:8453   */\n      0x20\n        /* \"#utility.yul\":8446:8449   */\n      dup3\n        /* \"#utility.yul\":8442:8454   */\n      add\n        /* \"#utility.yul\":8435:8454   */\n      swap1\n      pop\n        /* \"#utility.yul\":8094:8460   */\n      swap2\n      swap1\n      pop\n      jump\t// out\n        /* \"#utility.yul\":8466:8584   */\n    tag_255:\n        /* \"#utility.yul\":8553:8577   */\n      tag_352\n        /* \"#utility.yul\":8571:8576   */\n      dup2\n        /* \"#utility.yul\":8553:8577   */\n      tag_230\n      jump\t// in\n    tag_352:\n        /* \"#utility.yul\":8548:8551   */\n      dup3\n        /* \"#utility.yul\":8541:8578   */\n      mstore\n        /* \"#utility.yul\":8466:8584   */\n      pop\n      pop\n      jump\t// out\n        /* \"#utility.yul\":8590:9119   */\n    tag_30:\n        /* \"#utility.yul\":8784:8788   */\n      0x00\n        /* \"#utility.yul\":8822:8824   */\n      0x40\n        /* \"#utility.yul\":8811:8820   */\n      dup3\n        /* \"#utility.yul\":8807:8825   */\n      add\n        /* \"#utility.yul\":8799:8825   */\n      swap1\n      pop\n        /* \"#utility.yul\":8871:8880   */\n      dup2\n        /* \"#utility.yul\":8865:8869   */\n      dup2\n        /* \"#utility.yul\":8861:8881   */\n      sub\n        /* \"#utility.yul\":8857:8858   */\n      0x00\n        /* \"#utility.yul\":8846:8855   */\n      dup4\n        /* \"#utility.yul\":8842:8859   */\n      add\n        /* \"#utility.yul\":8835:8882   */\n      mstore\n        /* \"#utility.yul\":8899:9030   */\n      tag_354\n        /* \"#utility.yul\":9025:9029   */\n      dup2\n        /* \"#utility.yul\":8899:9030   */\n      tag_254\n      jump\t// in\n    tag_354:\n        /* \"#utility.yul\":8891:9030   */\n      swap1\n      pop\n        /* \"#utility.yul\":9040:9112   */\n      tag_355\n        /* \"#utility.yul\":9108:9110   */\n      0x20\n        /* \"#utility.yul\":9097:9106   */\n      dup4\n        /* \"#utility.yul\":9093:9111   */\n      add\n        /* \"#utility.yul\":9084:9090   */\n      dup5\n        /* \"#utility.yul\":9040:9112   */\n      tag_255\n      jump\t// in\n    tag_355:\n        /* \"#utility.yul\":8590:9119   */\n      swap3\n      swap2\n      pop\n      pop\n      jump\t// out\n        /* \"#utility.yul\":9125:9305   */\n    tag_256:\n        /* \"#utility.yul\":9173:9250   */\n      0x4e487b7100000000000000000000000000000000000000000000000000000000\n        /* \"#utility.yul\":9170:9171   */\n      0x00\n        /* \"#utility.yul\":9163:9251   */\n      mstore\n        /* \"#utility.yul\":9270:9274   */\n      0x11\n        /* \"#utility.yul\":9267:9268   */\n      0x04\n        /* \"#utility.yul\":9260:9275   */\n      mstore\n        /* \"#utility.yul\":9294:9298   */\n      0x24\n        /* \"#utility.yul\":9291:9292   */\n      0x00\n        /* \"#utility.yul\":9284:9299   */\n      revert\n        /* \"#utility.yul\":9311:9502   */\n    tag_41:\n        /* \"#utility.yul\":9351:9354   */\n      0x00\n        /* \"#utility.yul\":9370:9390   */\n      tag_358\n        /* \"#utility.yul\":9388:9389   */\n      dup3\n        /* \"#utility.yul\":9370:9390   */\n      tag_233\n      jump\t// in\n    tag_358:\n        /* \"#utility.yul\":9365:9390   */\n      swap2\n      pop\n        /* \"#utility.yul\":9404:9424   */\n      tag_359\n        /* \"#utility.yul\":9422:9423   */\n      dup4\n        /* \"#utility.yul\":9404:9424   */\n      tag_233\n      jump\t// in\n    tag_359:\n        /* \"#utility.yul\":9399:9424   */\n      swap3\n      pop\n        /* \"#utility.yul\":9447:9448   */\n      dup3\n        /* \"#utility.yul\":9444:9445   */\n      dup3\n        /* \"#utility.yul\":9440:9449   */\n      add\n        /* \"#utility.yul\":9433:9449   */\n      swap1\n      pop\n        /* \"#utility.yul\":9468:9471   */\n      dup1\n        /* \"#utility.yul\":9465:9466   */\n      dup3\n        /* \"#utility.yul\":9462:9472   */\n      gt\n        /* \"#utility.yul\":9459:9495   */\n      iszero\n      tag_360\n      jumpi\n        /* \"#utility.yul\":9475:9493   */\n      tag_361\n      tag_256\n      jump\t// in\n    tag_361:\n        /* \"#utility.yul\":9459:9495   */\n    tag_360:\n        /* \"#utility.yul\":9311:9502   */\n      swap3\n      swap2\n      pop\n      pop\n      jump\t// out\n        /* \"#utility.yul\":9508:9688   */\n    tag_48:\n        /* \"#utility.yul\":9556:9633   */\n      0x4e487b7100000000000000000000000000000000000000000000000000000000\n        /* \"#utility.yul\":9553:9554   */\n      0x00\n        /* \"#utility.yul\":9546:9634   */\n      mstore\n        /* \"#utility.yul\":9653:9657   */\n      0x32\n        /* \"#utility.yul\":9650:9651   */\n      0x04\n        /* \"#utility.yul\":9643:9658   */\n      mstore\n        /* \"#utility.yul\":9677:9681   */\n      0x24\n        /* \"#utility.yul\":9674:9675   */\n      0x00\n        /* \"#utility.yul\":9667:9682   */\n      revert\n        /* \"#utility.yul\":9694:9927   */\n    tag_60:\n        /* \"#utility.yul\":9733:9736   */\n      0x00\n        /* \"#utility.yul\":9756:9780   */\n      tag_364\n        /* \"#utility.yul\":9774:9779   */\n      dup3\n        /* \"#utility.yul\":9756:9780   */\n      tag_233\n      jump\t// in\n    tag_364:\n        /* \"#utility.yul\":9747:9780   */\n      swap2\n      pop\n        /* \"#utility.yul\":9802:9868   */\n      0xffffffffffffffffffffffffffffffffffffffffffffffffffffffffffffffff\n        /* \"#utility.yul\":9795:9800   */\n      dup3\n        /* \"#utility.yul\":9792:9869   */\n      sub\n        /* \"#utility.yul\":9789:9892   */\n      tag_365\n      jumpi\n        /* \"#utility.yul\":9872:9890   */\n      tag_366\n      tag_256\n      jump\t// in\n    tag_366:\n        /* \"#utility.yul\":9789:9892   */\n    tag_365:\n        /* \"#utility.yul\":9919:9920   */\n      0x01\n        /* \"#utility.yul\":9912:9917   */\n      dup3\n        /* \"#utility.yul\":9908:9921   */\n      add\n        /* \"#utility.yul\":9901:9921   */\n      swap1\n      pop\n        /* \"#utility.yul\":9694:9927   */\n      swap2\n      swap1\n      pop\n      jump\t// out\n        /* \"#utility.yul\":9933:10113   */\n    tag_257:\n        /* \"#utility.yul\":9981:10058   */\n      0x4e487b7100000000000000000000000000000000000000000000000000000000\n        /* \"#utility.yul\":9978:9979   */\n      0x00\n        /* \"#utility.yul\":9971:10059   */\n      mstore\n        /* \"#utility.yul\":10078:10082   */\n      0x12\n        /* \"#utility.yul\":10075:10076   */\n      0x04\n        /* \"#utility.yul\":10068:10083   */\n      mstore\n        /* \"#utility.yul\":10102:10106   */\n      0x24\n        /* \"#utility.yul\":10099:10100   */\n      0x00\n        /* \"#utility.yul\":10092:10107   */\n      revert\n        /* \"#utility.yul\":10119:10295   */\n    tag_124:\n        /* \"#utility.yul\":10151:10152   */\n      0x00\n        /* \"#utility.yul\":10168:10188   */\n      tag_369\n        /* \"#utility.yul\":10186:10187   */\n      dup3\n        /* \"#utility.yul\":10168:10188   */\n      tag_233\n      jump\t// in\n    tag_369:\n        /* \"#utility.yul\":10163:10188   */\n      swap2\n      pop\n        /* \"#utility.yul\":10202:10222   */\n      tag_370\n        /* \"#utility.yul\":10220:10221   */\n      dup4\n        /* \"#utility.yul\":10202:10222   */\n      tag_233\n      jump\t// in\n    tag_370:\n        /* \"#utility.yul\":10197:10222   */\n      swap3\n      pop\n        /* \"#utility.yul\":10241:10242   */\n      dup3\n        /* \"#utility.yul\":10231:10266   */\n      tag_371\n      jumpi\n        /* \"#utility.yul\":10246:10264   */\n      tag_372\n      tag_257\n      jump\t// in\n    tag_372:\n        /* \"#utility.yul\":10231:10266   */\n    tag_371:\n        /* \"#utility.yul\":10287:10288   */\n      dup3\n        /* \"#utility.yul\":10284:10285   */\n      dup3\n        /* \"#utility.yul\":10280:10289   */\n      mod\n        /* \"#utility.yul\":10275:10289   */\n      swap1\n      pop\n        /* \"#utility.yul\":10119:10295   */\n      swap3\n      swap2\n      pop\n      pop\n      jump\t// out\n        /* \"#utility.yul\":10301:10495   */\n    tag_126:\n        /* \"#utility.yul\":10341:10345   */\n      0x00\n        /* \"#utility.yul\":10361:10381   */\n      tag_374\n        /* \"#utility.yul\":10379:10380   */\n      dup3\n        /* \"#utility.yul\":10361:10381   */\n      tag_233\n      jump\t// in\n    tag_374:\n        /* \"#utility.yul\":10356:10381   */\n      swap2\n      pop\n        /* \"#utility.yul\":10395:10415   */\n      tag_375\n        /* \"#utility.yul\":10413:10414   */\n      dup4\n        /* \"#utility.yul\":10395:10415   */\n      tag_233\n      jump\t// in\n    tag_375:\n        /* \"#utility.yul\":10390:10415   */\n      swap3\n      pop\n        /* \"#utility.yul\":10439:10440   */\n      dup3\n        /* \"#utility.yul\":10436:10437   */\n      dup3\n        /* \"#utility.yul\":10432:10441   */\n      sub\n        /* \"#utility.yul\":10424:10441   */\n      swap1\n      pop\n        /* \"#utility.yul\":10463:10464   */\n      dup2\n        /* \"#utility.yul\":10457:10461   */\n      dup2\n        /* \"#utility.yul\":10454:10465   */\n      gt\n        /* \"#utility.yul\":10451:10488   */\n      iszero\n      tag_376\n      jumpi\n        /* \"#utility.yul\":10468:10486   */\n      tag_377\n      tag_256\n      jump\t// in\n    tag_377:\n        /* \"#utility.yul\":10451:10488   */\n    tag_376:\n        /* \"#utility.yul\":10301:10495   */\n      swap3\n      swap2\n      pop\n      pop\n      jump\t// out\n        /* \"#utility.yul\":10501:10911   */\n    tag_160:\n        /* \"#utility.yul\":10541:10548   */\n      0x00\n        /* \"#utility.yul\":10564:10584   */\n      tag_379\n        /* \"#utility.yul\":10582:10583   */\n      dup3\n        /* \"#utility.yul\":10564:10584   */\n      tag_233\n      jump\t// in\n    tag_379:\n        /* \"#utility.yul\":10559:10584   */\n      swap2\n      pop\n        /* \"#utility.yul\":10598:10618   */\n      tag_380\n        /* \"#utility.yul\":10616:10617   */\n      dup4\n        /* \"#utility.yul\":10598:10618   */\n      tag_233\n      jump\t// in\n    tag_380:\n        /* \"#utility.yul\":10593:10618   */\n      swap3\n      pop\n        /* \"#utility.yul\":10653:10654   */\n      dup3\n        /* \"#utility.yul\":10650:10651   */\n      dup3\n        /* \"#utility.yul\":10646:10655   */\n      mul\n        /* \"#utility.yul\":10675:10705   */\n      tag_381\n        /* \"#utility.yul\":10693:10704   */\n      dup2\n        /* \"#utility.yul\":10675:10705   */\n      tag_233\n      jump\t// in\n    tag_381:\n        /* \"#utility.yul\":10664:10705   */\n      swap2\n      pop\n        /* \"#utility.yul\":10854:10855   */\n      dup3\n        /* \"#utility.yul\":10845:10852   */\n      dup3\n        /* \"#utility.yul\":10841:10856   */\n      div\n        /* \"#utility.yul\":10838:10839   */\n      dup5\n        /* \"#utility.yul\":10835:10857   */\n      eq\n        /* \"#utility.yul\":10815:10816   */\n      dup4\n        /* \"#utility.yul\":10808:10817   */\n      iszero\n        /* \"#utility.yul\":10788:10871   */\n      or\n        /* \"#utility.yul\":10765:10904   */\n      tag_382\n      jumpi\n        /* \"#utility.yul\":10884:10902   */\n      tag_383\n      tag_256\n      jump\t// in\n    tag_383:\n        /* \"#utility.yul\":10765:10904   */\n    tag_382:\n        /* \"#utility.yul\":10549:10911   */\n      pop\n        /* \"#utility.yul\":10501:10911   */\n      swap3\n      swap2\n      pop\n      pop\n      jump\t// out\n\n    auxdata: 0xa2646970667358221220f1c75ce2994bcdda8094a671b2c53a37011a1b2f027d051ba7ab2f4434e207f464736f6c63430008140033\n}\n",
				"bytecode": {
					"linkReferences": {},
					"object": "608060405234801561000f575f80fd5b506117cc8061001d5f395ff3fe608060405234801561000f575f80fd5b506004361061004a575f3560e01c80632fa61cd81461004e57806341161b101461007e5780635e36bdc6146100ae5780639eefefef146100de575b5f80fd5b610068600480360381019061006391906111fb565b61010e565b604051610075919061123e565b60405180910390f35b61009860048036038101906100939190611281565b610143565b6040516100a591906112d9565b60405180910390f35b6100c860048036038101906100c391906111fb565b61018b565b6040516100d5919061123e565b60405180910390f35b6100f860048036038101906100f39190611530565b61019f565b60405161010591906112d9565b60405180910390f35b5f60038260405160200161012291906115c5565b604051602081830303815290604052805190602001205f1c901c9050919050565b5f825f808473ffffffffffffffffffffffffffffffffffffffff1673ffffffffffffffffffffffffffffffffffffffff1681526020019081526020015f205414905092915050565b5f602052805f5260405f205f915090505481565b5f806101aa3361010e565b90505f61022d60405180608001604052807f0999e47227c47e8829b0d14b251feed7582d0f5357b304b06d4014ae6ab39f1e81526020017f0aabb7211172d31463c1127d4ba6942cb791c56d8234b5a0abfd1e81afd0d67781526020018481526020013373ffffffffffffffffffffffffffffffffffffffff168152508561028e565b5f149050801561028357815f803373ffffffffffffffffffffffffffffffffffffffff1673ffffffffffffffffffffffffffffffffffffffff1681526020019081526020015f2081905550600192505050610289565b5f925050505b919050565b5f807f30644e72e131a029b85045b68181585d2833e84879b9709143e1f593f000000190505f6102bc610413565b9050806080015151600160046102d2919061161e565b146102db575f80fd5b5f60405180604001604052805f81526020015f81525090505f5b6004811015610389578387826004811061031257610311611651565b5b602002015110610320575f80fd5b6103748261036f8560800151600185610339919061161e565b8151811061034a57610349611651565b5b60200260200101518a856004811061036557610364611651565b5b602002015161097c565b610a19565b915080806103819061167e565b9150506102f5565b506103b28183608001515f815181106103a5576103a4611651565b5b6020026020010151610a19565b90506103f6855f015186602001516103c984610adb565b85604001516103db8a60400151610adb565b87606001516103ec895f0151610adb565b8960200151610b79565b610406576001935050505061040d565b5f93505050505b92915050565b61041b611087565b60405180604001604052807f0284c469d8eaf677e29635e18886312bd0c6ba2a632674a2703a8d9a5d5a48db81526020017f19b4d4d74797c3307e59c683ccad9119397c90f76ad28c043ec9671a95502e76815250815f0181905250604051806040016040528060405180604001604052807f0319296206e25c6e7ea35492e825fcdbea39b0980b72f18b3f7385d6d46352b081526020017f10bc74487c379aad3a10da56c479ae5db4e4b3faeb354f4aa57ed4524a3e4527815250815260200160405180604001604052807f2971943778693059384530140201f76e29adf7a4222921b744f09045f2011e1d81526020017f21099f091b01503caab27b87ee9769840d27963846e35613d26190bc5c4d0cef8152508152508160200181905250604051806040016040528060405180604001604052807f2cd9c9e8f055f3663213f71c1c3f99c6b363b35f50e0fe2e8405d029deb1e29581526020017f0fdcd887987c8e156d574ee4e97cf66bf36e7a8539b8c4bd578ff7bced1a601c815250815260200160405180604001604052807f2d96d4c9dcf6ff4da92c433beb2749c86fff05bfd2d83c3da9a7d531903ec94281526020017f13fb1bdc1b558571d6ba4944428eeb52aa0d69378072aa64cf543d4189b8af788152508152508160400181905250604051806040016040528060405180604001604052807f122757890c3f43309334e26258842bb8e8ab0450d387ddf7bc20fc5e01619d9281526020017e593e12fef04367a7d771cc137c7a3f0f245584f4a40e44c6281ca51e610027815250815260200160405180604001604052807f11b21f2409f28092f35b9cd195ee93ee5d0e11aca3e1a432c007243e186dec7c81526020017f1bcf98b5bbd114064cf46447c90092bbf9384056f13c9487d8021f73d92ac4528152508152508160600181905250600567ffffffffffffffff8111156106e0576106df611306565b5b60405190808252806020026020018201604052801561071957816020015b6107066110ce565b8152602001906001900390816106fe5790505b50816080018190525060405180604001604052807f2fc73b5bbb85acbd703828a3df8ee04ef648832b3bbf2c9fd5bb51d4ab0ef98481526020017f197f3e6cf0bde2d74a7c29bbabe7ea80928b45b23478309ea671a2b973a7edf281525081608001515f8151811061078e5761078d611651565b5b602002602001018190525060405180604001604052807f1b723ed82a7478e39551e2ab9346eda38a1c000cdd5f8ade3ccf6685f9d37b1e81526020017f26ad983f9927d8414cddfe79a4eda6717a8e82a0e85450e7ca745cd15af62c77815250816080015160018151811061080657610805611651565b5b602002602001018190525060405180604001604052807f262988545555095a281b0c6ac183626fd44094e1cc230aa38a705030d69124f381526020017f1f248dcfb5baf7962c1c481b9d52110825710ace9b94ef387f78651cb9d3335b815250816080015160028151811061087e5761087d611651565b5b602002602001018190525060405180604001604052807f2b17ccfb2bf38f9ed35f4cb962b705028429e1e66679bff2d13a0f31049a2b3a81526020017f1abe95f952ab1cd0a71f61d4304c8e85a777cf5afcb1936b9113a6c8acf22c6881525081608001516003815181106108f6576108f5611651565b5b602002602001018190525060405180604001604052807f2d476a4fc5d6e7900b821ac91bc179164787f4c1532bd3b91facf951788f40af81526020017f2a45d903c16fe8f0d0a14b36ae3ff7252075a266a0c749d3215352f175c1c8f1815250816080015160048151811061096e5761096d611651565b5b602002602001018190525090565b6109846110ce565b61098c6110e6565b835f0151815f600381106109a3576109a2611651565b5b6020020181815250508360200151816001600381106109c5576109c4611651565b5b60200201818152505082816002600381106109e3576109e2611651565b5b6020020181815250505f60608360808460076107d05a03fa9050805f8103610a0757fe5b5080610a11575f80fd5b505092915050565b610a216110ce565b610a29611108565b835f0151815f60048110610a4057610a3f611651565b5b602002018181525050836020015181600160048110610a6257610a61611651565b5b602002018181525050825f015181600260048110610a8357610a82611651565b5b602002018181525050826020015181600360048110610aa557610aa4611651565b5b6020020181815250505f60608360c08460066107d05a03fa9050805f8103610ac957fe5b5080610ad3575f80fd5b505092915050565b610ae36110ce565b5f7f30644e72e131a029b85045b68181585d97816a916871ca8d3c208c16d87cfd4790505f835f0151148015610b1c57505f8360200151145b15610b3e5760405180604001604052805f81526020015f815250915050610b74565b6040518060400160405280845f01518152602001828560200151610b6291906116f2565b83610b6d9190611722565b8152509150505b919050565b5f80600467ffffffffffffffff811115610b9657610b95611306565b5b604051908082528060200260200182016040528015610bcf57816020015b610bbc6110ce565b815260200190600190039081610bb45790505b5090505f600467ffffffffffffffff811115610bee57610bed611306565b5b604051908082528060200260200182016040528015610c2757816020015b610c1461112a565b815260200190600190039081610c0c5790505b5090508a825f81518110610c3e57610c3d611651565b5b60200260200101819052508882600181518110610c5e57610c5d611651565b5b60200260200101819052508682600281518110610c7e57610c7d611651565b5b60200260200101819052508482600381518110610c9e57610c9d611651565b5b602002602001018190525089815f81518110610cbd57610cbc611651565b5b60200260200101819052508781600181518110610cdd57610cdc611651565b5b60200260200101819052508581600281518110610cfd57610cfc611651565b5b60200260200101819052508381600381518110610d1d57610d1c611651565b5b6020026020010181905250610d328282610d42565b9250505098975050505050505050565b5f8151835114610d50575f80fd5b5f835190505f600682610d639190611755565b90505f8167ffffffffffffffff811115610d8057610d7f611306565b5b604051908082528060200260200182016040528015610dae5781602001602082028036833780820191505090505b5090505f5b8381101561102c57868181518110610dce57610dcd611651565b5b60200260200101515f0151825f600684610de89190611755565b610df2919061161e565b81518110610e0357610e02611651565b5b602002602001018181525050868181518110610e2257610e21611651565b5b602002602001015160200151826001600684610e3e9190611755565b610e48919061161e565b81518110610e5957610e58611651565b5b602002602001018181525050858181518110610e7857610e77611651565b5b60200260200101515f0151600160028110610e9657610e95611651565b5b6020020151826002600684610eab9190611755565b610eb5919061161e565b81518110610ec657610ec5611651565b5b602002602001018181525050858181518110610ee557610ee4611651565b5b60200260200101515f01515f60028110610f0257610f01611651565b5b6020020151826003600684610f179190611755565b610f21919061161e565b81518110610f3257610f31611651565b5b602002602001018181525050858181518110610f5157610f50611651565b5b602002602001015160200151600160028110610f7057610f6f611651565b5b6020020151826004600684610f859190611755565b610f8f919061161e565b81518110610fa057610f9f611651565b5b602002602001018181525050858181518110610fbf57610fbe611651565b5b6020026020010151602001515f60028110610fdd57610fdc611651565b5b6020020151826005600684610ff29190611755565b610ffc919061161e565b8151811061100d5761100c611651565b5b60200260200101818152505080806110249061167e565b915050610db3565b50611035611150565b5f602082602086026020860160086107d05a03fa9050805f810361105557fe5b508061105f575f80fd5b5f825f6001811061107357611072611651565b5b602002015114159550505050505092915050565b6040518060a0016040528061109a6110ce565b81526020016110a761112a565b81526020016110b461112a565b81526020016110c161112a565b8152602001606081525090565b60405180604001604052805f81526020015f81525090565b6040518060600160405280600390602082028036833780820191505090505090565b6040518060800160405280600490602082028036833780820191505090505090565b604051806040016040528061113d611172565b815260200161114a611172565b81525090565b6040518060200160405280600190602082028036833780820191505090505090565b6040518060400160405280600290602082028036833780820191505090505090565b5f604051905090565b5f80fd5b5f73ffffffffffffffffffffffffffffffffffffffff82169050919050565b5f6111ca826111a1565b9050919050565b6111da816111c0565b81146111e4575f80fd5b50565b5f813590506111f5816111d1565b92915050565b5f602082840312156112105761120f61119d565b5b5f61121d848285016111e7565b91505092915050565b5f819050919050565b61123881611226565b82525050565b5f6020820190506112515f83018461122f565b92915050565b61126081611226565b811461126a575f80fd5b50565b5f8135905061127b81611257565b92915050565b5f80604083850312156112975761129661119d565b5b5f6112a48582860161126d565b92505060206112b58582860161126d565b9150509250929050565b5f8115159050919050565b6112d3816112bf565b82525050565b5f6020820190506112ec5f8301846112ca565b92915050565b5f80fd5b5f601f19601f8301169050919050565b7f4e487b71000000000000000000000000000000000000000000000000000000005f52604160045260245ffd5b61133c826112f6565b810181811067ffffffffffffffff8211171561135b5761135a611306565b5b80604052505050565b5f61136d611194565b90506113798282611333565b919050565b5f60408284031215611393576113926112f2565b5b61139d6040611364565b90505f6113ac8482850161126d565b5f8301525060206113bf8482850161126d565b60208301525092915050565b5f80fd5b5f67ffffffffffffffff8211156113e9576113e8611306565b5b602082029050919050565b5f80fd5b5f61140a611405846113cf565b611364565b90508060208402830185811115611424576114236113f4565b5b835b8181101561144d5780611439888261126d565b845260208401935050602081019050611426565b5050509392505050565b5f82601f83011261146b5761146a6113cb565b5b60026114788482856113f8565b91505092915050565b5f60808284031215611496576114956112f2565b5b6114a06040611364565b90505f6114af84828501611457565b5f8301525060406114c284828501611457565b60208301525092915050565b5f61010082840312156114e4576114e36112f2565b5b6114ee6060611364565b90505f6114fd8482850161137e565b5f83015250604061151084828501611481565b60208301525060c06115248482850161137e565b60408301525092915050565b5f61010082840312156115465761154561119d565b5b5f611553848285016114ce565b91505092915050565b5f82825260208201905092915050565b7f426162792069742773206d652c200000000000000000000000000000000000005f82015250565b5f6115a0600e8361155c565b91506115ab8261156c565b602082019050919050565b6115bf816111c0565b82525050565b5f6040820190508181035f8301526115dc81611594565b90506115eb60208301846115b6565b92915050565b7f4e487b71000000000000000000000000000000000000000000000000000000005f52601160045260245ffd5b5f61162882611226565b915061163383611226565b925082820190508082111561164b5761164a6115f1565b5b92915050565b7f4e487b71000000000000000000000000000000000000000000000000000000005f52603260045260245ffd5b5f61168882611226565b91507fffffffffffffffffffffffffffffffffffffffffffffffffffffffffffffffff82036116ba576116b96115f1565b5b600182019050919050565b7f4e487b71000000000000000000000000000000000000000000000000000000005f52601260045260245ffd5b5f6116fc82611226565b915061170783611226565b925082611717576117166116c5565b5b828206905092915050565b5f61172c82611226565b915061173783611226565b925082820390508181111561174f5761174e6115f1565b5b92915050565b5f61175f82611226565b915061176a83611226565b925082820261177881611226565b9150828204841483151761178f5761178e6115f1565b5b509291505056fea2646970667358221220f1c75ce2994bcdda8094a671b2c53a37011a1b2f027d051ba7ab2f4434e207f464736f6c63430008140033",
					"opcodes": "PUSH1 0x80 PUSH1 0x40 MSTORE CALLVALUE DUP1 ISZERO PUSH2 0xF JUMPI PUSH0 DUP1 REVERT JUMPDEST POP PUSH2 0x17CC DUP1 PUSH2 0x1D PUSH0 CODECOPY PUSH0 RETURN INVALID PUSH1 0x80 PUSH1 0x40 MSTORE CALLVALUE DUP1 ISZERO PUSH2 0xF JUMPI PUSH0 DUP1 REVERT JUMPDEST POP PUSH1 0x4 CALLDATASIZE LT PUSH2 0x4A JUMPI PUSH0 CALLDATALOAD PUSH1 0xE0 SHR DUP1 PUSH4 0x2FA61CD8 EQ PUSH2 0x4E JUMPI DUP1 PUSH4 0x41161B10 EQ PUSH2 0x7E JUMPI DUP1 PUSH4 0x5E36BDC6 EQ PUSH2 0xAE JUMPI DUP1 PUSH4 0x9EEFEFEF EQ PUSH2 0xDE JUMPI JUMPDEST PUSH0 DUP1 REVERT JUMPDEST PUSH2 0x68 PUSH1 0x4 DUP1 CALLDATASIZE SUB DUP2 ADD SWAP1 PUSH2 0x63 SWAP2 SWAP1 PUSH2 0x11FB JUMP JUMPDEST PUSH2 0x10E JUMP JUMPDEST PUSH1 0x40 MLOAD PUSH2 0x75 SWAP2 SWAP1 PUSH2 0x123E JUMP JUMPDEST PUSH1 0x40 MLOAD DUP1 SWAP2 SUB SWAP1 RETURN JUMPDEST PUSH2 0x98 PUSH1 0x4 DUP1 CALLDATASIZE SUB DUP2 ADD SWAP1 PUSH2 0x93 SWAP2 SWAP1 PUSH2 0x1281 JUMP JUMPDEST PUSH2 0x143 JUMP JUMPDEST PUSH1 0x40 MLOAD PUSH2 0xA5 SWAP2 SWAP1 PUSH2 0x12D9 JUMP JUMPDEST PUSH1 0x40 MLOAD DUP1 SWAP2 SUB SWAP1 RETURN JUMPDEST PUSH2 0xC8 PUSH1 0x4 DUP1 CALLDATASIZE SUB DUP2 ADD SWAP1 PUSH2 0xC3 SWAP2 SWAP1 PUSH2 0x11FB JUMP JUMPDEST PUSH2 0x18B JUMP JUMPDEST PUSH1 0x40 MLOAD PUSH2 0xD5 SWAP2 SWAP1 PUSH2 0x123E JUMP JUMPDEST PUSH1 0x40 MLOAD DUP1 SWAP2 SUB SWAP1 RETURN JUMPDEST PUSH2 0xF8 PUSH1 0x4 DUP1 CALLDATASIZE SUB DUP2 ADD SWAP1 PUSH2 0xF3 SWAP2 SWAP1 PUSH2 0x1530 JUMP JUMPDEST PUSH2 0x19F JUMP JUMPDEST PUSH1 0x40 MLOAD PUSH2 0x105 SWAP2 SWAP1 PUSH2 0x12D9 JUMP JUMPDEST PUSH1 0x40 MLOAD DUP1 SWAP2 SUB SWAP1 RETURN JUMPDEST PUSH0 PUSH1 0x3 DUP3 PUSH1 0x40 MLOAD PUSH1 0x20 ADD PUSH2 0x122 SWAP2 SWAP1 PUSH2 0x15C5 JUMP JUMPDEST PUSH1 0x40 MLOAD PUSH1 0x20 DUP2 DUP4 SUB SUB DUP2 MSTORE SWAP1 PUSH1 0x40 MSTORE DUP1 MLOAD SWAP1 PUSH1 0x20 ADD KECCAK256 PUSH0 SHR SWAP1 SHR SWAP1 POP SWAP2 SWAP1 POP JUMP JUMPDEST PUSH0 DUP3 PUSH0 DUP1 DUP5 PUSH20 0xFFFFFFFFFFFFFFFFFFFFFFFFFFFFFFFFFFFFFFFF AND PUSH20 0xFFFFFFFFFFFFFFFFFFFFFFFFFFFFFFFFFFFFFFFF AND DUP2 MSTORE PUSH1 0x20 ADD SWAP1 DUP2 MSTORE PUSH1 0x20 ADD PUSH0 KECCAK256 SLOAD EQ SWAP1 POP SWAP3 SWAP2 POP POP JUMP JUMPDEST PUSH0 PUSH1 0x20 MSTORE DUP1 PUSH0 MSTORE PUSH1 0x40 PUSH0 KECCAK256 PUSH0 SWAP2 POP SWAP1 POP SLOAD DUP2 JUMP JUMPDEST PUSH0 DUP1 PUSH2 0x1AA CALLER PUSH2 0x10E JUMP JUMPDEST SWAP1 POP PUSH0 PUSH2 0x22D PUSH1 0x40 MLOAD DUP1 PUSH1 0x80 ADD PUSH1 0x40 MSTORE DUP1 PUSH32 0x999E47227C47E8829B0D14B251FEED7582D0F5357B304B06D4014AE6AB39F1E DUP2 MSTORE PUSH1 0x20 ADD PUSH32 0xAABB7211172D31463C1127D4BA6942CB791C56D8234B5A0ABFD1E81AFD0D677 DUP2 MSTORE PUSH1 0x20 ADD DUP5 DUP2 MSTORE PUSH1 0x20 ADD CALLER PUSH20 0xFFFFFFFFFFFFFFFFFFFFFFFFFFFFFFFFFFFFFFFF AND DUP2 MSTORE POP DUP6 PUSH2 0x28E JUMP JUMPDEST PUSH0 EQ SWAP1 POP DUP1 ISZERO PUSH2 0x283 JUMPI DUP2 PUSH0 DUP1 CALLER PUSH20 0xFFFFFFFFFFFFFFFFFFFFFFFFFFFFFFFFFFFFFFFF AND PUSH20 0xFFFFFFFFFFFFFFFFFFFFFFFFFFFFFFFFFFFFFFFF AND DUP2 MSTORE PUSH1 0x20 ADD SWAP1 DUP2 MSTORE PUSH1 0x20 ADD PUSH0 KECCAK256 DUP2 SWAP1 SSTORE POP PUSH1 0x1 SWAP3 POP POP POP PUSH2 0x289 JUMP JUMPDEST PUSH0 SWAP3 POP POP POP JUMPDEST SWAP2 SWAP1 POP JUMP JUMPDEST PUSH0 DUP1 PUSH32 0x30644E72E131A029B85045B68181585D2833E84879B9709143E1F593F0000001 SWAP1 POP PUSH0 PUSH2 0x2BC PUSH2 0x413 JUMP JUMPDEST SWAP1 POP DUP1 PUSH1 0x80 ADD MLOAD MLOAD PUSH1 0x1 PUSH1 0x4 PUSH2 0x2D2 SWAP2 SWAP1 PUSH2 0x161E JUMP JUMPDEST EQ PUSH2 0x2DB JUMPI PUSH0 DUP1 REVERT JUMPDEST PUSH0 PUSH1 0x40 MLOAD DUP1 PUSH1 0x40 ADD PUSH1 0x40 MSTORE DUP1 PUSH0 DUP2 MSTORE PUSH1 0x20 ADD PUSH0 DUP2 MSTORE POP SWAP1 POP PUSH0 JUMPDEST PUSH1 0x4 DUP2 LT ISZERO PUSH2 0x389 JUMPI DUP4 DUP8 DUP3 PUSH1 0x4 DUP2 LT PUSH2 0x312 JUMPI PUSH2 0x311 PUSH2 0x1651 JUMP JUMPDEST JUMPDEST PUSH1 0x20 MUL ADD MLOAD LT PUSH2 0x320 JUMPI PUSH0 DUP1 REVERT JUMPDEST PUSH2 0x374 DUP3 PUSH2 0x36F DUP6 PUSH1 0x80 ADD MLOAD PUSH1 0x1 DUP6 PUSH2 0x339 SWAP2 SWAP1 PUSH2 0x161E JUMP JUMPDEST DUP2 MLOAD DUP2 LT PUSH2 0x34A JUMPI PUSH2 0x349 PUSH2 0x1651 JUMP JUMPDEST JUMPDEST PUSH1 0x20 MUL PUSH1 0x20 ADD ADD MLOAD DUP11 DUP6 PUSH1 0x4 DUP2 LT PUSH2 0x365 JUMPI PUSH2 0x364 PUSH2 0x1651 JUMP JUMPDEST JUMPDEST PUSH1 0x20 MUL ADD MLOAD PUSH2 0x97C JUMP JUMPDEST PUSH2 0xA19 JUMP JUMPDEST SWAP2 POP DUP1 DUP1 PUSH2 0x381 SWAP1 PUSH2 0x167E JUMP JUMPDEST SWAP2 POP POP PUSH2 0x2F5 JUMP JUMPDEST POP PUSH2 0x3B2 DUP2 DUP4 PUSH1 0x80 ADD MLOAD PUSH0 DUP2 MLOAD DUP2 LT PUSH2 0x3A5 JUMPI PUSH2 0x3A4 PUSH2 0x1651 JUMP JUMPDEST JUMPDEST PUSH1 0x20 MUL PUSH1 0x20 ADD ADD MLOAD PUSH2 0xA19 JUMP JUMPDEST SWAP1 POP PUSH2 0x3F6 DUP6 PUSH0 ADD MLOAD DUP7 PUSH1 0x20 ADD MLOAD PUSH2 0x3C9 DUP5 PUSH2 0xADB JUMP JUMPDEST DUP6 PUSH1 0x40 ADD MLOAD PUSH2 0x3DB DUP11 PUSH1 0x40 ADD MLOAD PUSH2 0xADB JUMP JUMPDEST DUP8 PUSH1 0x60 ADD MLOAD PUSH2 0x3EC DUP10 PUSH0 ADD MLOAD PUSH2 0xADB JUMP JUMPDEST DUP10 PUSH1 0x20 ADD MLOAD PUSH2 0xB79 JUMP JUMPDEST PUSH2 0x406 JUMPI PUSH1 0x1 SWAP4 POP POP POP POP PUSH2 0x40D JUMP JUMPDEST PUSH0 SWAP4 POP POP POP POP JUMPDEST SWAP3 SWAP2 POP POP JUMP JUMPDEST PUSH2 0x41B PUSH2 0x1087 JUMP JUMPDEST PUSH1 0x40 MLOAD DUP1 PUSH1 0x40 ADD PUSH1 0x40 MSTORE DUP1 PUSH32 0x284C469D8EAF677E29635E18886312BD0C6BA2A632674A2703A8D9A5D5A48DB DUP2 MSTORE PUSH1 0x20 ADD PUSH32 0x19B4D4D74797C3307E59C683CCAD9119397C90F76AD28C043EC9671A95502E76 DUP2 MSTORE POP DUP2 PUSH0 ADD DUP2 SWAP1 MSTORE POP PUSH1 0x40 MLOAD DUP1 PUSH1 0x40 ADD PUSH1 0x40 MSTORE DUP1 PUSH1 0x40 MLOAD DUP1 PUSH1 0x40 ADD PUSH1 0x40 MSTORE DUP1 PUSH32 0x319296206E25C6E7EA35492E825FCDBEA39B0980B72F18B3F7385D6D46352B0 DUP2 MSTORE PUSH1 0x20 ADD PUSH32 0x10BC74487C379AAD3A10DA56C479AE5DB4E4B3FAEB354F4AA57ED4524A3E4527 DUP2 MSTORE POP DUP2 MSTORE PUSH1 0x20 ADD PUSH1 0x40 MLOAD DUP1 PUSH1 0x40 ADD PUSH1 0x40 MSTORE DUP1 PUSH32 0x2971943778693059384530140201F76E29ADF7A4222921B744F09045F2011E1D DUP2 MSTORE PUSH1 0x20 ADD PUSH32 0x21099F091B01503CAAB27B87EE9769840D27963846E35613D26190BC5C4D0CEF DUP2 MSTORE POP DUP2 MSTORE POP DUP2 PUSH1 0x20 ADD DUP2 SWAP1 MSTORE POP PUSH1 0x40 MLOAD DUP1 PUSH1 0x40 ADD PUSH1 0x40 MSTORE DUP1 PUSH1 0x40 MLOAD DUP1 PUSH1 0x40 ADD PUSH1 0x40 MSTORE DUP1 PUSH32 0x2CD9C9E8F055F3663213F71C1C3F99C6B363B35F50E0FE2E8405D029DEB1E295 DUP2 MSTORE PUSH1 0x20 ADD PUSH32 0xFDCD887987C8E156D574EE4E97CF66BF36E7A8539B8C4BD578FF7BCED1A601C DUP2 MSTORE POP DUP2 MSTORE PUSH1 0x20 ADD PUSH1 0x40 MLOAD DUP1 PUSH1 0x40 ADD PUSH1 0x40 MSTORE DUP1 PUSH32 0x2D96D4C9DCF6FF4DA92C433BEB2749C86FFF05BFD2D83C3DA9A7D531903EC942 DUP2 MSTORE PUSH1 0x20 ADD PUSH32 0x13FB1BDC1B558571D6BA4944428EEB52AA0D69378072AA64CF543D4189B8AF78 DUP2 MSTORE POP DUP2 MSTORE POP DUP2 PUSH1 0x40 ADD DUP2 SWAP1 MSTORE POP PUSH1 0x40 MLOAD DUP1 PUSH1 0x40 ADD PUSH1 0x40 MSTORE DUP1 PUSH1 0x40 MLOAD DUP1 PUSH1 0x40 ADD PUSH1 0x40 MSTORE DUP1 PUSH32 0x122757890C3F43309334E26258842BB8E8AB0450D387DDF7BC20FC5E01619D92 DUP2 MSTORE PUSH1 0x20 ADD PUSH31 0x593E12FEF04367A7D771CC137C7A3F0F245584F4A40E44C6281CA51E610027 DUP2 MSTORE POP DUP2 MSTORE PUSH1 0x20 ADD PUSH1 0x40 MLOAD DUP1 PUSH1 0x40 ADD PUSH1 0x40 MSTORE DUP1 PUSH32 0x11B21F2409F28092F35B9CD195EE93EE5D0E11ACA3E1A432C007243E186DEC7C DUP2 MSTORE PUSH1 0x20 ADD PUSH32 0x1BCF98B5BBD114064CF46447C90092BBF9384056F13C9487D8021F73D92AC452 DUP2 MSTORE POP DUP2 MSTORE POP DUP2 PUSH1 0x60 ADD DUP2 SWAP1 MSTORE POP PUSH1 0x5 PUSH8 0xFFFFFFFFFFFFFFFF DUP2 GT ISZERO PUSH2 0x6E0 JUMPI PUSH2 0x6DF PUSH2 0x1306 JUMP JUMPDEST JUMPDEST PUSH1 0x40 MLOAD SWAP1 DUP1 DUP3 MSTORE DUP1 PUSH1 0x20 MUL PUSH1 0x20 ADD DUP3 ADD PUSH1 0x40 MSTORE DUP1 ISZERO PUSH2 0x719 JUMPI DUP2 PUSH1 0x20 ADD JUMPDEST PUSH2 0x706 PUSH2 0x10CE JUMP JUMPDEST DUP2 MSTORE PUSH1 0x20 ADD SWAP1 PUSH1 0x1 SWAP1 SUB SWAP1 DUP2 PUSH2 0x6FE JUMPI SWAP1 POP JUMPDEST POP DUP2 PUSH1 0x80 ADD DUP2 SWAP1 MSTORE POP PUSH1 0x40 MLOAD DUP1 PUSH1 0x40 ADD PUSH1 0x40 MSTORE DUP1 PUSH32 0x2FC73B5BBB85ACBD703828A3DF8EE04EF648832B3BBF2C9FD5BB51D4AB0EF984 DUP2 MSTORE PUSH1 0x20 ADD PUSH32 0x197F3E6CF0BDE2D74A7C29BBABE7EA80928B45B23478309EA671A2B973A7EDF2 DUP2 MSTORE POP DUP2 PUSH1 0x80 ADD MLOAD PUSH0 DUP2 MLOAD DUP2 LT PUSH2 0x78E JUMPI PUSH2 0x78D PUSH2 0x1651 JUMP JUMPDEST JUMPDEST PUSH1 0x20 MUL PUSH1 0x20 ADD ADD DUP2 SWAP1 MSTORE POP PUSH1 0x40 MLOAD DUP1 PUSH1 0x40 ADD PUSH1 0x40 MSTORE DUP1 PUSH32 0x1B723ED82A7478E39551E2AB9346EDA38A1C000CDD5F8ADE3CCF6685F9D37B1E DUP2 MSTORE PUSH1 0x20 ADD PUSH32 0x26AD983F9927D8414CDDFE79A4EDA6717A8E82A0E85450E7CA745CD15AF62C77 DUP2 MSTORE POP DUP2 PUSH1 0x80 ADD MLOAD PUSH1 0x1 DUP2 MLOAD DUP2 LT PUSH2 0x806 JUMPI PUSH2 0x805 PUSH2 0x1651 JUMP JUMPDEST JUMPDEST PUSH1 0x20 MUL PUSH1 0x20 ADD ADD DUP2 SWAP1 MSTORE POP PUSH1 0x40 MLOAD DUP1 PUSH1 0x40 ADD PUSH1 0x40 MSTORE DUP1 PUSH32 0x262988545555095A281B0C6AC183626FD44094E1CC230AA38A705030D69124F3 DUP2 MSTORE PUSH1 0x20 ADD PUSH32 0x1F248DCFB5BAF7962C1C481B9D52110825710ACE9B94EF387F78651CB9D3335B DUP2 MSTORE POP DUP2 PUSH1 0x80 ADD MLOAD PUSH1 0x2 DUP2 MLOAD DUP2 LT PUSH2 0x87E JUMPI PUSH2 0x87D PUSH2 0x1651 JUMP JUMPDEST JUMPDEST PUSH1 0x20 MUL PUSH1 0x20 ADD ADD DUP2 SWAP1 MSTORE POP PUSH1 0x40 MLOAD DUP1 PUSH1 0x40 ADD PUSH1 0x40 MSTORE DUP1 PUSH32 0x2B17CCFB2BF38F9ED35F4CB962B705028429E1E66679BFF2D13A0F31049A2B3A DUP2 MSTORE PUSH1 0x20 ADD PUSH32 0x1ABE95F952AB1CD0A71F61D4304C8E85A777CF5AFCB1936B9113A6C8ACF22C68 DUP2 MSTORE POP DUP2 PUSH1 0x80 ADD MLOAD PUSH1 0x3 DUP2 MLOAD DUP2 LT PUSH2 0x8F6 JUMPI PUSH2 0x8F5 PUSH2 0x1651 JUMP JUMPDEST JUMPDEST PUSH1 0x20 MUL PUSH1 0x20 ADD ADD DUP2 SWAP1 MSTORE POP PUSH1 0x40 MLOAD DUP1 PUSH1 0x40 ADD PUSH1 0x40 MSTORE DUP1 PUSH32 0x2D476A4FC5D6E7900B821AC91BC179164787F4C1532BD3B91FACF951788F40AF DUP2 MSTORE PUSH1 0x20 ADD PUSH32 0x2A45D903C16FE8F0D0A14B36AE3FF7252075A266A0C749D3215352F175C1C8F1 DUP2 MSTORE POP DUP2 PUSH1 0x80 ADD MLOAD PUSH1 0x4 DUP2 MLOAD DUP2 LT PUSH2 0x96E JUMPI PUSH2 0x96D PUSH2 0x1651 JUMP JUMPDEST JUMPDEST PUSH1 0x20 MUL PUSH1 0x20 ADD ADD DUP2 SWAP1 MSTORE POP SWAP1 JUMP JUMPDEST PUSH2 0x984 PUSH2 0x10CE JUMP JUMPDEST PUSH2 0x98C PUSH2 0x10E6 JUMP JUMPDEST DUP4 PUSH0 ADD MLOAD DUP2 PUSH0 PUSH1 0x3 DUP2 LT PUSH2 0x9A3 JUMPI PUSH2 0x9A2 PUSH2 0x1651 JUMP JUMPDEST JUMPDEST PUSH1 0x20 MUL ADD DUP2 DUP2 MSTORE POP POP DUP4 PUSH1 0x20 ADD MLOAD DUP2 PUSH1 0x1 PUSH1 0x3 DUP2 LT PUSH2 0x9C5 JUMPI PUSH2 0x9C4 PUSH2 0x1651 JUMP JUMPDEST JUMPDEST PUSH1 0x20 MUL ADD DUP2 DUP2 MSTORE POP POP DUP3 DUP2 PUSH1 0x2 PUSH1 0x3 DUP2 LT PUSH2 0x9E3 JUMPI PUSH2 0x9E2 PUSH2 0x1651 JUMP JUMPDEST JUMPDEST PUSH1 0x20 MUL ADD DUP2 DUP2 MSTORE POP POP PUSH0 PUSH1 0x60 DUP4 PUSH1 0x80 DUP5 PUSH1 0x7 PUSH2 0x7D0 GAS SUB STATICCALL SWAP1 POP DUP1 PUSH0 DUP2 SUB PUSH2 0xA07 JUMPI INVALID JUMPDEST POP DUP1 PUSH2 0xA11 JUMPI PUSH0 DUP1 REVERT JUMPDEST POP POP SWAP3 SWAP2 POP POP JUMP JUMPDEST PUSH2 0xA21 PUSH2 0x10CE JUMP JUMPDEST PUSH2 0xA29 PUSH2 0x1108 JUMP JUMPDEST DUP4 PUSH0 ADD MLOAD DUP2 PUSH0 PUSH1 0x4 DUP2 LT PUSH2 0xA40 JUMPI PUSH2 0xA3F PUSH2 0x1651 JUMP JUMPDEST JUMPDEST PUSH1 0x20 MUL ADD DUP2 DUP2 MSTORE POP POP DUP4 PUSH1 0x20 ADD MLOAD DUP2 PUSH1 0x1 PUSH1 0x4 DUP2 LT PUSH2 0xA62 JUMPI PUSH2 0xA61 PUSH2 0x1651 JUMP JUMPDEST JUMPDEST PUSH1 0x20 MUL ADD DUP2 DUP2 MSTORE POP POP DUP3 PUSH0 ADD MLOAD DUP2 PUSH1 0x2 PUSH1 0x4 DUP2 LT PUSH2 0xA83 JUMPI PUSH2 0xA82 PUSH2 0x1651 JUMP JUMPDEST JUMPDEST PUSH1 0x20 MUL ADD DUP2 DUP2 MSTORE POP POP DUP3 PUSH1 0x20 ADD MLOAD DUP2 PUSH1 0x3 PUSH1 0x4 DUP2 LT PUSH2 0xAA5 JUMPI PUSH2 0xAA4 PUSH2 0x1651 JUMP JUMPDEST JUMPDEST PUSH1 0x20 MUL ADD DUP2 DUP2 MSTORE POP POP PUSH0 PUSH1 0x60 DUP4 PUSH1 0xC0 DUP5 PUSH1 0x6 PUSH2 0x7D0 GAS SUB STATICCALL SWAP1 POP DUP1 PUSH0 DUP2 SUB PUSH2 0xAC9 JUMPI INVALID JUMPDEST POP DUP1 PUSH2 0xAD3 JUMPI PUSH0 DUP1 REVERT JUMPDEST POP POP SWAP3 SWAP2 POP POP JUMP JUMPDEST PUSH2 0xAE3 PUSH2 0x10CE JUMP JUMPDEST PUSH0 PUSH32 0x30644E72E131A029B85045B68181585D97816A916871CA8D3C208C16D87CFD47 SWAP1 POP PUSH0 DUP4 PUSH0 ADD MLOAD EQ DUP1 ISZERO PUSH2 0xB1C JUMPI POP PUSH0 DUP4 PUSH1 0x20 ADD MLOAD EQ JUMPDEST ISZERO PUSH2 0xB3E JUMPI PUSH1 0x40 MLOAD DUP1 PUSH1 0x40 ADD PUSH1 0x40 MSTORE DUP1 PUSH0 DUP2 MSTORE PUSH1 0x20 ADD PUSH0 DUP2 MSTORE POP SWAP2 POP POP PUSH2 0xB74 JUMP JUMPDEST PUSH1 0x40 MLOAD DUP1 PUSH1 0x40 ADD PUSH1 0x40 MSTORE DUP1 DUP5 PUSH0 ADD MLOAD DUP2 MSTORE PUSH1 0x20 ADD DUP3 DUP6 PUSH1 0x20 ADD MLOAD PUSH2 0xB62 SWAP2 SWAP1 PUSH2 0x16F2 JUMP JUMPDEST DUP4 PUSH2 0xB6D SWAP2 SWAP1 PUSH2 0x1722 JUMP JUMPDEST DUP2 MSTORE POP SWAP2 POP POP JUMPDEST SWAP2 SWAP1 POP JUMP JUMPDEST PUSH0 DUP1 PUSH1 0x4 PUSH8 0xFFFFFFFFFFFFFFFF DUP2 GT ISZERO PUSH2 0xB96 JUMPI PUSH2 0xB95 PUSH2 0x1306 JUMP JUMPDEST JUMPDEST PUSH1 0x40 MLOAD SWAP1 DUP1 DUP3 MSTORE DUP1 PUSH1 0x20 MUL PUSH1 0x20 ADD DUP3 ADD PUSH1 0x40 MSTORE DUP1 ISZERO PUSH2 0xBCF JUMPI DUP2 PUSH1 0x20 ADD JUMPDEST PUSH2 0xBBC PUSH2 0x10CE JUMP JUMPDEST DUP2 MSTORE PUSH1 0x20 ADD SWAP1 PUSH1 0x1 SWAP1 SUB SWAP1 DUP2 PUSH2 0xBB4 JUMPI SWAP1 POP JUMPDEST POP SWAP1 POP PUSH0 PUSH1 0x4 PUSH8 0xFFFFFFFFFFFFFFFF DUP2 GT ISZERO PUSH2 0xBEE JUMPI PUSH2 0xBED PUSH2 0x1306 JUMP JUMPDEST JUMPDEST PUSH1 0x40 MLOAD SWAP1 DUP1 DUP3 MSTORE DUP1 PUSH1 0x20 MUL PUSH1 0x20 ADD DUP3 ADD PUSH1 0x40 MSTORE DUP1 ISZERO PUSH2 0xC27 JUMPI DUP2 PUSH1 0x20 ADD JUMPDEST PUSH2 0xC14 PUSH2 0x112A JUMP JUMPDEST DUP2 MSTORE PUSH1 0x20 ADD SWAP1 PUSH1 0x1 SWAP1 SUB SWAP1 DUP2 PUSH2 0xC0C JUMPI SWAP1 POP JUMPDEST POP SWAP1 POP DUP11 DUP3 PUSH0 DUP2 MLOAD DUP2 LT PUSH2 0xC3E JUMPI PUSH2 0xC3D PUSH2 0x1651 JUMP JUMPDEST JUMPDEST PUSH1 0x20 MUL PUSH1 0x20 ADD ADD DUP2 SWAP1 MSTORE POP DUP9 DUP3 PUSH1 0x1 DUP2 MLOAD DUP2 LT PUSH2 0xC5E JUMPI PUSH2 0xC5D PUSH2 0x1651 JUMP JUMPDEST JUMPDEST PUSH1 0x20 MUL PUSH1 0x20 ADD ADD DUP2 SWAP1 MSTORE POP DUP7 DUP3 PUSH1 0x2 DUP2 MLOAD DUP2 LT PUSH2 0xC7E JUMPI PUSH2 0xC7D PUSH2 0x1651 JUMP JUMPDEST JUMPDEST PUSH1 0x20 MUL PUSH1 0x20 ADD ADD DUP2 SWAP1 MSTORE POP DUP5 DUP3 PUSH1 0x3 DUP2 MLOAD DUP2 LT PUSH2 0xC9E JUMPI PUSH2 0xC9D PUSH2 0x1651 JUMP JUMPDEST JUMPDEST PUSH1 0x20 MUL PUSH1 0x20 ADD ADD DUP2 SWAP1 MSTORE POP DUP10 DUP2 PUSH0 DUP2 MLOAD DUP2 LT PUSH2 0xCBD JUMPI PUSH2 0xCBC PUSH2 0x1651 JUMP JUMPDEST JUMPDEST PUSH1 0x20 MUL PUSH1 0x20 ADD ADD DUP2 SWAP1 MSTORE POP DUP8 DUP2 PUSH1 0x1 DUP2 MLOAD DUP2 LT PUSH2 0xCDD JUMPI PUSH2 0xCDC PUSH2 0x1651 JUMP JUMPDEST JUMPDEST PUSH1 0x20 MUL PUSH1 0x20 ADD ADD DUP2 SWAP1 MSTORE POP DUP6 DUP2 PUSH1 0x2 DUP2 MLOAD DUP2 LT PUSH2 0xCFD JUMPI PUSH2 0xCFC PUSH2 0x1651 JUMP JUMPDEST JUMPDEST PUSH1 0x20 MUL PUSH1 0x20 ADD ADD DUP2 SWAP1 MSTORE POP DUP4 DUP2 PUSH1 0x3 DUP2 MLOAD DUP2 LT PUSH2 0xD1D JUMPI PUSH2 0xD1C PUSH2 0x1651 JUMP JUMPDEST JUMPDEST PUSH1 0x20 MUL PUSH1 0x20 ADD ADD DUP2 SWAP1 MSTORE POP PUSH2 0xD32 DUP3 DUP3 PUSH2 0xD42 JUMP JUMPDEST SWAP3 POP POP POP SWAP9 SWAP8 POP POP POP POP POP POP POP POP JUMP JUMPDEST PUSH0 DUP2 MLOAD DUP4 MLOAD EQ PUSH2 0xD50 JUMPI PUSH0 DUP1 REVERT JUMPDEST PUSH0 DUP4 MLOAD SWAP1 POP PUSH0 PUSH1 0x6 DUP3 PUSH2 0xD63 SWAP2 SWAP1 PUSH2 0x1755 JUMP JUMPDEST SWAP1 POP PUSH0 DUP2 PUSH8 0xFFFFFFFFFFFFFFFF DUP2 GT ISZERO PUSH2 0xD80 JUMPI PUSH2 0xD7F PUSH2 0x1306 JUMP JUMPDEST JUMPDEST PUSH1 0x40 MLOAD SWAP1 DUP1 DUP3 MSTORE DUP1 PUSH1 0x20 MUL PUSH1 0x20 ADD DUP3 ADD PUSH1 0x40 MSTORE DUP1 ISZERO PUSH2 0xDAE JUMPI DUP2 PUSH1 0x20 ADD PUSH1 0x20 DUP3 MUL DUP1 CALLDATASIZE DUP4 CALLDATACOPY DUP1 DUP3 ADD SWAP2 POP POP SWAP1 POP JUMPDEST POP SWAP1 POP PUSH0 JUMPDEST DUP4 DUP2 LT ISZERO PUSH2 0x102C JUMPI DUP7 DUP2 DUP2 MLOAD DUP2 LT PUSH2 0xDCE JUMPI PUSH2 0xDCD PUSH2 0x1651 JUMP JUMPDEST JUMPDEST PUSH1 0x20 MUL PUSH1 0x20 ADD ADD MLOAD PUSH0 ADD MLOAD DUP3 PUSH0 PUSH1 0x6 DUP5 PUSH2 0xDE8 SWAP2 SWAP1 PUSH2 0x1755 JUMP JUMPDEST PUSH2 0xDF2 SWAP2 SWAP1 PUSH2 0x161E JUMP JUMPDEST DUP2 MLOAD DUP2 LT PUSH2 0xE03 JUMPI PUSH2 0xE02 PUSH2 0x1651 JUMP JUMPDEST JUMPDEST PUSH1 0x20 MUL PUSH1 0x20 ADD ADD DUP2 DUP2 MSTORE POP POP DUP7 DUP2 DUP2 MLOAD DUP2 LT PUSH2 0xE22 JUMPI PUSH2 0xE21 PUSH2 0x1651 JUMP JUMPDEST JUMPDEST PUSH1 0x20 MUL PUSH1 0x20 ADD ADD MLOAD PUSH1 0x20 ADD MLOAD DUP3 PUSH1 0x1 PUSH1 0x6 DUP5 PUSH2 0xE3E SWAP2 SWAP1 PUSH2 0x1755 JUMP JUMPDEST PUSH2 0xE48 SWAP2 SWAP1 PUSH2 0x161E JUMP JUMPDEST DUP2 MLOAD DUP2 LT PUSH2 0xE59 JUMPI PUSH2 0xE58 PUSH2 0x1651 JUMP JUMPDEST JUMPDEST PUSH1 0x20 MUL PUSH1 0x20 ADD ADD DUP2 DUP2 MSTORE POP POP DUP6 DUP2 DUP2 MLOAD DUP2 LT PUSH2 0xE78 JUMPI PUSH2 0xE77 PUSH2 0x1651 JUMP JUMPDEST JUMPDEST PUSH1 0x20 MUL PUSH1 0x20 ADD ADD MLOAD PUSH0 ADD MLOAD PUSH1 0x1 PUSH1 0x2 DUP2 LT PUSH2 0xE96 JUMPI PUSH2 0xE95 PUSH2 0x1651 JUMP JUMPDEST JUMPDEST PUSH1 0x20 MUL ADD MLOAD DUP3 PUSH1 0x2 PUSH1 0x6 DUP5 PUSH2 0xEAB SWAP2 SWAP1 PUSH2 0x1755 JUMP JUMPDEST PUSH2 0xEB5 SWAP2 SWAP1 PUSH2 0x161E JUMP JUMPDEST DUP2 MLOAD DUP2 LT PUSH2 0xEC6 JUMPI PUSH2 0xEC5 PUSH2 0x1651 JUMP JUMPDEST JUMPDEST PUSH1 0x20 MUL PUSH1 0x20 ADD ADD DUP2 DUP2 MSTORE POP POP DUP6 DUP2 DUP2 MLOAD DUP2 LT PUSH2 0xEE5 JUMPI PUSH2 0xEE4 PUSH2 0x1651 JUMP JUMPDEST JUMPDEST PUSH1 0x20 MUL PUSH1 0x20 ADD ADD MLOAD PUSH0 ADD MLOAD PUSH0 PUSH1 0x2 DUP2 LT PUSH2 0xF02 JUMPI PUSH2 0xF01 PUSH2 0x1651 JUMP JUMPDEST JUMPDEST PUSH1 0x20 MUL ADD MLOAD DUP3 PUSH1 0x3 PUSH1 0x6 DUP5 PUSH2 0xF17 SWAP2 SWAP1 PUSH2 0x1755 JUMP JUMPDEST PUSH2 0xF21 SWAP2 SWAP1 PUSH2 0x161E JUMP JUMPDEST DUP2 MLOAD DUP2 LT PUSH2 0xF32 JUMPI PUSH2 0xF31 PUSH2 0x1651 JUMP JUMPDEST JUMPDEST PUSH1 0x20 MUL PUSH1 0x20 ADD ADD DUP2 DUP2 MSTORE POP POP DUP6 DUP2 DUP2 MLOAD DUP2 LT PUSH2 0xF51 JUMPI PUSH2 0xF50 PUSH2 0x1651 JUMP JUMPDEST JUMPDEST PUSH1 0x20 MUL PUSH1 0x20 ADD ADD MLOAD PUSH1 0x20 ADD MLOAD PUSH1 0x1 PUSH1 0x2 DUP2 LT PUSH2 0xF70 JUMPI PUSH2 0xF6F PUSH2 0x1651 JUMP JUMPDEST JUMPDEST PUSH1 0x20 MUL ADD MLOAD DUP3 PUSH1 0x4 PUSH1 0x6 DUP5 PUSH2 0xF85 SWAP2 SWAP1 PUSH2 0x1755 JUMP JUMPDEST PUSH2 0xF8F SWAP2 SWAP1 PUSH2 0x161E JUMP JUMPDEST DUP2 MLOAD DUP2 LT PUSH2 0xFA0 JUMPI PUSH2 0xF9F PUSH2 0x1651 JUMP JUMPDEST JUMPDEST PUSH1 0x20 MUL PUSH1 0x20 ADD ADD DUP2 DUP2 MSTORE POP POP DUP6 DUP2 DUP2 MLOAD DUP2 LT PUSH2 0xFBF JUMPI PUSH2 0xFBE PUSH2 0x1651 JUMP JUMPDEST JUMPDEST PUSH1 0x20 MUL PUSH1 0x20 ADD ADD MLOAD PUSH1 0x20 ADD MLOAD PUSH0 PUSH1 0x2 DUP2 LT PUSH2 0xFDD JUMPI PUSH2 0xFDC PUSH2 0x1651 JUMP JUMPDEST JUMPDEST PUSH1 0x20 MUL ADD MLOAD DUP3 PUSH1 0x5 PUSH1 0x6 DUP5 PUSH2 0xFF2 SWAP2 SWAP1 PUSH2 0x1755 JUMP JUMPDEST PUSH2 0xFFC SWAP2 SWAP1 PUSH2 0x161E JUMP JUMPDEST DUP2 MLOAD DUP2 LT PUSH2 0x100D JUMPI PUSH2 0x100C PUSH2 0x1651 JUMP JUMPDEST JUMPDEST PUSH1 0x20 MUL PUSH1 0x20 ADD ADD DUP2 DUP2 MSTORE POP POP DUP1 DUP1 PUSH2 0x1024 SWAP1 PUSH2 0x167E JUMP JUMPDEST SWAP2 POP POP PUSH2 0xDB3 JUMP JUMPDEST POP PUSH2 0x1035 PUSH2 0x1150 JUMP JUMPDEST PUSH0 PUSH1 0x20 DUP3 PUSH1 0x20 DUP7 MUL PUSH1 0x20 DUP7 ADD PUSH1 0x8 PUSH2 0x7D0 GAS SUB STATICCALL SWAP1 POP DUP1 PUSH0 DUP2 SUB PUSH2 0x1055 JUMPI INVALID JUMPDEST POP DUP1 PUSH2 0x105F JUMPI PUSH0 DUP1 REVERT JUMPDEST PUSH0 DUP3 PUSH0 PUSH1 0x1 DUP2 LT PUSH2 0x1073 JUMPI PUSH2 0x1072 PUSH2 0x1651 JUMP JUMPDEST JUMPDEST PUSH1 0x20 MUL ADD MLOAD EQ ISZERO SWAP6 POP POP POP POP POP POP SWAP3 SWAP2 POP POP JUMP JUMPDEST PUSH1 0x40 MLOAD DUP1 PUSH1 0xA0 ADD PUSH1 0x40 MSTORE DUP1 PUSH2 0x109A PUSH2 0x10CE JUMP JUMPDEST DUP2 MSTORE PUSH1 0x20 ADD PUSH2 0x10A7 PUSH2 0x112A JUMP JUMPDEST DUP2 MSTORE PUSH1 0x20 ADD PUSH2 0x10B4 PUSH2 0x112A JUMP JUMPDEST DUP2 MSTORE PUSH1 0x20 ADD PUSH2 0x10C1 PUSH2 0x112A JUMP JUMPDEST DUP2 MSTORE PUSH1 0x20 ADD PUSH1 0x60 DUP2 MSTORE POP SWAP1 JUMP JUMPDEST PUSH1 0x40 MLOAD DUP1 PUSH1 0x40 ADD PUSH1 0x40 MSTORE DUP1 PUSH0 DUP2 MSTORE PUSH1 0x20 ADD PUSH0 DUP2 MSTORE POP SWAP1 JUMP JUMPDEST PUSH1 0x40 MLOAD DUP1 PUSH1 0x60 ADD PUSH1 0x40 MSTORE DUP1 PUSH1 0x3 SWAP1 PUSH1 0x20 DUP3 MUL DUP1 CALLDATASIZE DUP4 CALLDATACOPY DUP1 DUP3 ADD SWAP2 POP POP SWAP1 POP POP SWAP1 JUMP JUMPDEST PUSH1 0x40 MLOAD DUP1 PUSH1 0x80 ADD PUSH1 0x40 MSTORE DUP1 PUSH1 0x4 SWAP1 PUSH1 0x20 DUP3 MUL DUP1 CALLDATASIZE DUP4 CALLDATACOPY DUP1 DUP3 ADD SWAP2 POP POP SWAP1 POP POP SWAP1 JUMP JUMPDEST PUSH1 0x40 MLOAD DUP1 PUSH1 0x40 ADD PUSH1 0x40 MSTORE DUP1 PUSH2 0x113D PUSH2 0x1172 JUMP JUMPDEST DUP2 MSTORE PUSH1 0x20 ADD PUSH2 0x114A PUSH2 0x1172 JUMP JUMPDEST DUP2 MSTORE POP SWAP1 JUMP JUMPDEST PUSH1 0x40 MLOAD DUP1 PUSH1 0x20 ADD PUSH1 0x40 MSTORE DUP1 PUSH1 0x1 SWAP1 PUSH1 0x20 DUP3 MUL DUP1 CALLDATASIZE DUP4 CALLDATACOPY DUP1 DUP3 ADD SWAP2 POP POP SWAP1 POP POP SWAP1 JUMP JUMPDEST PUSH1 0x40 MLOAD DUP1 PUSH1 0x40 ADD PUSH1 0x40 MSTORE DUP1 PUSH1 0x2 SWAP1 PUSH1 0x20 DUP3 MUL DUP1 CALLDATASIZE DUP4 CALLDATACOPY DUP1 DUP3 ADD SWAP2 POP POP SWAP1 POP POP SWAP1 JUMP JUMPDEST PUSH0 PUSH1 0x40 MLOAD SWAP1 POP SWAP1 JUMP JUMPDEST PUSH0 DUP1 REVERT JUMPDEST PUSH0 PUSH20 0xFFFFFFFFFFFFFFFFFFFFFFFFFFFFFFFFFFFFFFFF DUP3 AND SWAP1 POP SWAP2 SWAP1 POP JUMP JUMPDEST PUSH0 PUSH2 0x11CA DUP3 PUSH2 0x11A1 JUMP JUMPDEST SWAP1 POP SWAP2 SWAP1 POP JUMP JUMPDEST PUSH2 0x11DA DUP2 PUSH2 0x11C0 JUMP JUMPDEST DUP2 EQ PUSH2 0x11E4 JUMPI PUSH0 DUP1 REVERT JUMPDEST POP JUMP JUMPDEST PUSH0 DUP2 CALLDATALOAD SWAP1 POP PUSH2 0x11F5 DUP2 PUSH2 0x11D1 JUMP JUMPDEST SWAP3 SWAP2 POP POP JUMP JUMPDEST PUSH0 PUSH1 0x20 DUP3 DUP5 SUB SLT ISZERO PUSH2 0x1210 JUMPI PUSH2 0x120F PUSH2 0x119D JUMP JUMPDEST JUMPDEST PUSH0 PUSH2 0x121D DUP5 DUP3 DUP6 ADD PUSH2 0x11E7 JUMP JUMPDEST SWAP2 POP POP SWAP3 SWAP2 POP POP JUMP JUMPDEST PUSH0 DUP2 SWAP1 POP SWAP2 SWAP1 POP JUMP JUMPDEST PUSH2 0x1238 DUP2 PUSH2 0x1226 JUMP JUMPDEST DUP3 MSTORE POP POP JUMP JUMPDEST PUSH0 PUSH1 0x20 DUP3 ADD SWAP1 POP PUSH2 0x1251 PUSH0 DUP4 ADD DUP5 PUSH2 0x122F JUMP JUMPDEST SWAP3 SWAP2 POP POP JUMP JUMPDEST PUSH2 0x1260 DUP2 PUSH2 0x1226 JUMP JUMPDEST DUP2 EQ PUSH2 0x126A JUMPI PUSH0 DUP1 REVERT JUMPDEST POP JUMP JUMPDEST PUSH0 DUP2 CALLDATALOAD SWAP1 POP PUSH2 0x127B DUP2 PUSH2 0x1257 JUMP JUMPDEST SWAP3 SWAP2 POP POP JUMP JUMPDEST PUSH0 DUP1 PUSH1 0x40 DUP4 DUP6 SUB SLT ISZERO PUSH2 0x1297 JUMPI PUSH2 0x1296 PUSH2 0x119D JUMP JUMPDEST JUMPDEST PUSH0 PUSH2 0x12A4 DUP6 DUP3 DUP7 ADD PUSH2 0x126D JUMP JUMPDEST SWAP3 POP POP PUSH1 0x20 PUSH2 0x12B5 DUP6 DUP3 DUP7 ADD PUSH2 0x126D JUMP JUMPDEST SWAP2 POP POP SWAP3 POP SWAP3 SWAP1 POP JUMP JUMPDEST PUSH0 DUP2 ISZERO ISZERO SWAP1 POP SWAP2 SWAP1 POP JUMP JUMPDEST PUSH2 0x12D3 DUP2 PUSH2 0x12BF JUMP JUMPDEST DUP3 MSTORE POP POP JUMP JUMPDEST PUSH0 PUSH1 0x20 DUP3 ADD SWAP1 POP PUSH2 0x12EC PUSH0 DUP4 ADD DUP5 PUSH2 0x12CA JUMP JUMPDEST SWAP3 SWAP2 POP POP JUMP JUMPDEST PUSH0 DUP1 REVERT JUMPDEST PUSH0 PUSH1 0x1F NOT PUSH1 0x1F DUP4 ADD AND SWAP1 POP SWAP2 SWAP1 POP JUMP JUMPDEST PUSH32 0x4E487B7100000000000000000000000000000000000000000000000000000000 PUSH0 MSTORE PUSH1 0x41 PUSH1 0x4 MSTORE PUSH1 0x24 PUSH0 REVERT JUMPDEST PUSH2 0x133C DUP3 PUSH2 0x12F6 JUMP JUMPDEST DUP2 ADD DUP2 DUP2 LT PUSH8 0xFFFFFFFFFFFFFFFF DUP3 GT OR ISZERO PUSH2 0x135B JUMPI PUSH2 0x135A PUSH2 0x1306 JUMP JUMPDEST JUMPDEST DUP1 PUSH1 0x40 MSTORE POP POP POP JUMP JUMPDEST PUSH0 PUSH2 0x136D PUSH2 0x1194 JUMP JUMPDEST SWAP1 POP PUSH2 0x1379 DUP3 DUP3 PUSH2 0x1333 JUMP JUMPDEST SWAP2 SWAP1 POP JUMP JUMPDEST PUSH0 PUSH1 0x40 DUP3 DUP5 SUB SLT ISZERO PUSH2 0x1393 JUMPI PUSH2 0x1392 PUSH2 0x12F2 JUMP JUMPDEST JUMPDEST PUSH2 0x139D PUSH1 0x40 PUSH2 0x1364 JUMP JUMPDEST SWAP1 POP PUSH0 PUSH2 0x13AC DUP5 DUP3 DUP6 ADD PUSH2 0x126D JUMP JUMPDEST PUSH0 DUP4 ADD MSTORE POP PUSH1 0x20 PUSH2 0x13BF DUP5 DUP3 DUP6 ADD PUSH2 0x126D JUMP JUMPDEST PUSH1 0x20 DUP4 ADD MSTORE POP SWAP3 SWAP2 POP POP JUMP JUMPDEST PUSH0 DUP1 REVERT JUMPDEST PUSH0 PUSH8 0xFFFFFFFFFFFFFFFF DUP3 GT ISZERO PUSH2 0x13E9 JUMPI PUSH2 0x13E8 PUSH2 0x1306 JUMP JUMPDEST JUMPDEST PUSH1 0x20 DUP3 MUL SWAP1 POP SWAP2 SWAP1 POP JUMP JUMPDEST PUSH0 DUP1 REVERT JUMPDEST PUSH0 PUSH2 0x140A PUSH2 0x1405 DUP5 PUSH2 0x13CF JUMP JUMPDEST PUSH2 0x1364 JUMP JUMPDEST SWAP1 POP DUP1 PUSH1 0x20 DUP5 MUL DUP4 ADD DUP6 DUP2 GT ISZERO PUSH2 0x1424 JUMPI PUSH2 0x1423 PUSH2 0x13F4 JUMP JUMPDEST JUMPDEST DUP4 JUMPDEST DUP2 DUP2 LT ISZERO PUSH2 0x144D JUMPI DUP1 PUSH2 0x1439 DUP9 DUP3 PUSH2 0x126D JUMP JUMPDEST DUP5 MSTORE PUSH1 0x20 DUP5 ADD SWAP4 POP POP PUSH1 0x20 DUP2 ADD SWAP1 POP PUSH2 0x1426 JUMP JUMPDEST POP POP POP SWAP4 SWAP3 POP POP POP JUMP JUMPDEST PUSH0 DUP3 PUSH1 0x1F DUP4 ADD SLT PUSH2 0x146B JUMPI PUSH2 0x146A PUSH2 0x13CB JUMP JUMPDEST JUMPDEST PUSH1 0x2 PUSH2 0x1478 DUP5 DUP3 DUP6 PUSH2 0x13F8 JUMP JUMPDEST SWAP2 POP POP SWAP3 SWAP2 POP POP JUMP JUMPDEST PUSH0 PUSH1 0x80 DUP3 DUP5 SUB SLT ISZERO PUSH2 0x1496 JUMPI PUSH2 0x1495 PUSH2 0x12F2 JUMP JUMPDEST JUMPDEST PUSH2 0x14A0 PUSH1 0x40 PUSH2 0x1364 JUMP JUMPDEST SWAP1 POP PUSH0 PUSH2 0x14AF DUP5 DUP3 DUP6 ADD PUSH2 0x1457 JUMP JUMPDEST PUSH0 DUP4 ADD MSTORE POP PUSH1 0x40 PUSH2 0x14C2 DUP5 DUP3 DUP6 ADD PUSH2 0x1457 JUMP JUMPDEST PUSH1 0x20 DUP4 ADD MSTORE POP SWAP3 SWAP2 POP POP JUMP JUMPDEST PUSH0 PUSH2 0x100 DUP3 DUP5 SUB SLT ISZERO PUSH2 0x14E4 JUMPI PUSH2 0x14E3 PUSH2 0x12F2 JUMP JUMPDEST JUMPDEST PUSH2 0x14EE PUSH1 0x60 PUSH2 0x1364 JUMP JUMPDEST SWAP1 POP PUSH0 PUSH2 0x14FD DUP5 DUP3 DUP6 ADD PUSH2 0x137E JUMP JUMPDEST PUSH0 DUP4 ADD MSTORE POP PUSH1 0x40 PUSH2 0x1510 DUP5 DUP3 DUP6 ADD PUSH2 0x1481 JUMP JUMPDEST PUSH1 0x20 DUP4 ADD MSTORE POP PUSH1 0xC0 PUSH2 0x1524 DUP5 DUP3 DUP6 ADD PUSH2 0x137E JUMP JUMPDEST PUSH1 0x40 DUP4 ADD MSTORE POP SWAP3 SWAP2 POP POP JUMP JUMPDEST PUSH0 PUSH2 0x100 DUP3 DUP5 SUB SLT ISZERO PUSH2 0x1546 JUMPI PUSH2 0x1545 PUSH2 0x119D JUMP JUMPDEST JUMPDEST PUSH0 PUSH2 0x1553 DUP5 DUP3 DUP6 ADD PUSH2 0x14CE JUMP JUMPDEST SWAP2 POP POP SWAP3 SWAP2 POP POP JUMP JUMPDEST PUSH0 DUP3 DUP3 MSTORE PUSH1 0x20 DUP3 ADD SWAP1 POP SWAP3 SWAP2 POP POP JUMP JUMPDEST PUSH32 0x426162792069742773206D652C20000000000000000000000000000000000000 PUSH0 DUP3 ADD MSTORE POP JUMP JUMPDEST PUSH0 PUSH2 0x15A0 PUSH1 0xE DUP4 PUSH2 0x155C JUMP JUMPDEST SWAP2 POP PUSH2 0x15AB DUP3 PUSH2 0x156C JUMP JUMPDEST PUSH1 0x20 DUP3 ADD SWAP1 POP SWAP2 SWAP1 POP JUMP JUMPDEST PUSH2 0x15BF DUP2 PUSH2 0x11C0 JUMP JUMPDEST DUP3 MSTORE POP POP JUMP JUMPDEST PUSH0 PUSH1 0x40 DUP3 ADD SWAP1 POP DUP2 DUP2 SUB PUSH0 DUP4 ADD MSTORE PUSH2 0x15DC DUP2 PUSH2 0x1594 JUMP JUMPDEST SWAP1 POP PUSH2 0x15EB PUSH1 0x20 DUP4 ADD DUP5 PUSH2 0x15B6 JUMP JUMPDEST SWAP3 SWAP2 POP POP JUMP JUMPDEST PUSH32 0x4E487B7100000000000000000000000000000000000000000000000000000000 PUSH0 MSTORE PUSH1 0x11 PUSH1 0x4 MSTORE PUSH1 0x24 PUSH0 REVERT JUMPDEST PUSH0 PUSH2 0x1628 DUP3 PUSH2 0x1226 JUMP JUMPDEST SWAP2 POP PUSH2 0x1633 DUP4 PUSH2 0x1226 JUMP JUMPDEST SWAP3 POP DUP3 DUP3 ADD SWAP1 POP DUP1 DUP3 GT ISZERO PUSH2 0x164B JUMPI PUSH2 0x164A PUSH2 0x15F1 JUMP JUMPDEST JUMPDEST SWAP3 SWAP2 POP POP JUMP JUMPDEST PUSH32 0x4E487B7100000000000000000000000000000000000000000000000000000000 PUSH0 MSTORE PUSH1 0x32 PUSH1 0x4 MSTORE PUSH1 0x24 PUSH0 REVERT JUMPDEST PUSH0 PUSH2 0x1688 DUP3 PUSH2 0x1226 JUMP JUMPDEST SWAP2 POP PUSH32 0xFFFFFFFFFFFFFFFFFFFFFFFFFFFFFFFFFFFFFFFFFFFFFFFFFFFFFFFFFFFFFFFF DUP3 SUB PUSH2 0x16BA JUMPI PUSH2 0x16B9 PUSH2 0x15F1 JUMP JUMPDEST JUMPDEST PUSH1 0x1 DUP3 ADD SWAP1 POP SWAP2 SWAP1 POP JUMP JUMPDEST PUSH32 0x4E487B7100000000000000000000000000000000000000000000000000000000 PUSH0 MSTORE PUSH1 0x12 PUSH1 0x4 MSTORE PUSH1 0x24 PUSH0 REVERT JUMPDEST PUSH0 PUSH2 0x16FC DUP3 PUSH2 0x1226 JUMP JUMPDEST SWAP2 POP PUSH2 0x1707 DUP4 PUSH2 0x1226 JUMP JUMPDEST SWAP3 POP DUP3 PUSH2 0x1717 JUMPI PUSH2 0x1716 PUSH2 0x16C5 JUMP JUMPDEST JUMPDEST DUP3 DUP3 MOD SWAP1 POP SWAP3 SWAP2 POP POP JUMP JUMPDEST PUSH0 PUSH2 0x172C DUP3 PUSH2 0x1226 JUMP JUMPDEST SWAP2 POP PUSH2 0x1737 DUP4 PUSH2 0x1226 JUMP JUMPDEST SWAP3 POP DUP3 DUP3 SUB SWAP1 POP DUP2 DUP2 GT ISZERO PUSH2 0x174F JUMPI PUSH2 0x174E PUSH2 0x15F1 JUMP JUMPDEST JUMPDEST SWAP3 SWAP2 POP POP JUMP JUMPDEST PUSH0 PUSH2 0x175F DUP3 PUSH2 0x1226 JUMP JUMPDEST SWAP2 POP PUSH2 0x176A DUP4 PUSH2 0x1226 JUMP JUMPDEST SWAP3 POP DUP3 DUP3 MUL PUSH2 0x1778 DUP2 PUSH2 0x1226 JUMP JUMPDEST SWAP2 POP DUP3 DUP3 DIV DUP5 EQ DUP4 ISZERO OR PUSH2 0x178F JUMPI PUSH2 0x178E PUSH2 0x15F1 JUMP JUMPDEST JUMPDEST POP SWAP3 SWAP2 POP POP JUMP INVALID LOG2 PUSH5 0x6970667358 0x22 SLT KECCAK256 CALL 0xC7 0x5C 0xE2 SWAP10 0x4B 0xCD 0xDA DUP1 SWAP5 0xA6 PUSH18 0xB2C53A37011A1B2F027D051BA7AB2F4434E2 SMOD DELEGATECALL PUSH5 0x736F6C6343 STOP ADDMOD EQ STOP CALLER "
				},
				"gasEstimates": {
					"creation": {
						"codeDepositCost": "1218400",
						"executionCost": "1266",
						"totalCost": "1219666"
					},
					"external": {
						"generate(address)": "infinite",
						"solved(address)": "2823",
						"verify(uint256,uint256)": "infinite",
						"verifyProof(((uint256,uint256),(uint256[2],uint256[2]),(uint256,uint256)))": "infinite"
					}
				},
				"methodIdentifiers": {
					"generate(address)": "2fa61cd8",
					"solved(address)": "5e36bdc6",
					"verify(uint256,uint256)": "41161b10",
					"verifyProof(((uint256,uint256),(uint256[2],uint256[2]),(uint256,uint256)))": "9eefefef"
				}
			},
			"storageLayout": {
				"storage": [
					{
						"astId": 14,
						"contract": "verifier/src/BabyItsMe.sol:BabyItsMe",
						"label": "solved",
						"offset": 0,
						"slot": "0",
						"type": "t_mapping(t_address,t_uint256)"
					}
				],
				"types": {
					"t_address": {
						"encoding": "inplace",
						"label": "address",
						"numberOfBytes": "20"
					},
					"t_mapping(t_address,t_uint256)": {
						"encoding": "mapping",
						"key": "t_address",
						"label": "mapping(address => uint256)",
						"numberOfBytes": "32",
						"value": "t_uint256"
					},
					"t_uint256": {
						"encoding": "inplace",
						"label": "uint256",
						"numberOfBytes": "32"
					}
				}
			},
			"userdoc": {
				"kind": "user",
				"methods": {},
				"version": 1
			}
		}
	}
}