{
	"data": {
		"bytecode": {
			"linkReferences": {},
			"object": "608060405234801561000f575f80fd5b506117cc8061001d5f395ff3fe608060405234801561000f575f80fd5b506004361061004a575f3560e01c80632fa61cd81461004e57806341161b101461007e5780635e36bdc6146100ae5780639eefefef146100de575b5f80fd5b610068600480360381019061006391906111fb565b61010e565b604051610075919061123e565b60405180910390f35b61009860048036038101906100939190611281565b610143565b6040516100a591906112d9565b60405180910390f35b6100c860048036038101906100c391906111fb565b61018b565b6040516100d5919061123e565b60405180910390f35b6100f860048036038101906100f39190611530565b61019f565b60405161010591906112d9565b60405180910390f35b5f60038260405160200161012291906115c5565b604051602081830303815290604052805190602001205f1c901c9050919050565b5f825f808473ffffffffffffffffffffffffffffffffffffffff1673ffffffffffffffffffffffffffffffffffffffff1681526020019081526020015f205414905092915050565b5f602052805f5260405f205f915090505481565b5f806101aa3361010e565b90505f61022d60405180608001604052807f0999e47227c47e8829b0d14b251feed7582d0f5357b304b06d4014ae6ab39f1e81526020017f0aabb7211172d31463c1127d4ba6942cb791c56d8234b5a0abfd1e81afd0d67781526020018481526020013373ffffffffffffffffffffffffffffffffffffffff168152508561028e565b5f149050801561028357815f803373ffffffffffffffffffffffffffffffffffffffff1673ffffffffffffffffffffffffffffffffffffffff1681526020019081526020015f2081905550600192505050610289565b5f925050505b919050565b5f807f30644e72e131a029b85045b68181585d2833e84879b9709143e1f593f000000190505f6102bc610413565b9050806080015151600160046102d2919061161e565b146102db575f80fd5b5f60405180604001604052805f81526020015f81525090505f5b6004811015610389578387826004811061031257610311611651565b5b602002015110610320575f80fd5b6103748261036f8560800151600185610339919061161e565b8151811061034a57610349611651565b5b60200260200101518a856004811061036557610364611651565b5b602002015161097c565b610a19565b915080806103819061167e565b9150506102f5565b506103b28183608001515f815181106103a5576103a4611651565b5b6020026020010151610a19565b90506103f6855f015186602001516103c984610adb565b85604001516103db8a60400151610adb565b87606001516103ec895f0151610adb565b8960200151610b79565b610406576001935050505061040d565b5f93505050505b92915050565b61041b611087565b60405180604001604052807f0284c469d8eaf677e29635e18886312bd0c6ba2a632674a2703a8d9a5d5a48db81526020017f19b4d4d74797c3307e59c683ccad9119397c90f76ad28c043ec9671a95502e76815250815f0181905250604051806040016040528060405180604001604052807f0319296206e25c6e7ea35492e825fcdbea39b0980b72f18b3f7385d6d46352b081526020017f10bc74487c379aad3a10da56c479ae5db4e4b3faeb354f4aa57ed4524a3e4527815250815260200160405180604001604052807f2971943778693059384530140201f76e29adf7a4222921b744f09045f2011e1d81526020017f21099f091b01503caab27b87ee9769840d27963846e35613d26190bc5c4d0cef8152508152508160200181905250604051806040016040528060405180604001604052807f2cd9c9e8f055f3663213f71c1c3f99c6b363b35f50e0fe2e8405d029deb1e29581526020017f0fdcd887987c8e156d574ee4e97cf66bf36e7a8539b8c4bd578ff7bced1a601c815250815260200160405180604001604052807f2d96d4c9dcf6ff4da92c433beb2749c86fff05bfd2d83c3da9a7d531903ec94281526020017f13fb1bdc1b558571d6ba4944428eeb52aa0d69378072aa64cf543d4189b8af788152508152508160400181905250604051806040016040528060405180604001604052807f122757890c3f43309334e26258842bb8e8ab0450d387ddf7bc20fc5e01619d9281526020017e593e12fef04367a7d771cc137c7a3f0f245584f4a40e44c6281ca51e610027815250815260200160405180604001604052807f11b21f2409f28092f35b9cd195ee93ee5d0e11aca3e1a432c007243e186dec7c81526020017f1bcf98b5bbd114064cf46447c90092bbf9384056f13c9487d8021f73d92ac4528152508152508160600181905250600567ffffffffffffffff8111156106e0576106df611306565b5b60405190808252806020026020018201604052801561071957816020015b6107066110ce565b8152602001906001900390816106fe5790505b50816080018190525060405180604001604052807f2fc73b5bbb85acbd703828a3df8ee04ef648832b3bbf2c9fd5bb51d4ab0ef98481526020017f197f3e6cf0bde2d74a7c29bbabe7ea80928b45b23478309ea671a2b973a7edf281525081608001515f8151811061078e5761078d611651565b5b602002602001018190525060405180604001604052807f1b723ed82a7478e39551e2ab9346eda38a1c000cdd5f8ade3ccf6685f9d37b1e81526020017f26ad983f9927d8414cddfe79a4eda6717a8e82a0e85450e7ca745cd15af62c77815250816080015160018151811061080657610805611651565b5b602002602001018190525060405180604001604052807f262988545555095a281b0c6ac183626fd44094e1cc230aa38a705030d69124f381526020017f1f248dcfb5baf7962c1c481b9d52110825710ace9b94ef387f78651cb9d3335b815250816080015160028151811061087e5761087d611651565b5b602002602001018190525060405180604001604052807f2b17ccfb2bf38f9ed35f4cb962b705028429e1e66679bff2d13a0f31049a2b3a81526020017f1abe95f952ab1cd0a71f61d4304c8e85a777cf5afcb1936b9113a6c8acf22c6881525081608001516003815181106108f6576108f5611651565b5b602002602001018190525060405180604001604052807f2d476a4fc5d6e7900b821ac91bc179164787f4c1532bd3b91facf951788f40af81526020017f2a45d903c16fe8f0d0a14b36ae3ff7252075a266a0c749d3215352f175c1c8f1815250816080015160048151811061096e5761096d611651565b5b602002602001018190525090565b6109846110ce565b61098c6110e6565b835f0151815f600381106109a3576109a2611651565b5b6020020181815250508360200151816001600381106109c5576109c4611651565b5b60200201818152505082816002600381106109e3576109e2611651565b5b6020020181815250505f60608360808460076107d05a03fa9050805f8103610a0757fe5b5080610a11575f80fd5b505092915050565b610a216110ce565b610a29611108565b835f0151815f60048110610a4057610a3f611651565b5b602002018181525050836020015181600160048110610a6257610a61611651565b5b602002018181525050825f015181600260048110610a8357610a82611651565b5b602002018181525050826020015181600360048110610aa557610aa4611651565b5b6020020181815250505f60608360c08460066107d05a03fa9050805f8103610ac957fe5b5080610ad3575f80fd5b505092915050565b610ae36110ce565b5f7f30644e72e131a029b85045b68181585d97816a916871ca8d3c208c16d87cfd4790505f835f0151148015610b1c57505f8360200151145b15610b3e5760405180604001604052805f81526020015f815250915050610b74565b6040518060400160405280845f01518152602001828560200151610b6291906116f2565b83610b6d9190611722565b8152509150505b919050565b5f80600467ffffffffffffffff811115610b9657610b95611306565b5b604051908082528060200260200182016040528015610bcf57816020015b610bbc6110ce565b815260200190600190039081610bb45790505b5090505f600467ffffffffffffffff811115610bee57610bed611306565b5b604051908082528060200260200182016040528015610c2757816020015b610c1461112a565b815260200190600190039081610c0c5790505b5090508a825f81518110610c3e57610c3d611651565b5b60200260200101819052508882600181518110610c5e57610c5d611651565b5b60200260200101819052508682600281518110610c7e57610c7d611651565b5b60200260200101819052508482600381518110610c9e57610c9d611651565b5b602002602001018190525089815f81518110610cbd57610cbc611651565b5b60200260200101819052508781600181518110610cdd57610cdc611651565b5b60200260200101819052508581600281518110610cfd57610cfc611651565b5b60200260200101819052508381600381518110610d1d57610d1c611651565b5b6020026020010181905250610d328282610d42565b9250505098975050505050505050565b5f8151835114610d50575f80fd5b5f835190505f600682610d639190611755565b90505f8167ffffffffffffffff811115610d8057610d7f611306565b5b604051908082528060200260200182016040528015610dae5781602001602082028036833780820191505090505b5090505f5b8381101561102c57868181518110610dce57610dcd611651565b5b60200260200101515f0151825f600684610de89190611755565b610df2919061161e565b81518110610e0357610e02611651565b5b602002602001018181525050868181518110610e2257610e21611651565b5b602002602001015160200151826001600684610e3e9190611755565b610e48919061161e565b81518110610e5957610e58611651565b5b602002602001018181525050858181518110610e7857610e77611651565b5b60200260200101515f0151600160028110610e9657610e95611651565b5b6020020151826002600684610eab9190611755565b610eb5919061161e565b81518110610ec657610ec5611651565b5b602002602001018181525050858181518110610ee557610ee4611651565b5b60200260200101515f01515f60028110610f0257610f01611651565b5b6020020151826003600684610f179190611755565b610f21919061161e565b81518110610f3257610f31611651565b5b602002602001018181525050858181518110610f5157610f50611651565b5b602002602001015160200151600160028110610f7057610f6f611651565b5b6020020151826004600684610f859190611755565b610f8f919061161e565b81518110610fa057610f9f611651565b5b602002602001018181525050858181518110610fbf57610fbe611651565b5b6020026020010151602001515f60028110610fdd57610fdc611651565b5b6020020151826005600684610ff29190611755565b610ffc919061161e565b8151811061100d5761100c611651565b5b60200260200101818152505080806110249061167e565b915050610db3565b50611035611150565b5f602082602086026020860160086107d05a03fa9050805f810361105557fe5b508061105f575f80fd5b5f825f6001811061107357611072611651565b5b602002015114159550505050505092915050565b6040518060a0016040528061109a6110ce565b81526020016110a761112a565b81526020016110b461112a565b81526020016110c161112a565b8152602001606081525090565b60405180604001604052805f81526020015f81525090565b6040518060600160405280600390602082028036833780820191505090505090565b6040518060800160405280600490602082028036833780820191505090505090565b604051806040016040528061113d611172565b815260200161114a611172565b81525090565b6040518060200160405280600190602082028036833780820191505090505090565b6040518060400160405280600290602082028036833780820191505090505090565b5f604051905090565b5f80fd5b5f73ffffffffffffffffffffffffffffffffffffffff82169050919050565b5f6111ca826111a1565b9050919050565b6111da816111c0565b81146111e4575f80fd5b50565b5f813590506111f5816111d1565b92915050565b5f602082840312156112105761120f61119d565b5b5f61121d848285016111e7565b91505092915050565b5f819050919050565b61123881611226565b82525050565b5f6020820190506112515f83018461122f565b92915050565b61126081611226565b811461126a575f80fd5b50565b5f8135905061127b81611257565b92915050565b5f80604083850312156112975761129661119d565b5b5f6112a48582860161126d565b92505060206112b58582860161126d565b9150509250929050565b5f8115159050919050565b6112d3816112bf565b82525050565b5f6020820190506112ec5f8301846112ca565b92915050565b5f80fd5b5f601f19601f8301169050919050565b7f4e487b71000000000000000000000000000000000000000000000000000000005f52604160045260245ffd5b61133c826112f6565b810181811067ffffffffffffffff8211171561135b5761135a611306565b5b80604052505050565b5f61136d611194565b90506113798282611333565b919050565b5f60408284031215611393576113926112f2565b5b61139d6040611364565b90505f6113ac8482850161126d565b5f8301525060206113bf8482850161126d565b60208301525092915050565b5f80fd5b5f67ffffffffffffffff8211156113e9576113e8611306565b5b602082029050919050565b5f80fd5b5f61140a611405846113cf565b611364565b90508060208402830185811115611424576114236113f4565b5b835b8181101561144d5780611439888261126d565b845260208401935050602081019050611426565b5050509392505050565b5f82601f83011261146b5761146a6113cb565b5b60026114788482856113f8565b91505092915050565b5f60808284031215611496576114956112f2565b5b6114a06040611364565b90505f6114af84828501611457565b5f8301525060406114c284828501611457565b60208301525092915050565b5f61010082840312156114e4576114e36112f2565b5b6114ee6060611364565b90505f6114fd8482850161137e565b5f83015250604061151084828501611481565b60208301525060c06115248482850161137e565b60408301525092915050565b5f61010082840312156115465761154561119d565b5b5f611553848285016114ce565b91505092915050565b5f82825260208201905092915050565b7f426162792069742773206d652c200000000000000000000000000000000000005f82015250565b5f6115a0600e8361155c565b91506115ab8261156c565b602082019050919050565b6115bf816111c0565b82525050565b5f6040820190508181035f8301526115dc81611594565b90506115eb60208301846115b6565b92915050565b7f4e487b71000000000000000000000000000000000000000000000000000000005f52601160045260245ffd5b5f61162882611226565b915061163383611226565b925082820190508082111561164b5761164a6115f1565b5b92915050565b7f4e487b71000000000000000000000000000000000000000000000000000000005f52603260045260245ffd5b5f61168882611226565b91507fffffffffffffffffffffffffffffffffffffffffffffffffffffffffffffffff82036116ba576116b96115f1565b5b600182019050919050565b7f4e487b71000000000000000000000000000000000000000000000000000000005f52601260045260245ffd5b5f6116fc82611226565b915061170783611226565b925082611717576117166116c5565b5b828206905092915050565b5f61172c82611226565b915061173783611226565b925082820390508181111561174f5761174e6115f1565b5b92915050565b5f61175f82611226565b915061176a83611226565b925082820261177881611226565b9150828204841483151761178f5761178e6115f1565b5b509291505056fea2646970667358221220f1c75ce2994bcdda8094a671b2c53a37011a1b2f027d051ba7ab2f4434e207f464736f6c63430008140033",
			"opcodes": "PUSH1 0x80 PUSH1 0x40 MSTORE CALLVALUE DUP1 ISZERO PUSH2 0xF JUMPI PUSH0 DUP1 REVERT JUMPDEST POP PUSH2 0x17CC DUP1 PUSH2 0x1D PUSH0 CODECOPY PUSH0 RETURN INVALID PUSH1 0x80 PUSH1 0x40 MSTORE CALLVALUE DUP1 ISZERO PUSH2 0xF JUMPI PUSH0 DUP1 REVERT JUMPDEST POP PUSH1 0x4 CALLDATASIZE LT PUSH2 0x4A JUMPI PUSH0 CALLDATALOAD PUSH1 0xE0 SHR DUP1 PUSH4 0x2FA61CD8 EQ PUSH2 0x4E JUMPI DUP1 PUSH4 0x41161B10 EQ PUSH2 0x7E JUMPI DUP1 PUSH4 0x5E36BDC6 EQ PUSH2 0xAE JUMPI DUP1 PUSH4 0x9EEFEFEF EQ PUSH2 0xDE JUMPI JUMPDEST PUSH0 DUP1 REVERT JUMPDEST PUSH2 0x68 PUSH1 0x4 DUP1 CALLDATASIZE SUB DUP2 ADD SWAP1 PUSH2 0x63 SWAP2 SWAP1 PUSH2 0x11FB JUMP JUMPDEST PUSH2 0x10E JUMP JUMPDEST PUSH1 0x40 MLOAD PUSH2 0x75 SWAP2 SWAP1 PUSH2 0x123E JUMP JUMPDEST PUSH1 0x40 MLOAD DUP1 SWAP2 SUB SWAP1 RETURN JUMPDEST PUSH2 0x98 PUSH1 0x4 DUP1 CALLDATASIZE SUB DUP2 ADD SWAP1 PUSH2 0x93 SWAP2 SWAP1 PUSH2 0x1281 JUMP JUMPDEST PUSH2 0x143 JUMP JUMPDEST PUSH1 0x40 MLOAD PUSH2 0xA5 SWAP2 SWAP1 PUSH2 0x12D9 JUMP JUMPDEST PUSH1 0x40 MLOAD DUP1 SWAP2 SUB SWAP1 RETURN JUMPDEST PUSH2 0xC8 PUSH1 0x4 DUP1 CALLDATASIZE SUB DUP2 ADD SWAP1 PUSH2 0xC3 SWAP2 SWAP1 PUSH2 0x11FB JUMP JUMPDEST PUSH2 0x18B JUMP JUMPDEST PUSH1 0x40 MLOAD PUSH2 0xD5 SWAP2 SWAP1 PUSH2 0x123E JUMP JUMPDEST PUSH1 0x40 MLOAD DUP1 SWAP2 SUB SWAP1 RETURN JUMPDEST PUSH2 0xF8 PUSH1 0x4 DUP1 CALLDATASIZE SUB DUP2 ADD SWAP1 PUSH2 0xF3 SWAP2 SWAP1 PUSH2 0x1530 JUMP JUMPDEST PUSH2 0x19F JUMP JUMPDEST PUSH1 0x40 MLOAD PUSH2 0x105 SWAP2 SWAP1 PUSH2 0x12D9 JUMP JUMPDEST PUSH1 0x40 MLOAD DUP1 SWAP2 SUB SWAP1 RETURN JUMPDEST PUSH0 PUSH1 0x3 DUP3 PUSH1 0x40 MLOAD PUSH1 0x20 ADD PUSH2 0x122 SWAP2 SWAP1 PUSH2 0x15C5 JUMP JUMPDEST PUSH1 0x40 MLOAD PUSH1 0x20 DUP2 DUP4 SUB SUB DUP2 MSTORE SWAP1 PUSH1 0x40 MSTORE DUP1 MLOAD SWAP1 PUSH1 0x20 ADD KECCAK256 PUSH0 SHR SWAP1 SHR SWAP1 POP SWAP2 SWAP1 POP JUMP JUMPDEST PUSH0 DUP3 PUSH0 DUP1 DUP5 PUSH20 0xFFFFFFFFFFFFFFFFFFFFFFFFFFFFFFFFFFFFFFFF AND PUSH20 0xFFFFFFFFFFFFFFFFFFFFFFFFFFFFFFFFFFFFFFFF AND DUP2 MSTORE PUSH1 0x20 ADD SWAP1 DUP2 MSTORE PUSH1 0x20 ADD PUSH0 KECCAK256 SLOAD EQ SWAP1 POP SWAP3 SWAP2 POP POP JUMP JUMPDEST PUSH0 PUSH1 0x20 MSTORE DUP1 PUSH0 MSTORE PUSH1 0x40 PUSH0 KECCAK256 PUSH0 SWAP2 POP SWAP1 POP SLOAD DUP2 JUMP JUMPDEST PUSH0 DUP1 PUSH2 0x1AA CALLER PUSH2 0x10E JUMP JUMPDEST SWAP1 POP PUSH0 PUSH2 0x22D PUSH1 0x40 MLOAD DUP1 PUSH1 0x80 ADD PUSH1 0x40 MSTORE DUP1 PUSH32 0x999E47227C47E8829B0D14B251FEED7582D0F5357B304B06D4014AE6AB39F1E DUP2 MSTORE PUSH1 0x20 ADD PUSH32 0xAABB7211172D31463C1127D4BA6942CB791C56D8234B5A0ABFD1E81AFD0D677 DUP2 MSTORE PUSH1 0x20 ADD DUP5 DUP2 MSTORE PUSH1 0x20 ADD CALLER PUSH20 0xFFFFFFFFFFFFFFFFFFFFFFFFFFFFFFFFFFFFFFFF AND DUP2 MSTORE POP DUP6 PUSH2 0x28E JUMP JUMPDEST PUSH0 EQ SWAP1 POP DUP1 ISZERO PUSH2 0x283 JUMPI DUP2 PUSH0 DUP1 CALLER PUSH20 0xFFFFFFFFFFFFFFFFFFFFFFFFFFFFFFFFFFFFFFFF AND PUSH20 0xFFFFFFFFFFFFFFFFFFFFFFFFFFFFFFFFFFFFFFFF AND DUP2 MSTORE PUSH1 0x20 ADD SWAP1 DUP2 MSTORE PUSH1 0x20 ADD PUSH0 KECCAK256 DUP2 SWAP1 SSTORE POP PUSH1 0x1 SWAP3 POP POP POP PUSH2 0x289 JUMP JUMPDEST PUSH0 SWAP3 POP POP POP JUMPDEST SWAP2 SWAP1 POP JUMP JUMPDEST PUSH0 DUP1 PUSH32 0x30644E72E131A029B85045B68181585D2833E84879B9709143E1F593F0000001 SWAP1 POP PUSH0 PUSH2 0x2BC PUSH2 0x413 JUMP JUMPDEST SWAP1 POP DUP1 PUSH1 0x80 ADD MLOAD MLOAD PUSH1 0x1 PUSH1 0x4 PUSH2 0x2D2 SWAP2 SWAP1 PUSH2 0x161E JUMP JUMPDEST EQ PUSH2 0x2DB JUMPI PUSH0 DUP1 REVERT JUMPDEST PUSH0 PUSH1 0x40 MLOAD DUP1 PUSH1 0x40 ADD PUSH1 0x40 MSTORE DUP1 PUSH0 DUP2 MSTORE PUSH1 0x20 ADD PUSH0 DUP2 MSTORE POP SWAP1 POP PUSH0 JUMPDEST PUSH1 0x4 DUP2 LT ISZERO PUSH2 0x389 JUMPI DUP4 DUP8 DUP3 PUSH1 0x4 DUP2 LT PUSH2 0x312 JUMPI PUSH2 0x311 PUSH2 0x1651 JUMP JUMPDEST JUMPDEST PUSH1 0x20 MUL ADD MLOAD LT PUSH2 0x320 JUMPI PUSH0 DUP1 REVERT JUMPDEST PUSH2 0x374 DUP3 PUSH2 0x36F DUP6 PUSH1 0x80 ADD MLOAD PUSH1 0x1 DUP6 PUSH2 0x339 SWAP2 SWAP1 PUSH2 0x161E JUMP JUMPDEST DUP2 MLOAD DUP2 LT PUSH2 0x34A JUMPI PUSH2 0x349 PUSH2 0x1651 JUMP JUMPDEST JUMPDEST PUSH1 0x20 MUL PUSH1 0x20 ADD ADD MLOAD DUP11 DUP6 PUSH1 0x4 DUP2 LT PUSH2 0x365 JUMPI PUSH2 0x364 PUSH2 0x1651 JUMP JUMPDEST JUMPDEST PUSH1 0x20 MUL ADD MLOAD PUSH2 0x97C JUMP JUMPDEST PUSH2 0xA19 JUMP JUMPDEST SWAP2 POP DUP1 DUP1 PUSH2 0x381 SWAP1 PUSH2 0x167E JUMP JUMPDEST SWAP2 POP POP PUSH2 0x2F5 JUMP JUMPDEST POP PUSH2 0x3B2 DUP2 DUP4 PUSH1 0x80 ADD MLOAD PUSH0 DUP2 MLOAD DUP2 LT PUSH2 0x3A5 JUMPI PUSH2 0x3A4 PUSH2 0x1651 JUMP JUMPDEST JUMPDEST PUSH1 0x20 MUL PUSH1 0x20 ADD ADD MLOAD PUSH2 0xA19 JUMP JUMPDEST SWAP1 POP PUSH2 0x3F6 DUP6 PUSH0 ADD MLOAD DUP7 PUSH1 0x20 ADD MLOAD PUSH2 0x3C9 DUP5 PUSH2 0xADB JUMP JUMPDEST DUP6 PUSH1 0x40 ADD MLOAD PUSH2 0x3DB DUP11 PUSH1 0x40 ADD MLOAD PUSH2 0xADB JUMP JUMPDEST DUP8 PUSH1 0x60 ADD MLOAD PUSH2 0x3EC DUP10 PUSH0 ADD MLOAD PUSH2 0xADB JUMP JUMPDEST DUP10 PUSH1 0x20 ADD MLOAD PUSH2 0xB79 JUMP JUMPDEST PUSH2 0x406 JUMPI PUSH1 0x1 SWAP4 POP POP POP POP PUSH2 0x40D JUMP JUMPDEST PUSH0 SWAP4 POP POP POP POP JUMPDEST SWAP3 SWAP2 POP POP JUMP JUMPDEST PUSH2 0x41B PUSH2 0x1087 JUMP JUMPDEST PUSH1 0x40 MLOAD DUP1 PUSH1 0x40 ADD PUSH1 0x40 MSTORE DUP1 PUSH32 0x284C469D8EAF677E29635E18886312BD0C6BA2A632674A2703A8D9A5D5A48DB DUP2 MSTORE PUSH1 0x20 ADD PUSH32 0x19B4D4D74797C3307E59C683CCAD9119397C90F76AD28C043EC9671A95502E76 DUP2 MSTORE POP DUP2 PUSH0 ADD DUP2 SWAP1 MSTORE POP PUSH1 0x40 MLOAD DUP1 PUSH1 0x40 ADD PUSH1 0x40 MSTORE DUP1 PUSH1 0x40 MLOAD DUP1 PUSH1 0x40 ADD PUSH1 0x40 MSTORE DUP1 PUSH32 0x319296206E25C6E7EA35492E825FCDBEA39B0980B72F18B3F7385D6D46352B0 DUP2 MSTORE PUSH1 0x20 ADD PUSH32 0x10BC74487C379AAD3A10DA56C479AE5DB4E4B3FAEB354F4AA57ED4524A3E4527 DUP2 MSTORE POP DUP2 MSTORE PUSH1 0x20 ADD PUSH1 0x40 MLOAD DUP1 PUSH1 0x40 ADD PUSH1 0x40 MSTORE DUP1 PUSH32 0x2971943778693059384530140201F76E29ADF7A4222921B744F09045F2011E1D DUP2 MSTORE PUSH1 0x20 ADD PUSH32 0x21099F091B01503CAAB27B87EE9769840D27963846E35613D26190BC5C4D0CEF DUP2 MSTORE POP DUP2 MSTORE POP DUP2 PUSH1 0x20 ADD DUP2 SWAP1 MSTORE POP PUSH1 0x40 MLOAD DUP1 PUSH1 0x40 ADD PUSH1 0x40 MSTORE DUP1 PUSH1 0x40 MLOAD DUP1 PUSH1 0x40 ADD PUSH1 0x40 MSTORE DUP1 PUSH32 0x2CD9C9E8F055F3663213F71C1C3F99C6B363B35F50E0FE2E8405D029DEB1E295 DUP2 MSTORE PUSH1 0x20 ADD PUSH32 0xFDCD887987C8E156D574EE4E97CF66BF36E7A8539B8C4BD578FF7BCED1A601C DUP2 MSTORE POP DUP2 MSTORE PUSH1 0x20 ADD PUSH1 0x40 MLOAD DUP1 PUSH1 0x40 ADD PUSH1 0x40 MSTORE DUP1 PUSH32 0x2D96D4C9DCF6FF4DA92C433BEB2749C86FFF05BFD2D83C3DA9A7D531903EC942 DUP2 MSTORE PUSH1 0x20 ADD PUSH32 0x13FB1BDC1B558571D6BA4944428EEB52AA0D69378072AA64CF543D4189B8AF78 DUP2 MSTORE POP DUP2 MSTORE POP DUP2 PUSH1 0x40 ADD DUP2 SWAP1 MSTORE POP PUSH1 0x40 MLOAD DUP1 PUSH1 0x40 ADD PUSH1 0x40 MSTORE DUP1 PUSH1 0x40 MLOAD DUP1 PUSH1 0x40 ADD PUSH1 0x40 MSTORE DUP1 PUSH32 0x122757890C3F43309334E26258842BB8E8AB0450D387DDF7BC20FC5E01619D92 DUP2 MSTORE PUSH1 0x20 ADD PUSH31 0x593E12FEF04367A7D771CC137C7A3F0F245584F4A40E44C6281CA51E610027 DUP2 MSTORE POP DUP2 MSTORE PUSH1 0x20 ADD PUSH1 0x40 MLOAD DUP1 PUSH1 0x40 ADD PUSH1 0x40 MSTORE DUP1 PUSH32 0x11B21F2409F28092F35B9CD195EE93EE5D0E11ACA3E1A432C007243E186DEC7C DUP2 MSTORE PUSH1 0x20 ADD PUSH32 0x1BCF98B5BBD114064CF46447C90092BBF9384056F13C9487D8021F73D92AC452 DUP2 MSTORE POP DUP2 MSTORE POP DUP2 PUSH1 0x60 ADD DUP2 SWAP1 MSTORE POP PUSH1 0x5 PUSH8 0xFFFFFFFFFFFFFFFF DUP2 GT ISZERO PUSH2 0x6E0 JUMPI PUSH2 0x6DF PUSH2 0x1306 JUMP JUMPDEST JUMPDEST PUSH1 0x40 MLOAD SWAP1 DUP1 DUP3 MSTORE DUP1 PUSH1 0x20 MUL PUSH1 0x20 ADD DUP3 ADD PUSH1 0x40 MSTORE DUP1 ISZERO PUSH2 0x719 JUMPI DUP2 PUSH1 0x20 ADD JUMPDEST PUSH2 0x706 PUSH2 0x10CE JUMP JUMPDEST DUP2 MSTORE PUSH1 0x20 ADD SWAP1 PUSH1 0x1 SWAP1 SUB SWAP1 DUP2 PUSH2 0x6FE JUMPI SWAP1 POP JUMPDEST POP DUP2 PUSH1 0x80 ADD DUP2 SWAP1 MSTORE POP PUSH1 0x40 MLOAD DUP1 PUSH1 0x40 ADD PUSH1 0x40 MSTORE DUP1 PUSH32 0x2FC73B5BBB85ACBD703828A3DF8EE04EF648832B3BBF2C9FD5BB51D4AB0EF984 DUP2 MSTORE PUSH1 0x20 ADD PUSH32 0x197F3E6CF0BDE2D74A7C29BBABE7EA80928B45B23478309EA671A2B973A7EDF2 DUP2 MSTORE POP DUP2 PUSH1 0x80 ADD MLOAD PUSH0 DUP2 MLOAD DUP2 LT PUSH2 0x78E JUMPI PUSH2 0x78D PUSH2 0x1651 JUMP JUMPDEST JUMPDEST PUSH1 0x20 MUL PUSH1 0x20 ADD ADD DUP2 SWAP1 MSTORE POP PUSH1 0x40 MLOAD DUP1 PUSH1 0x40 ADD PUSH1 0x40 MSTORE DUP1 PUSH32 0x1B723ED82A7478E39551E2AB9346EDA38A1C000CDD5F8ADE3CCF6685F9D37B1E DUP2 MSTORE PUSH1 0x20 ADD PUSH32 0x26AD983F9927D8414CDDFE79A4EDA6717A8E82A0E85450E7CA745CD15AF62C77 DUP2 MSTORE POP DUP2 PUSH1 0x80 ADD MLOAD PUSH1 0x1 DUP2 MLOAD DUP2 LT PUSH2 0x806 JUMPI PUSH2 0x805 PUSH2 0x1651 JUMP JUMPDEST JUMPDEST PUSH1 0x20 MUL PUSH1 0x20 ADD ADD DUP2 SWAP1 MSTORE POP PUSH1 0x40 MLOAD DUP1 PUSH1 0x40 ADD PUSH1 0x40 MSTORE DUP1 PUSH32 0x262988545555095A281B0C6AC183626FD44094E1CC230AA38A705030D69124F3 DUP2 MSTORE PUSH1 0x20 ADD PUSH32 0x1F248DCFB5BAF7962C1C481B9D52110825710ACE9B94EF387F78651CB9D3335B DUP2 MSTORE POP DUP2 PUSH1 0x80 ADD MLOAD PUSH1 0x2 DUP2 MLOAD DUP2 LT PUSH2 0x87E JUMPI PUSH2 0x87D PUSH2 0x1651 JUMP JUMPDEST JUMPDEST PUSH1 0x20 MUL PUSH1 0x20 ADD ADD DUP2 SWAP1 MSTORE POP PUSH1 0x40 MLOAD DUP1 PUSH1 0x40 ADD PUSH1 0x40 MSTORE DUP1 PUSH32 0x2B17CCFB2BF38F9ED35F4CB962B705028429E1E66679BFF2D13A0F31049A2B3A DUP2 MSTORE PUSH1 0x20 ADD PUSH32 0x1ABE95F952AB1CD0A71F61D4304C8E85A777CF5AFCB1936B9113A6C8ACF22C68 DUP2 MSTORE POP DUP2 PUSH1 0x80 ADD MLOAD PUSH1 0x3 DUP2 MLOAD DUP2 LT PUSH2 0x8F6 JUMPI PUSH2 0x8F5 PUSH2 0x1651 JUMP JUMPDEST JUMPDEST PUSH1 0x20 MUL PUSH1 0x20 ADD ADD DUP2 SWAP1 MSTORE POP PUSH1 0x40 MLOAD DUP1 PUSH1 0x40 ADD PUSH1 0x40 MSTORE DUP1 PUSH32 0x2D476A4FC5D6E7900B821AC91BC179164787F4C1532BD3B91FACF951788F40AF DUP2 MSTORE PUSH1 0x20 ADD PUSH32 0x2A45D903C16FE8F0D0A14B36AE3FF7252075A266A0C749D3215352F175C1C8F1 DUP2 MSTORE POP DUP2 PUSH1 0x80 ADD MLOAD PUSH1 0x4 DUP2 MLOAD DUP2 LT PUSH2 0x96E JUMPI PUSH2 0x96D PUSH2 0x1651 JUMP JUMPDEST JUMPDEST PUSH1 0x20 MUL PUSH1 0x20 ADD ADD DUP2 SWAP1 MSTORE POP SWAP1 JUMP JUMPDEST PUSH2 0x984 PUSH2 0x10CE JUMP JUMPDEST PUSH2 0x98C PUSH2 0x10E6 JUMP JUMPDEST DUP4 PUSH0 ADD MLOAD DUP2 PUSH0 PUSH1 0x3 DUP2 LT PUSH2 0x9A3 JUMPI PUSH2 0x9A2 PUSH2 0x1651 JUMP JUMPDEST JUMPDEST PUSH1 0x20 MUL ADD DUP2 DUP2 MSTORE POP POP DUP4 PUSH1 0x20 ADD MLOAD DUP2 PUSH1 0x1 PUSH1 0x3 DUP2 LT PUSH2 0x9C5 JUMPI PUSH2 0x9C4 PUSH2 0x1651 JUMP JUMPDEST JUMPDEST PUSH1 0x20 MUL ADD DUP2 DUP2 MSTORE POP POP DUP3 DUP2 PUSH1 0x2 PUSH1 0x3 DUP2 LT PUSH2 0x9E3 JUMPI PUSH2 0x9E2 PUSH2 0x1651 JUMP JUMPDEST JUMPDEST PUSH1 0x20 MUL ADD DUP2 DUP2 MSTORE POP POP PUSH0 PUSH1 0x60 DUP4 PUSH1 0x80 DUP5 PUSH1 0x7 PUSH2 0x7D0 GAS SUB STATICCALL SWAP1 POP DUP1 PUSH0 DUP2 SUB PUSH2 0xA07 JUMPI INVALID JUMPDEST POP DUP1 PUSH2 0xA11 JUMPI PUSH0 DUP1 REVERT JUMPDEST POP POP SWAP3 SWAP2 POP POP JUMP JUMPDEST PUSH2 0xA21 PUSH2 0x10CE JUMP JUMPDEST PUSH2 0xA29 PUSH2 0x1108 JUMP JUMPDEST DUP4 PUSH0 ADD MLOAD DUP2 PUSH0 PUSH1 0x4 DUP2 LT PUSH2 0xA40 JUMPI PUSH2 0xA3F PUSH2 0x1651 JUMP JUMPDEST JUMPDEST PUSH1 0x20 MUL ADD DUP2 DUP2 MSTORE POP POP DUP4 PUSH1 0x20 ADD MLOAD DUP2 PUSH1 0x1 PUSH1 0x4 DUP2 LT PUSH2 0xA62 JUMPI PUSH2 0xA61 PUSH2 0x1651 JUMP JUMPDEST JUMPDEST PUSH1 0x20 MUL ADD DUP2 DUP2 MSTORE POP POP DUP3 PUSH0 ADD MLOAD DUP2 PUSH1 0x2 PUSH1 0x4 DUP2 LT PUSH2 0xA83 JUMPI PUSH2 0xA82 PUSH2 0x1651 JUMP JUMPDEST JUMPDEST PUSH1 0x20 MUL ADD DUP2 DUP2 MSTORE POP POP DUP3 PUSH1 0x20 ADD MLOAD DUP2 PUSH1 0x3 PUSH1 0x4 DUP2 LT PUSH2 0xAA5 JUMPI PUSH2 0xAA4 PUSH2 0x1651 JUMP JUMPDEST JUMPDEST PUSH1 0x20 MUL ADD DUP2 DUP2 MSTORE POP POP PUSH0 PUSH1 0x60 DUP4 PUSH1 0xC0 DUP5 PUSH1 0x6 PUSH2 0x7D0 GAS SUB STATICCALL SWAP1 POP DUP1 PUSH0 DUP2 SUB PUSH2 0xAC9 JUMPI INVALID JUMPDEST POP DUP1 PUSH2 0xAD3 JUMPI PUSH0 DUP1 REVERT JUMPDEST POP POP SWAP3 SWAP2 POP POP JUMP JUMPDEST PUSH2 0xAE3 PUSH2 0x10CE JUMP JUMPDEST PUSH0 PUSH32 0x30644E72E131A029B85045B68181585D97816A916871CA8D3C208C16D87CFD47 SWAP1 POP PUSH0 DUP4 PUSH0 ADD MLOAD EQ DUP1 ISZERO PUSH2 0xB1C JUMPI POP PUSH0 DUP4 PUSH1 0x20 ADD MLOAD EQ JUMPDEST ISZERO PUSH2 0xB3E JUMPI PUSH1 0x40 MLOAD DUP1 PUSH1 0x40 ADD PUSH1 0x40 MSTORE DUP1 PUSH0 DUP2 MSTORE PUSH1 0x20 ADD PUSH0 DUP2 MSTORE POP SWAP2 POP POP PUSH2 0xB74 JUMP JUMPDEST PUSH1 0x40 MLOAD DUP1 PUSH1 0x40 ADD PUSH1 0x40 MSTORE DUP1 DUP5 PUSH0 ADD MLOAD DUP2 MSTORE PUSH1 0x20 ADD DUP3 DUP6 PUSH1 0x20 ADD MLOAD PUSH2 0xB62 SWAP2 SWAP1 PUSH2 0x16F2 JUMP JUMPDEST DUP4 PUSH2 0xB6D SWAP2 SWAP1 PUSH2 0x1722 JUMP JUMPDEST DUP2 MSTORE POP SWAP2 POP POP JUMPDEST SWAP2 SWAP1 POP JUMP JUMPDEST PUSH0 DUP1 PUSH1 0x4 PUSH8 0xFFFFFFFFFFFFFFFF DUP2 GT ISZERO PUSH2 0xB96 JUMPI PUSH2 0xB95 PUSH2 0x1306 JUMP JUMPDEST JUMPDEST PUSH1 0x40 MLOAD SWAP1 DUP1 DUP3 MSTORE DUP1 PUSH1 0x20 MUL PUSH1 0x20 ADD DUP3 ADD PUSH1 0x40 MSTORE DUP1 ISZERO PUSH2 0xBCF JUMPI DUP2 PUSH1 0x20 ADD JUMPDEST PUSH2 0xBBC PUSH2 0x10CE JUMP JUMPDEST DUP2 MSTORE PUSH1 0x20 ADD SWAP1 PUSH1 0x1 SWAP1 SUB SWAP1 DUP2 PUSH2 0xBB4 JUMPI SWAP1 POP JUMPDEST POP SWAP1 POP PUSH0 PUSH1 0x4 PUSH8 0xFFFFFFFFFFFFFFFF DUP2 GT ISZERO PUSH2 0xBEE JUMPI PUSH2 0xBED PUSH2 0x1306 JUMP JUMPDEST JUMPDEST PUSH1 0x40 MLOAD SWAP1 DUP1 DUP3 MSTORE DUP1 PUSH1 0x20 MUL PUSH1 0x20 ADD DUP3 ADD PUSH1 0x40 MSTORE DUP1 ISZERO PUSH2 0xC27 JUMPI DUP2 PUSH1 0x20 ADD JUMPDEST PUSH2 0xC14 PUSH2 0x112A JUMP JUMPDEST DUP2 MSTORE PUSH1 0x20 ADD SWAP1 PUSH1 0x1 SWAP1 SUB SWAP1 DUP2 PUSH2 0xC0C JUMPI SWAP1 POP JUMPDEST POP SWAP1 POP DUP11 DUP3 PUSH0 DUP2 MLOAD DUP2 LT PUSH2 0xC3E JUMPI PUSH2 0xC3D PUSH2 0x1651 JUMP JUMPDEST JUMPDEST PUSH1 0x20 MUL PUSH1 0x20 ADD ADD DUP2 SWAP1 MSTORE POP DUP9 DUP3 PUSH1 0x1 DUP2 MLOAD DUP2 LT PUSH2 0xC5E JUMPI PUSH2 0xC5D PUSH2 0x1651 JUMP JUMPDEST JUMPDEST PUSH1 0x20 MUL PUSH1 0x20 ADD ADD DUP2 SWAP1 MSTORE POP DUP7 DUP3 PUSH1 0x2 DUP2 MLOAD DUP2 LT PUSH2 0xC7E JUMPI PUSH2 0xC7D PUSH2 0x1651 JUMP JUMPDEST JUMPDEST PUSH1 0x20 MUL PUSH1 0x20 ADD ADD DUP2 SWAP1 MSTORE POP DUP5 DUP3 PUSH1 0x3 DUP2 MLOAD DUP2 LT PUSH2 0xC9E JUMPI PUSH2 0xC9D PUSH2 0x1651 JUMP JUMPDEST JUMPDEST PUSH1 0x20 MUL PUSH1 0x20 ADD ADD DUP2 SWAP1 MSTORE POP DUP10 DUP2 PUSH0 DUP2 MLOAD DUP2 LT PUSH2 0xCBD JUMPI PUSH2 0xCBC PUSH2 0x1651 JUMP JUMPDEST JUMPDEST PUSH1 0x20 MUL PUSH1 0x20 ADD ADD DUP2 SWAP1 MSTORE POP DUP8 DUP2 PUSH1 0x1 DUP2 MLOAD DUP2 LT PUSH2 0xCDD JUMPI PUSH2 0xCDC PUSH2 0x1651 JUMP JUMPDEST JUMPDEST PUSH1 0x20 MUL PUSH1 0x20 ADD ADD DUP2 SWAP1 MSTORE POP DUP6 DUP2 PUSH1 0x2 DUP2 MLOAD DUP2 LT PUSH2 0xCFD JUMPI PUSH2 0xCFC PUSH2 0x1651 JUMP JUMPDEST JUMPDEST PUSH1 0x20 MUL PUSH1 0x20 ADD ADD DUP2 SWAP1 MSTORE POP DUP4 DUP2 PUSH1 0x3 DUP2 MLOAD DUP2 LT PUSH2 0xD1D JUMPI PUSH2 0xD1C PUSH2 0x1651 JUMP JUMPDEST JUMPDEST PUSH1 0x20 MUL PUSH1 0x20 ADD ADD DUP2 SWAP1 MSTORE POP PUSH2 0xD32 DUP3 DUP3 PUSH2 0xD42 JUMP JUMPDEST SWAP3 POP POP POP SWAP9 SWAP8 POP POP POP POP POP POP POP POP JUMP JUMPDEST PUSH0 DUP2 MLOAD DUP4 MLOAD EQ PUSH2 0xD50 JUMPI PUSH0 DUP1 REVERT JUMPDEST PUSH0 DUP4 MLOAD SWAP1 POP PUSH0 PUSH1 0x6 DUP3 PUSH2 0xD63 SWAP2 SWAP1 PUSH2 0x1755 JUMP JUMPDEST SWAP1 POP PUSH0 DUP2 PUSH8 0xFFFFFFFFFFFFFFFF DUP2 GT ISZERO PUSH2 0xD80 JUMPI PUSH2 0xD7F PUSH2 0x1306 JUMP JUMPDEST JUMPDEST PUSH1 0x40 MLOAD SWAP1 DUP1 DUP3 MSTORE DUP1 PUSH1 0x20 MUL PUSH1 0x20 ADD DUP3 ADD PUSH1 0x40 MSTORE DUP1 ISZERO PUSH2 0xDAE JUMPI DUP2 PUSH1 0x20 ADD PUSH1 0x20 DUP3 MUL DUP1 CALLDATASIZE DUP4 CALLDATACOPY DUP1 DUP3 ADD SWAP2 POP POP SWAP1 POP JUMPDEST POP SWAP1 POP PUSH0 JUMPDEST DUP4 DUP2 LT ISZERO PUSH2 0x102C JUMPI DUP7 DUP2 DUP2 MLOAD DUP2 LT PUSH2 0xDCE JUMPI PUSH2 0xDCD PUSH2 0x1651 JUMP JUMPDEST JUMPDEST PUSH1 0x20 MUL PUSH1 0x20 ADD ADD MLOAD PUSH0 ADD MLOAD DUP3 PUSH0 PUSH1 0x6 DUP5 PUSH2 0xDE8 SWAP2 SWAP1 PUSH2 0x1755 JUMP JUMPDEST PUSH2 0xDF2 SWAP2 SWAP1 PUSH2 0x161E JUMP JUMPDEST DUP2 MLOAD DUP2 LT PUSH2 0xE03 JUMPI PUSH2 0xE02 PUSH2 0x1651 JUMP JUMPDEST JUMPDEST PUSH1 0x20 MUL PUSH1 0x20 ADD ADD DUP2 DUP2 MSTORE POP POP DUP7 DUP2 DUP2 MLOAD DUP2 LT PUSH2 0xE22 JUMPI PUSH2 0xE21 PUSH2 0x1651 JUMP JUMPDEST JUMPDEST PUSH1 0x20 MUL PUSH1 0x20 ADD ADD MLOAD PUSH1 0x20 ADD MLOAD DUP3 PUSH1 0x1 PUSH1 0x6 DUP5 PUSH2 0xE3E SWAP2 SWAP1 PUSH2 0x1755 JUMP JUMPDEST PUSH2 0xE48 SWAP2 SWAP1 PUSH2 0x161E JUMP JUMPDEST DUP2 MLOAD DUP2 LT PUSH2 0xE59 JUMPI PUSH2 0xE58 PUSH2 0x1651 JUMP JUMPDEST JUMPDEST PUSH1 0x20 MUL PUSH1 0x20 ADD ADD DUP2 DUP2 MSTORE POP POP DUP6 DUP2 DUP2 MLOAD DUP2 LT PUSH2 0xE78 JUMPI PUSH2 0xE77 PUSH2 0x1651 JUMP JUMPDEST JUMPDEST PUSH1 0x20 MUL PUSH1 0x20 ADD ADD MLOAD PUSH0 ADD MLOAD PUSH1 0x1 PUSH1 0x2 DUP2 LT PUSH2 0xE96 JUMPI PUSH2 0xE95 PUSH2 0x1651 JUMP JUMPDEST JUMPDEST PUSH1 0x20 MUL ADD MLOAD DUP3 PUSH1 0x2 PUSH1 0x6 DUP5 PUSH2 0xEAB SWAP2 SWAP1 PUSH2 0x1755 JUMP JUMPDEST PUSH2 0xEB5 SWAP2 SWAP1 PUSH2 0x161E JUMP JUMPDEST DUP2 MLOAD DUP2 LT PUSH2 0xEC6 JUMPI PUSH2 0xEC5 PUSH2 0x1651 JUMP JUMPDEST JUMPDEST PUSH1 0x20 MUL PUSH1 0x20 ADD ADD DUP2 DUP2 MSTORE POP POP DUP6 DUP2 DUP2 MLOAD DUP2 LT PUSH2 0xEE5 JUMPI PUSH2 0xEE4 PUSH2 0x1651 JUMP JUMPDEST JUMPDEST PUSH1 0x20 MUL PUSH1 0x20 ADD ADD MLOAD PUSH0 ADD MLOAD PUSH0 PUSH1 0x2 DUP2 LT PUSH2 0xF02 JUMPI PUSH2 0xF01 PUSH2 0x1651 JUMP JUMPDEST JUMPDEST PUSH1 0x20 MUL ADD MLOAD DUP3 PUSH1 0x3 PUSH1 0x6 DUP5 PUSH2 0xF17 SWAP2 SWAP1 PUSH2 0x1755 JUMP JUMPDEST PUSH2 0xF21 SWAP2 SWAP1 PUSH2 0x161E JUMP JUMPDEST DUP2 MLOAD DUP2 LT PUSH2 0xF32 JUMPI PUSH2 0xF31 PUSH2 0x1651 JUMP JUMPDEST JUMPDEST PUSH1 0x20 MUL PUSH1 0x20 ADD ADD DUP2 DUP2 MSTORE POP POP DUP6 DUP2 DUP2 MLOAD DUP2 LT PUSH2 0xF51 JUMPI PUSH2 0xF50 PUSH2 0x1651 JUMP JUMPDEST JUMPDEST PUSH1 0x20 MUL PUSH1 0x20 ADD ADD MLOAD PUSH1 0x20 ADD MLOAD PUSH1 0x1 PUSH1 0x2 DUP2 LT PUSH2 0xF70 JUMPI PUSH2 0xF6F PUSH2 0x1651 JUMP JUMPDEST JUMPDEST PUSH1 0x20 MUL ADD MLOAD DUP3 PUSH1 0x4 PUSH1 0x6 DUP5 PUSH2 0xF85 SWAP2 SWAP1 PUSH2 0x1755 JUMP JUMPDEST PUSH2 0xF8F SWAP2 SWAP1 PUSH2 0x161E JUMP JUMPDEST DUP2 MLOAD DUP2 LT PUSH2 0xFA0 JUMPI PUSH2 0xF9F PUSH2 0x1651 JUMP JUMPDEST JUMPDEST PUSH1 0x20 MUL PUSH1 0x20 ADD ADD DUP2 DUP2 MSTORE POP POP DUP6 DUP2 DUP2 MLOAD DUP2 LT PUSH2 0xFBF JUMPI PUSH2 0xFBE PUSH2 0x1651 JUMP JUMPDEST JUMPDEST PUSH1 0x20 MUL PUSH1 0x20 ADD ADD MLOAD PUSH1 0x20 ADD MLOAD PUSH0 PUSH1 0x2 DUP2 LT PUSH2 0xFDD JUMPI PUSH2 0xFDC PUSH2 0x1651 JUMP JUMPDEST JUMPDEST PUSH1 0x20 MUL ADD MLOAD DUP3 PUSH1 0x5 PUSH1 0x6 DUP5 PUSH2 0xFF2 SWAP2 SWAP1 PUSH2 0x1755 JUMP JUMPDEST PUSH2 0xFFC SWAP2 SWAP1 PUSH2 0x161E JUMP JUMPDEST DUP2 MLOAD DUP2 LT PUSH2 0x100D JUMPI PUSH2 0x100C PUSH2 0x1651 JUMP JUMPDEST JUMPDEST PUSH1 0x20 MUL PUSH1 0x20 ADD ADD DUP2 DUP2 MSTORE POP POP DUP1 DUP1 PUSH2 0x1024 SWAP1 PUSH2 0x167E JUMP JUMPDEST SWAP2 POP POP PUSH2 0xDB3 JUMP JUMPDEST POP PUSH2 0x1035 PUSH2 0x1150 JUMP JUMPDEST PUSH0 PUSH1 0x20 DUP3 PUSH1 0x20 DUP7 MUL PUSH1 0x20 DUP7 ADD PUSH1 0x8 PUSH2 0x7D0 GAS SUB STATICCALL SWAP1 POP DUP1 PUSH0 DUP2 SUB PUSH2 0x1055 JUMPI INVALID JUMPDEST POP DUP1 PUSH2 0x105F JUMPI PUSH0 DUP1 REVERT JUMPDEST PUSH0 DUP3 PUSH0 PUSH1 0x1 DUP2 LT PUSH2 0x1073 JUMPI PUSH2 0x1072 PUSH2 0x1651 JUMP JUMPDEST JUMPDEST PUSH1 0x20 MUL ADD MLOAD EQ ISZERO SWAP6 POP POP POP POP POP POP SWAP3 SWAP2 POP POP JUMP JUMPDEST PUSH1 0x40 MLOAD DUP1 PUSH1 0xA0 ADD PUSH1 0x40 MSTORE DUP1 PUSH2 0x109A PUSH2 0x10CE JUMP JUMPDEST DUP2 MSTORE PUSH1 0x20 ADD PUSH2 0x10A7 PUSH2 0x112A JUMP JUMPDEST DUP2 MSTORE PUSH1 0x20 ADD PUSH2 0x10B4 PUSH2 0x112A JUMP JUMPDEST DUP2 MSTORE PUSH1 0x20 ADD PUSH2 0x10C1 PUSH2 0x112A JUMP JUMPDEST DUP2 MSTORE PUSH1 0x20 ADD PUSH1 0x60 DUP2 MSTORE POP SWAP1 JUMP JUMPDEST PUSH1 0x40 MLOAD DUP1 PUSH1 0x40 ADD PUSH1 0x40 MSTORE DUP1 PUSH0 DUP2 MSTORE PUSH1 0x20 ADD PUSH0 DUP2 MSTORE POP SWAP1 JUMP JUMPDEST PUSH1 0x40 MLOAD DUP1 PUSH1 0x60 ADD PUSH1 0x40 MSTORE DUP1 PUSH1 0x3 SWAP1 PUSH1 0x20 DUP3 MUL DUP1 CALLDATASIZE DUP4 CALLDATACOPY DUP1 DUP3 ADD SWAP2 POP POP SWAP1 POP POP SWAP1 JUMP JUMPDEST PUSH1 0x40 MLOAD DUP1 PUSH1 0x80 ADD PUSH1 0x40 MSTORE DUP1 PUSH1 0x4 SWAP1 PUSH1 0x20 DUP3 MUL DUP1 CALLDATASIZE DUP4 CALLDATACOPY DUP1 DUP3 ADD SWAP2 POP POP SWAP1 POP POP SWAP1 JUMP JUMPDEST PUSH1 0x40 MLOAD DUP1 PUSH1 0x40 ADD PUSH1 0x40 MSTORE DUP1 PUSH2 0x113D PUSH2 0x1172 JUMP JUMPDEST DUP2 MSTORE PUSH1 0x20 ADD PUSH2 0x114A PUSH2 0x1172 JUMP JUMPDEST DUP2 MSTORE POP SWAP1 JUMP JUMPDEST PUSH1 0x40 MLOAD DUP1 PUSH1 0x20 ADD PUSH1 0x40 MSTORE DUP1 PUSH1 0x1 SWAP1 PUSH1 0x20 DUP3 MUL DUP1 CALLDATASIZE DUP4 CALLDATACOPY DUP1 DUP3 ADD SWAP2 POP POP SWAP1 POP POP SWAP1 JUMP JUMPDEST PUSH1 0x40 MLOAD DUP1 PUSH1 0x40 ADD PUSH1 0x40 MSTORE DUP1 PUSH1 0x2 SWAP1 PUSH1 0x20 DUP3 MUL DUP1 CALLDATASIZE DUP4 CALLDATACOPY DUP1 DUP3 ADD SWAP2 POP POP SWAP1 POP POP SWAP1 JUMP JUMPDEST PUSH0 PUSH1 0x40 MLOAD SWAP1 POP SWAP1 JUMP JUMPDEST PUSH0 DUP1 REVERT JUMPDEST PUSH0 PUSH20 0xFFFFFFFFFFFFFFFFFFFFFFFFFFFFFFFFFFFFFFFF DUP3 AND SWAP1 POP SWAP2 SWAP1 POP JUMP JUMPDEST PUSH0 PUSH2 0x11CA DUP3 PUSH2 0x11A1 JUMP JUMPDEST SWAP1 POP SWAP2 SWAP1 POP JUMP JUMPDEST PUSH2 0x11DA DUP2 PUSH2 0x11C0 JUMP JUMPDEST DUP2 EQ PUSH2 0x11E4 JUMPI PUSH0 DUP1 REVERT JUMPDEST POP JUMP JUMPDEST PUSH0 DUP2 CALLDATALOAD SWAP1 POP PUSH2 0x11F5 DUP2 PUSH2 0x11D1 JUMP JUMPDEST SWAP3 SWAP2 POP POP JUMP JUMPDEST PUSH0 PUSH1 0x20 DUP3 DUP5 SUB SLT ISZERO PUSH2 0x1210 JUMPI PUSH2 0x120F PUSH2 0x119D JUMP JUMPDEST JUMPDEST PUSH0 PUSH2 0x121D DUP5 DUP3 DUP6 ADD PUSH2 0x11E7 JUMP JUMPDEST SWAP2 POP POP SWAP3 SWAP2 POP POP JUMP JUMPDEST PUSH0 DUP2 SWAP1 POP SWAP2 SWAP1 POP JUMP JUMPDEST PUSH2 0x1238 DUP2 PUSH2 0x1226 JUMP JUMPDEST DUP3 MSTORE POP POP JUMP JUMPDEST PUSH0 PUSH1 0x20 DUP3 ADD SWAP1 POP PUSH2 0x1251 PUSH0 DUP4 ADD DUP5 PUSH2 0x122F JUMP JUMPDEST SWAP3 SWAP2 POP POP JUMP JUMPDEST PUSH2 0x1260 DUP2 PUSH2 0x1226 JUMP JUMPDEST DUP2 EQ PUSH2 0x126A JUMPI PUSH0 DUP1 REVERT JUMPDEST POP JUMP JUMPDEST PUSH0 DUP2 CALLDATALOAD SWAP1 POP PUSH2 0x127B DUP2 PUSH2 0x1257 JUMP JUMPDEST SWAP3 SWAP2 POP POP JUMP JUMPDEST PUSH0 DUP1 PUSH1 0x40 DUP4 DUP6 SUB SLT ISZERO PUSH2 0x1297 JUMPI PUSH2 0x1296 PUSH2 0x119D JUMP JUMPDEST JUMPDEST PUSH0 PUSH2 0x12A4 DUP6 DUP3 DUP7 ADD PUSH2 0x126D JUMP JUMPDEST SWAP3 POP POP PUSH1 0x20 PUSH2 0x12B5 DUP6 DUP3 DUP7 ADD PUSH2 0x126D JUMP JUMPDEST SWAP2 POP POP SWAP3 POP SWAP3 SWAP1 POP JUMP JUMPDEST PUSH0 DUP2 ISZERO ISZERO SWAP1 POP SWAP2 SWAP1 POP JUMP JUMPDEST PUSH2 0x12D3 DUP2 PUSH2 0x12BF JUMP JUMPDEST DUP3 MSTORE POP POP JUMP JUMPDEST PUSH0 PUSH1 0x20 DUP3 ADD SWAP1 POP PUSH2 0x12EC PUSH0 DUP4 ADD DUP5 PUSH2 0x12CA JUMP JUMPDEST SWAP3 SWAP2 POP POP JUMP JUMPDEST PUSH0 DUP1 REVERT JUMPDEST PUSH0 PUSH1 0x1F NOT PUSH1 0x1F DUP4 ADD AND SWAP1 POP SWAP2 SWAP1 POP JUMP JUMPDEST PUSH32 0x4E487B7100000000000000000000000000000000000000000000000000000000 PUSH0 MSTORE PUSH1 0x41 PUSH1 0x4 MSTORE PUSH1 0x24 PUSH0 REVERT JUMPDEST PUSH2 0x133C DUP3 PUSH2 0x12F6 JUMP JUMPDEST DUP2 ADD DUP2 DUP2 LT PUSH8 0xFFFFFFFFFFFFFFFF DUP3 GT OR ISZERO PUSH2 0x135B JUMPI PUSH2 0x135A PUSH2 0x1306 JUMP JUMPDEST JUMPDEST DUP1 PUSH1 0x40 MSTORE POP POP POP JUMP JUMPDEST PUSH0 PUSH2 0x136D PUSH2 0x1194 JUMP JUMPDEST SWAP1 POP PUSH2 0x1379 DUP3 DUP3 PUSH2 0x1333 JUMP JUMPDEST SWAP2 SWAP1 POP JUMP JUMPDEST PUSH0 PUSH1 0x40 DUP3 DUP5 SUB SLT ISZERO PUSH2 0x1393 JUMPI PUSH2 0x1392 PUSH2 0x12F2 JUMP JUMPDEST JUMPDEST PUSH2 0x139D PUSH1 0x40 PUSH2 0x1364 JUMP JUMPDEST SWAP1 POP PUSH0 PUSH2 0x13AC DUP5 DUP3 DUP6 ADD PUSH2 0x126D JUMP JUMPDEST PUSH0 DUP4 ADD MSTORE POP PUSH1 0x20 PUSH2 0x13BF DUP5 DUP3 DUP6 ADD PUSH2 0x126D JUMP JUMPDEST PUSH1 0x20 DUP4 ADD MSTORE POP SWAP3 SWAP2 POP POP JUMP JUMPDEST PUSH0 DUP1 REVERT JUMPDEST PUSH0 PUSH8 0xFFFFFFFFFFFFFFFF DUP3 GT ISZERO PUSH2 0x13E9 JUMPI PUSH2 0x13E8 PUSH2 0x1306 JUMP JUMPDEST JUMPDEST PUSH1 0x20 DUP3 MUL SWAP1 POP SWAP2 SWAP1 POP JUMP JUMPDEST PUSH0 DUP1 REVERT JUMPDEST PUSH0 PUSH2 0x140A PUSH2 0x1405 DUP5 PUSH2 0x13CF JUMP JUMPDEST PUSH2 0x1364 JUMP JUMPDEST SWAP1 POP DUP1 PUSH1 0x20 DUP5 MUL DUP4 ADD DUP6 DUP2 GT ISZERO PUSH2 0x1424 JUMPI PUSH2 0x1423 PUSH2 0x13F4 JUMP JUMPDEST JUMPDEST DUP4 JUMPDEST DUP2 DUP2 LT ISZERO PUSH2 0x144D JUMPI DUP1 PUSH2 0x1439 DUP9 DUP3 PUSH2 0x126D JUMP JUMPDEST DUP5 MSTORE PUSH1 0x20 DUP5 ADD SWAP4 POP POP PUSH1 0x20 DUP2 ADD SWAP1 POP PUSH2 0x1426 JUMP JUMPDEST POP POP POP SWAP4 SWAP3 POP POP POP JUMP JUMPDEST PUSH0 DUP3 PUSH1 0x1F DUP4 ADD SLT PUSH2 0x146B JUMPI PUSH2 0x146A PUSH2 0x13CB JUMP JUMPDEST JUMPDEST PUSH1 0x2 PUSH2 0x1478 DUP5 DUP3 DUP6 PUSH2 0x13F8 JUMP JUMPDEST SWAP2 POP POP SWAP3 SWAP2 POP POP JUMP JUMPDEST PUSH0 PUSH1 0x80 DUP3 DUP5 SUB SLT ISZERO PUSH2 0x1496 JUMPI PUSH2 0x1495 PUSH2 0x12F2 JUMP JUMPDEST JUMPDEST PUSH2 0x14A0 PUSH1 0x40 PUSH2 0x1364 JUMP JUMPDEST SWAP1 POP PUSH0 PUSH2 0x14AF DUP5 DUP3 DUP6 ADD PUSH2 0x1457 JUMP JUMPDEST PUSH0 DUP4 ADD MSTORE POP PUSH1 0x40 PUSH2 0x14C2 DUP5 DUP3 DUP6 ADD PUSH2 0x1457 JUMP JUMPDEST PUSH1 0x20 DUP4 ADD MSTORE POP SWAP3 SWAP2 POP POP JUMP JUMPDEST PUSH0 PUSH2 0x100 DUP3 DUP5 SUB SLT ISZERO PUSH2 0x14E4 JUMPI PUSH2 0x14E3 PUSH2 0x12F2 JUMP JUMPDEST JUMPDEST PUSH2 0x14EE PUSH1 0x60 PUSH2 0x1364 JUMP JUMPDEST SWAP1 POP PUSH0 PUSH2 0x14FD DUP5 DUP3 DUP6 ADD PUSH2 0x137E JUMP JUMPDEST PUSH0 DUP4 ADD MSTORE POP PUSH1 0x40 PUSH2 0x1510 DUP5 DUP3 DUP6 ADD PUSH2 0x1481 JUMP JUMPDEST PUSH1 0x20 DUP4 ADD MSTORE POP PUSH1 0xC0 PUSH2 0x1524 DUP5 DUP3 DUP6 ADD PUSH2 0x137E JUMP JUMPDEST PUSH1 0x40 DUP4 ADD MSTORE POP SWAP3 SWAP2 POP POP JUMP JUMPDEST PUSH0 PUSH2 0x100 DUP3 DUP5 SUB SLT ISZERO PUSH2 0x1546 JUMPI PUSH2 0x1545 PUSH2 0x119D JUMP JUMPDEST JUMPDEST PUSH0 PUSH2 0x1553 DUP5 DUP3 DUP6 ADD PUSH2 0x14CE JUMP JUMPDEST SWAP2 POP POP SWAP3 SWAP2 POP POP JUMP JUMPDEST PUSH0 DUP3 DUP3 MSTORE PUSH1 0x20 DUP3 ADD SWAP1 POP SWAP3 SWAP2 POP POP JUMP JUMPDEST PUSH32 0x426162792069742773206D652C20000000000000000000000000000000000000 PUSH0 DUP3 ADD MSTORE POP JUMP JUMPDEST PUSH0 PUSH2 0x15A0 PUSH1 0xE DUP4 PUSH2 0x155C JUMP JUMPDEST SWAP2 POP PUSH2 0x15AB DUP3 PUSH2 0x156C JUMP JUMPDEST PUSH1 0x20 DUP3 ADD SWAP1 POP SWAP2 SWAP1 POP JUMP JUMPDEST PUSH2 0x15BF DUP2 PUSH2 0x11C0 JUMP JUMPDEST DUP3 MSTORE POP POP JUMP JUMPDEST PUSH0 PUSH1 0x40 DUP3 ADD SWAP1 POP DUP2 DUP2 SUB PUSH0 DUP4 ADD MSTORE PUSH2 0x15DC DUP2 PUSH2 0x1594 JUMP JUMPDEST SWAP1 POP PUSH2 0x15EB PUSH1 0x20 DUP4 ADD DUP5 PUSH2 0x15B6 JUMP JUMPDEST SWAP3 SWAP2 POP POP JUMP JUMPDEST PUSH32 0x4E487B7100000000000000000000000000000000000000000000000000000000 PUSH0 MSTORE PUSH1 0x11 PUSH1 0x4 MSTORE PUSH1 0x24 PUSH0 REVERT JUMPDEST PUSH0 PUSH2 0x1628 DUP3 PUSH2 0x1226 JUMP JUMPDEST SWAP2 POP PUSH2 0x1633 DUP4 PUSH2 0x1226 JUMP JUMPDEST SWAP3 POP DUP3 DUP3 ADD SWAP1 POP DUP1 DUP3 GT ISZERO PUSH2 0x164B JUMPI PUSH2 0x164A PUSH2 0x15F1 JUMP JUMPDEST JUMPDEST SWAP3 SWAP2 POP POP JUMP JUMPDEST PUSH32 0x4E487B7100000000000000000000000000000000000000000000000000000000 PUSH0 MSTORE PUSH1 0x32 PUSH1 0x4 MSTORE PUSH1 0x24 PUSH0 REVERT JUMPDEST PUSH0 PUSH2 0x1688 DUP3 PUSH2 0x1226 JUMP JUMPDEST SWAP2 POP PUSH32 0xFFFFFFFFFFFFFFFFFFFFFFFFFFFFFFFFFFFFFFFFFFFFFFFFFFFFFFFFFFFFFFFF DUP3 SUB PUSH2 0x16BA JUMPI PUSH2 0x16B9 PUSH2 0x15F1 JUMP JUMPDEST JUMPDEST PUSH1 0x1 DUP3 ADD SWAP1 POP SWAP2 SWAP1 POP JUMP JUMPDEST PUSH32 0x4E487B7100000000000000000000000000000000000000000000000000000000 PUSH0 MSTORE PUSH1 0x12 PUSH1 0x4 MSTORE PUSH1 0x24 PUSH0 REVERT JUMPDEST PUSH0 PUSH2 0x16FC DUP3 PUSH2 0x1226 JUMP JUMPDEST SWAP2 POP PUSH2 0x1707 DUP4 PUSH2 0x1226 JUMP JUMPDEST SWAP3 POP DUP3 PUSH2 0x1717 JUMPI PUSH2 0x1716 PUSH2 0x16C5 JUMP JUMPDEST JUMPDEST DUP3 DUP3 MOD SWAP1 POP SWAP3 SWAP2 POP POP JUMP JUMPDEST PUSH0 PUSH2 0x172C DUP3 PUSH2 0x1226 JUMP JUMPDEST SWAP2 POP PUSH2 0x1737 DUP4 PUSH2 0x1226 JUMP JUMPDEST SWAP3 POP DUP3 DUP3 SUB SWAP1 POP DUP2 DUP2 GT ISZERO PUSH2 0x174F JUMPI PUSH2 0x174E PUSH2 0x15F1 JUMP JUMPDEST JUMPDEST SWAP3 SWAP2 POP POP JUMP JUMPDEST PUSH0 PUSH2 0x175F DUP3 PUSH2 0x1226 JUMP JUMPDEST SWAP2 POP PUSH2 0x176A DUP4 PUSH2 0x1226 JUMP JUMPDEST SWAP3 POP DUP3 DUP3 MUL PUSH2 0x1778 DUP2 PUSH2 0x1226 JUMP JUMPDEST SWAP2 POP DUP3 DUP3 DIV DUP5 EQ DUP4 ISZERO OR PUSH2 0x178F JUMPI PUSH2 0x178E PUSH2 0x15F1 JUMP JUMPDEST JUMPDEST POP SWAP3 SWAP2 POP POP JUMP INVALID LOG2 PUSH5 0x6970667358 0x22 SLT KECCAK256 CALL 0xC7 0x5C 0xE2 SWAP10 0x4B 0xCD 0xDA DUP1 SWAP5 0xA6 PUSH18 0xB2C53A37011A1B2F027D051BA7AB2F4434E2 SMOD DELEGATECALL PUSH5 0x736F6C6343 STOP ADDMOD EQ STOP CALLER "
		},
		"gasEstimates": {
			"creation": {
				"codeDepositCost": "1218400",
				"executionCost": "1266",
				"totalCost": "1219666"
			},
			"external": {
				"generate(address)": "infinite",
				"solved(address)": "2823",
				"verify(uint256,uint256)": "infinite",
				"verifyProof(((uint256,uint256),(uint256[2],uint256[2]),(uint256,uint256)))": "infinite"
			}
		},
		"methodIdentifiers": {
			"generate(address)": "2fa61cd8",
			"solved(address)": "5e36bdc6",
			"verify(uint256,uint256)": "41161b10",
			"verifyProof(((uint256,uint256),(uint256[2],uint256[2]),(uint256,uint256)))": "9eefefef"
		}
	},
	"abi": [
		{
			"inputs": [
				{
					"internalType": "address",
					"name": "_who",
					"type": "address"
				}
			],
			"name": "generate",
			"outputs": [
				{
					"internalType": "uint256",
					"name": "",
					"type": "uint256"
				}
			],
			"stateMutability": "pure",
			"type": "function"
		},
		{
			"inputs": [
				{
					"internalType": "address",
					"name": "",
					"type": "address"
				}
			],
			"name": "solved",
			"outputs": [
				{
					"internalType": "uint256",
					"name": "",
					"type": "uint256"
				}
			],
			"stateMutability": "view",
			"type": "function"
		},
		{
			"inputs": [
				{
					"internalType": "uint256",
					"name": "_start",
					"type": "uint256"
				},
				{
					"internalType": "uint256",
					"name": "_solution",
					"type": "uint256"
				}
			],
			"name": "verify",
			"outputs": [
				{
					"internalType": "bool",
					"name": "",
					"type": "bool"
				}
			],
			"stateMutability": "view",
			"type": "function"
		},
		{
			"inputs": [
				{
					"components": [
						{
							"components": [
								{
									"internalType": "uint256",
									"name": "X",
									"type": "uint256"
								},
								{
									"internalType": "uint256",
									"name": "Y",
									"type": "uint256"
								}
							],
							"internalType": "struct Pairing.G1Point",
							"name": "a",
							"type": "tuple"
						},
						{
							"components": [
								{
									"internalType": "uint256[2]",
									"name": "X",
									"type": "uint256[2]"
								},
								{
									"internalType": "uint256[2]",
									"name": "Y",
									"type": "uint256[2]"
								}
							],
							"internalType": "struct Pairing.G2Point",
							"name": "b",
							"type": "tuple"
						},
						{
							"components": [
								{
									"internalType": "uint256",
									"name": "X",
									"type": "uint256"
								},
								{
									"internalType": "uint256",
									"name": "Y",
									"type": "uint256"
								}
							],
							"internalType": "struct Pairing.G1Point",
							"name": "c",
							"type": "tuple"
						}
					],
					"internalType": "struct Verifier.Proof",
					"name": "_proof",
					"type": "tuple"
				}
			],
			"name": "verifyProof",
			"outputs": [
				{
					"internalType": "bool",
					"name": "",
					"type": "bool"
				}
			],
			"stateMutability": "nonpayable",
			"type": "function"
		}
	]
}